:020000040800F2
:1000000000000120AD1B0008B5040008B70400087B
:10001000B9040008BB040008BD040008000000008B
:10002000000000000000000000000000BF04000805
:10003000C104000800000000C3040008C504000853
:10004000F51B0008F51B0008F51B0008F51B000850
:10005000F51B0008F51B0008F51B0008F51B000840
:10006000F51B0008F51B0008F51B0008F51B000830
:10007000F51B0008F51B0008CD040008DD0400088E
:10008000F51B0008F51B0008F51B0008F51B000810
:10009000F51B0008F51B0008F51B0008F51B000800
:1000A000F51B0008F51B0008F51B0008F51B0008F0
:1000B000F51B0008F51B0008F51B0008F51B0008E0
:1000C000F51B0008F51B0008F51B0008F51B0008D0
:1000D000F51B0008ED040008F51B0008F51B0008DF
:1000E000F51B0008F51B0008F51B0008F51B0008B0
:1000F000F51B0008F51B0008F51B0008F51B0008A0
:10010000F51B0008F51B0008F51B0008F51B00088F
:10011000F51B0008F51B0008F51B0008F51B00087F
:10012000F51B0008F51B0008F51B0008F51B00086F
:1001300000000000000000000000000000000000BF
:1001400000000000000000000000000000000000AF
:10015000000000000000000000000000000000009F
:10016000000000000000000000000000000000008F
:10017000000000000000000000000000000000007F
:10018000000000000000000000000000000000006F
:10019000000000000000000000000000000000005F
:1001A000000000000000000000000000000000004F
:1001B000000000000000000000000000000000003F
:1001C000000000000000000000000000000000002F
:1001D000000000000000000000000000000000001F
:0401E0005FF8E0F1F3
:1001E40010B5054C237833B9044B13B10448AFF36D
:1001F40000800123237010BD4C0800200000000083
:10020400F435000808B5034B1BB103490348AFF3A9
:10021400008008BD0000000050080020F4350008EC
:10022400844641EA000313F0030349D1403A23D33F
:100234000B6803604B6843608B688360CB68C36062
:100244000B6903614B6943618B698361CB69C3614A
:100254000B6A03624B6A43628B6A8362CB6AC36232
:100264000B6B03634B6B43638B6B8363CB6BC3631A
:1002740040304031403ADBD230320BD30B6803605C
:100284004B6843608B688360CB68C3601030103167
:10029400103AF3D20C3205D351F8043B40F8043B36
:1002A400043AF9D2043208D0D2071CBF11F8013B3A
:1002B40000F8013B01D30B8803806046704700BF00
:1002C400082A13D38B07B1D010F00303AED0C3F1C7
:1002D4000403D21ADB071CBF11F8013B00F8013BF1
:1002E400A4D331F8023B20F8023B9FE7043AD9D368
:1002F400013A11F8013B00F8013BF9D20B78037085
:100304004B7843708B7883706046704730B591B0FA
:10031400002409940B940194029403940494059486
:10032400092306934FF480330793089401220A9219
:100334000C9202250D950E934FF4E0130F9306A82B
:1003440000F0A8FD0F230193029503944FF48063FA
:1003540004930594294601A800F0DAFF11B030BDDA
:1003640008B500F047F9FFF7D1FF01F02BFB01F0CE
:100374004DFB01F0E5FBFCE77047000082B00E4B3B
:100384009A6942F001029A619A6902F001020092AC
:10039400009ADA6942F08052DA61DB6903F0805333
:1003A4000193019B054A536823F0E06343F0007313
:1003B400536002B0704700BF0010024000000140CB
:1003C40070B586B0002302930393049305930268E7
:1003D400314B9A4201D006B070BD044603F5584330
:1003E4009A6942F480429A619A6902F480420092C6
:1003F400009A9A6942F004029A619B6903F004032B
:100404000193019B4FF4007302930223039303238C
:100414000593224E02A9304600F004FC4FF4806399
:10042400029300250395049502A9304600F0FAFBD7
:100434001B481C4B03601023436085608023C3600A
:10044400056145618561C56100F076F9E8B9144B31
:1004540023635C621448154B03600023436083608C
:100464008022C260036143618361C36100F064F967
:1004740070B90D4B63635C6200221146252000F0C5
:1004840003F9252000F034F9A5E7FFF775FFDEE74F
:10049400FFF772FFEDE700BF00380140000801409C
:1004A400AC080020440002406808002058000240C4
:1004B4007047FEE7FEE7FEE7FEE7704770477047C8
:1004C40008B500F0A9F808BD08B5024800F034FAF0
:1004D40008BD00BFAC08002008B5024800F02CFAA3
:1004E40008BD00BF6808002008B5084801F0C8F935
:1004F400064801F061FA2028FAD101220449034890
:1005040001F037F90028F8D108BD00BFF808002031
:10051400040A002070B50C4616460025B54207DAD9
:10052400AFF30080214601F8010B01350C46F5E7D5
:10053400304670BD70B50C4616460025B54205DA46
:1005440014F8010BAFF300800135F7E7304670BDB6
:1005540008B503460B4A126842B10A4A10680344BC
:100564006A46934206D8074A136008BD054A0649FD
:100574001160F2E701F03EFB0C2303604FF0FF3003
:10058400F3E700BFF0080020680A00204FF0FF30B6
:1005940070474FF400534B600020704701207047B0
:1005A400002070477047000010B504460E4B1878C1
:1005B4004FF47A73B3FBF0F30C4A1068B0FBF3F01A
:1005C40000F0A4F868B90F2C01D901200AE0002238
:1005D40021464FF0FF3000F057F8054B1C60002017
:1005E40000E0012010BD00BF040000200000002036
:1005F4000800002008B5074A136843F0100313608D
:10060400032000F02FF80020FFF7CEFFFFF7B6FE1F
:10061400002008BD00200240034A1168034B1B78E8
:100624000B441360704700BFF4080020040000204E
:10063400014B1868704700BFF408002038B5044621
:10064400FFF7F6FF0546B4F1FF3F02D0044B1B78D9
:100654001C44FFF7EDFF401BA042FAD338BD00BF96
:1006640004000020074AD36823F4E0631B041B0C36
:10067400000200F4E060034343F0BF6343F400333B
:10068400D360704700ED00E030B4174BDB68C3F370
:100694000223C3F10704042C28BF04241D1D062DC6
:1006A40018D9033B4FF0FF3505FA04F421EA04019D
:1006B400994005FA03F322EA0303194300280BDBEC
:1006C4000901C9B200F1604000F5614080F80013EF
:1006D40030BC70470023E5E700F00F000901C9B200
:1006E400024B1954F4E700BF00ED00E014ED00E004
:1006F400002807DB00F01F02400901239340024A4F
:1007040042F82030704700BF00E100E00138B0F14A
:10071400807F0AD2064B5860064AF02182F82310E3
:100724000020986007221A6070470120704700BFBC
:1007340010E000E000ED00E000283AD010B40246DA
:1007440000681D4B984229D81C4B03441C49A1FB4B
:1007540003131B099B0013641A4BD363022382F80F
:100764002130016821F47F5121F0300153689468ED
:100774002343D4682343146923435469234394696A
:100784002343D46923430B43036000209063012374
:1007940082F8213082F8200010BC70470A4B0344D1
:1007A4000749A1FB03131B099B001364074BD36385
:1007B400D4E70120704700BF07040240F8FFFDBFE3
:1007C400CDCCCCCC00000240F8FBFDBF00040240BD
:1007D40008B590F82130022B03D004238363012051
:1007E40008BD0268136823F00E03136002681368DF
:1007F40023F00103136003684B4A93424ED9783ABD
:10080400934224D01432934230D0143293422FD0E6
:10081400143293422FD0143293422FD01432934285
:100824002FD0143293422FD002F5627293422ED00D
:10083400143293422DD0143293422CD0143293426A
:1008440002D04FF4803203E04FF4805200E00122E2
:10085400364B5A60012380F82130002380F8203081
:10086400436B002B5ED098470020B9E71022EFE7D6
:100874004FF48072ECE74FF48052E9E74FF4803292
:10088400E6E74FF48012E3E74FF08072E0E70122DD
:10089400DEE71022DCE74FF48072D9E7244A934262
:1008A40024D01432934225D01432934224D01432EB
:1008B400934224D01432934224D01432934224D04D
:1008C4001432934224D002F56272934223D014323C
:1008D400934222D01432934221D01432934202D054
:1008E4004FF4803203E04FF4805200E00122114BB8
:1008F4005A60AFE71022FAE74FF48072F7E74FF43B
:100904008052F4E74FF48032F1E74FF48012EEE7BF
:100914004FF08072EBE70122E9E71022E7E74FF49A
:100924008072E4E700205BE780000240000402409C
:10093400080002400000024038B5C36B1A6804681E
:100944002568016C04238B40134200F09B8015F052
:10095400040F00F09780236813F0200F03D123685D
:1009640023F0040323600368AA4A934246D9783AE1
:10097400934224D01432934228D01432934227D085
:100984001432934227D01432934227D01432934224
:1009940027D01432934227D002F56272934226D0B4
:1009A4001432934225D01432934224D01432934209
:1009B40002D04FF4802203E04FF4804200E004228E
:1009C400954B5A60C36A03B1984738BD4022F7E794
:1009D4004FF48062F4E74FF48042F1E74FF4802251
:1009E400EEE74FF48002EBE74FF08062E8E7042281
:1009F400E6E74022E4E74FF48062E1E7874A934266
:100A040024D01432934225D01432934224D0143289
:100A1400934224D01432934224D01432934224D0EB
:100A24001432934224D002F56272934223D01432DA
:100A3400934222D01432934221D01432934202D0F2
:100A44004FF4802203E04FF4804200E00422744B10
:100A54005A60B7E74022FAE74FF48062F7E74FF4B1
:100A64008042F4E74FF48022F1E74FF48002EEE78E
:100A74004FF08062EBE70422E9E74022E7E74FF416
:100A84008062E4E702238B40134200F0A38015F058
:100A9400020F00F09F80236813F0200F06D1236813
:100AA40023F00A032360012380F821300368594AA4
:100AB40093424BD9783A934224D0143293422DD0A6
:100AC400143293422CD0143293422CD014329342D9
:100AD4002CD0143293422CD0143293422CD002F5F1
:100AE400627293422BD0143293422AD0143293422E
:100AF40029D01432934202D04FF4003203E04FF471
:100B0400005200E00222444B5A60002380F8203057
:100B1400836A002B3FF459AF984756E72022F2E747
:100B24004FF40072EFE74FF40052ECE74FF4003259
:100B3400E9E74FF40012E6E74FF00072E3E7022220
:100B4400E1E72022DFE74FF40072DCE7334A934207
:100B540024D01432934225D01432934224D0143238
:100B6400934224D01432934224D01432934224D09A
:100B74001432934224D002F56272934223D0143289
:100B8400934222D01432934221D01432934202D0A1
:100B94004FF4003203E04FF4005200E00222204BF5
:100BA4005A60B2E72022FAE74FF40072F7E74FF4F5
:100BB4000052F4E74FF40032F1E74FF40012EEE78D
:100BC4004FF00072EBE70222E9E72022E7E74FF457
:100BD4000072E4E7082303FA01F111423FF4F5AE91
:100BE40015F0080F3FF4F1AE236823F00E032360E1
:100BF400026CC16B012303FA02F24A60836380F83A
:100C04002130002380F82030036B002B3FF4DDAE4D
:100C14009847DAE6800002400004024008000240DF
:100C240000000240F0B482B000252C46ABE0854FB2
:100C3400BB4210D007D9844FBB420CD007F5803794
:100C4400BB4208D013E0A7F58017BB4203D007F5D9
:100C54007027BB4207D18B68002B60D0012B59D081
:100C64004261082503E0A7F58017BB42F3D0FF2EAD
:100C740057D88446FF2E57D8A200DCF800300F273F
:100C8400974023EA070305FA02F21343CCF8003035
:100C94004B6813F0805F75D06C4B9A6942F0010287
:100CA4009A619B6903F001030193019BA208971CBD
:100CB400674B53F827C004F003039F000F23BB4086
:100CC4002CEA030C634B984234D003F580639842BA
:100CD40000F0948003F58063984200F0918003F55E
:100CE4008063984200F08E8003F58063984200F0A0
:100CF4008B8003F5806398421AD006231BE0CD68ED
:100D0400B5E7CD680435B2E7CD680835AFE7CD68FF
:100D14000C35ACE702610825A9E70025A7E70425FF
:100D2400A5E700F1040CA5E7A4F108029200A4E7EA
:100D3400052300E00023BB4043EA0C030232444F86
:100D440047F822304B6813F4803F5FD0424A13685F
:100D5400334313604B6813F4003F5DD03E4A53683D
:100D6400334353604B6813F4801F5BD03A4A936853
:100D7400334393604B6813F4001F59D0364AD36849
:100D84001E43D66001340B6833FA04F256D00122B4
:100D9400A24003EA020632EA0303F3D14B68122BA2
:100DA4003FF645AF122B3FF662AF01A757F823F089
:100DB4005B0C0008030D00080D0D00081F0D000852
:100DC400730C0008730C0008730C0008730C000803
:100DD400730C0008730C0008730C0008730C0008F3
:100DE400730C0008730C0008730C0008730C0008E3
:100DF400730C0008070D0008130D000801239AE77F
:100E0400022398E7032396E7042394E7124A13681E
:100E140023EA060313609DE70F4A536823EA060397
:100E240053609FE70C4A936823EA06039360A1E7A3
:100E3400094AD36823EA0606D660A3E702B0F0BCE9
:100E4400704700BF00002210000031100010024063
:100E54000000014000080140000401400AB10161A2
:100E6400704709040161704782B0084B1B68084A47
:100E7400A2FB03235B0A00FB03F3019300BF019B66
:100E84005A1E0192002BF9D102B0704700000020D5
:100E9400D34D6210002800F0F18170B582B0044691
:100EA400036813F0010F2CD0AA4B5B6803F00C030A
:100EB400042B1DD0A74B5B6803F00C03082B12D046
:100EC4006368B3F5803F41D0002B55D103F18043D3
:100ED40003F504331A6822F480321A601A6822F483
:100EE40080221A6037E09B4B5B6813F4803FE7D0A5
:100EF400984B1B6813F4003F03D06368002B00F089
:100F0400BF81236813F0020F75D0924B5B6813F016
:100F14000C0F5FD08F4B5B6803F00C03082B54D08D
:100F24002369002B00F089808B4B01221A60FFF7A4
:100F34007FFB0546874B1B6813F0020F74D1FFF744
:100F440077FB401B0228F5D903209EE1814A1368F0
:100F540043F480331360636843B3FFF769FB0546CA
:100F64007C4B1B6813F4003FCBD1FFF761FB401BA4
:100F74006428F5D9032088E1B3F5A02F09D0754B77
:100F84001A6822F480321A601A6822F480221A60E5
:100F9400E1E703F18043A3F53C331A6842F480226D
:100FA4001A601A6842F480321A60D4E7FFF740FBF3
:100FB4000546684B1B6813F4003FA2D0FFF738FBCB
:100FC400401B6428F5D903205FE1624B5B6813F48E
:100FD400803FA5D15F4B1B6813F0020F03D0236938
:100FE400012B40F04F815B4A136823F0F8036169D9
:100FF40043EAC1031360236813F0080F32D0A369D6
:10100400002B45D0554B01221A60FFF711FB054612
:10101400504B5B6A13F0020F21D1FFF709FB401B11
:101024000228F5D9032030E14A4A136823F0F80373
:10103400616943EAC1031360DDE7474B00221A608C
:10104400FFF7F6FA0546434B1B6813F0020FD2D0A4
:10105400FFF7EEFA401B0228F5D9032015E1012021
:10106400FFF702FF236813F0040F00F09780394B59
:10107400DB6913F0805F1DD1364BDA6942F0805290
:10108400DA61DB6903F080530193019B012512E0CF
:10109400324B00221A60FFF7CBFA05462D4B5B6AF0
:1010A40013F0020FDED0FFF7C3FA401B0228F5D974
:1010B4000320EAE000252A4B1B6813F4807F11D03B
:1010C400E368012B22D0002B38D103F1804303F5D0
:1010D40004331A6A22F001021A621A6A22F0040224
:1010E4001A6218E01E4A136843F480731360FFF712
:1010F4009FFA06461A4B1B6813F4807FE0D1FFF772
:1011040097FA801B6428F5D90320BEE0114A136ABC
:1011140043F001031362E36873B3FFF789FA0646E9
:101124000C4B1B6A13F0020F37D1FFF781FA801BB7
:1011340041F288339842F3D90320A6E0052B11D05D
:10114400044B1A6A22F001021A621A6A22F004029B
:101154001A62E0E70010024000004242800442426A
:10116400007000404D4B1A6A42F004021A621A6A77
:1011740042F001021A62CEE7FFF75AFA0646474BDD
:101184001B6A13F0020F08D0FFF752FA801B41F2DA
:1011940088339842F3D9032077E0E5B9E369002B5B
:1011A40072D03E4A526802F00C02082A56D0022B32
:1011B40017D03B4B00221A60FFF73AFA0446374B2C
:1011C4001B6813F0007F47D0FFF732FA001B022898
:1011D400F5D9032059E0314AD36923F08053D36110
:1011E400DCE72F4B00221A60FFF722FA05462B4B4F
:1011F4001B6813F0007F06D0FFF71AFA401B022881
:10120400F5D9032041E0236AB3F5803F1AD023497E
:101214004B6823F47413226A606A024313434B60DD
:101224001F4B01221A60FFF703FA04461B4B1B688D
:1012340013F0007F0ED1FFF7FBF9001B0228F5D94C
:10124400032022E0154A536823F40033A1680B43BA
:101254005360DCE7002018E0002016E0012B16D0D4
:101264000E4B5B6803F48031226A914211D103F47E
:101274007013626A93420ED1002006E00120704789
:10128400012002E0012000E0002002B070BD012036
:10129400FBE70120F9E70120F7E700BF0010024057
:1012A4006000424286B0164B0FCB0DF1180C0CE9CE
:1012B4000F0040F20123ADF80430124B5B6803F0D9
:1012C4000C02082A02D0104806B07047C3F38342C8
:1012D400624412F8102C13F4803F0CD0094B5B6865
:1012E400C3F34043634413F8143C074800FB02F083
:1012F400B0FBF3F0E8E7054800FB02F0E4E700BFC9
:10130400243600080010024000127A0000093D0053
:10131400002800F0A08070B50D460446524B1B68AF
:1013240003F007038B420BD24F4A136823F00703E1
:101334000B431360136803F007038B4240F08D8066
:10134400236813F0020F17D013F0040F04D0474A98
:10135400536843F4E0635360236813F0080F04D028
:10136400424A536843F460535360404A536823F03D
:10137400F003A1680B435360236813F0010F31D0CD
:101384006368012B20D0022B25D0384A126812F052
:10139400020F64D035494A6822F0030213434B60BC
:1013A400FFF746F90646314B5B6803F00C036268AD
:1013B400B3EB820F16D0FFF73BF9801B41F2883361
:1013C4009842F0D9032045E0284A126812F4003FFD
:1013D400E0D101203EE0254A126812F0007FD9D105
:1013E400012037E0204B1B6803F00703AB420AD906
:1013F4001D4A136823F007032B431360136803F09B
:101404000703AB422DD1236813F0040F06D0174A0B
:10141400536823F4E063E1680B435360236813F0DB
:10142400080F07D0114A536823F46053216943EA33
:10143400C1035360FFF736FF0C4B5B68C3F3031320
:101444000B4AD35CD8400B4B18600B4B1868FFF762
:10145400ABF8002070BD012070470120FAE701209D
:10146400F8E70120F6E700BF002002400010024028
:101474000C3600080000002008000020014B18680A
:10148400704700BF0000002008B5FFF7F7FF044BCA
:101494005B68C3F30223034AD35CD84008BD00BF92
:1014A400001002401C36000808B5FFF7E7FF044BA4
:1014B4005B68C3F3C223034AD35CD84008BD00BFB2
:1014C400001002401C3600080268D36823F49073AD
:1014D400D3600268536923F001035361202380F829
:1014E4003A30704790F83930DBB2212B01D002201A
:1014F40070478368B3F5805F17D0036A5A1C026291
:101504001A7803685A60C38C9BB2013B9BB2C384B4
:101514004BB90268D36823F08003D3600268D368B0
:1015240043F04003D360002070470369002BE4D1EB
:10153400036A1B880268C3F308035360036A023317
:101544000362E0E710B504460268136923F44053CC
:10155400C1680B43136183680269134342691A43E8
:101564000168CB6823F4B05323F00C031343CB601E
:101574000268536923F4407381690B435361026821
:10158400124B9A421FD0FFF77FFF00EB800303EB5F
:10159400830362689200B3FBF2F20D48A0FB0231B0
:1015A4004909642303FB11231B013233A0FB0323EA
:1015B4005B0903F0F00202EB011203F00F03216850
:1015C40013448B6010BDFFF76FFFDEE70038014066
:1015D4001F85EB512DE9F84305460F4616469946FB
:1015E400DDF820802C68246837EA04030CBF01244A
:1015F4000024B4421FD1B8F1FF3FF3D0B8F1000F7B
:1016040005D0FFF715F8A0EB09004045EAD92A6890
:10161400D36823F4D073D3602A68536923F0010399
:101624005361202385F8393085F83A30002385F852
:101634003830032000E00020BDE8F88358B310B52B
:10164400044690F839300BB3242384F839302268E7
:10165400D36823F40053D3602046FFF773FF226856
:10166400136923F4904313612268536923F02A0316
:1016740053612268D36843F40053D3600020E063CD
:10168400202384F8393084F83A3010BD80F838309B
:10169400FEF796FED8E7012070472DE9F04182B0AD
:1016A4001E4690F83930DBB2202B54D104460D4647
:1016B4009046002953D0002A53D090F83830012B9B
:1016C40051D0012380F838300023C363212380F8EC
:1016D4003930FEF7ADFF0746A4F82480A4F826802D
:1016E400A368B3F5805F05D04FF00008002384F8A9
:1016F400383012E0236913B14FF00008F6E7A8462A
:101704000025F3E738F8023B2268C3F3080353606B
:10171400E28C92B2013A92B2E284E38C9BB273B14E
:1017240000963B46002280212046FFF753FFE0B994
:10173400002DE7D015F8012B23685A60E8E70096DE
:101744003B46002240212046FFF744FF78B920237E
:1017540084F8393000E0022002B0BDE8F0810120B5
:10176400FAE70120F8E70220F6E70320F4E7032074
:10177400F2E790F83A30DBB2202B20D109B312B350
:1017840090F83830012B20D081628285C2850023F5
:10179400C363222280F83A2080F838300168CA688E
:1017A40042F48072CA6001684A6942F001024A61E7
:1017B4000168CA6842F02002CA60184670470220D5
:1017C400704701207047012070470220704770471E
:1017D40008B50168CA6822F04002CA60202280F875
:1017E4003920FFF7F4FF002008BD08B590F83A301F
:1017F400DBB2222B41D18368B3F5805F14D0826AB7
:10180400B3F5805F02D0E3B90369D3B903685B68B9
:101814001370836A01338362C38D9BB2013B9BB215
:10182400C385A3B1002008BD0269002AE7D1826AFA
:1018340003685B68C3F308031380836A023383621B
:10184400EAE703685B6803F07F031370E1E702686B
:10185400D36823F02003D3600268D36823F4807331
:10186400D3600268536923F001035361202380F895
:101874003A3000F029F90020D5E70220D3E7704779
:1018840010B5044602681368D168526913F00F005A
:1018940005D113F0200F02D011F0200F13D128B17D
:1018A40012F0010213D111F4907F10D113F0800FC4
:1018B40002D011F0800F6CD113F0400F02D011F060
:1018C400400F6AD110BD2046FFF78FFFFAE713F0EF
:1018D400010F06D011F4807F03D0E06B40F00100CB
:1018E400E06313F0040F04D01AB1E06B40F002007F
:1018F400E06313F0020F04D01AB1E06B40F004006F
:10190400E06313F0080F07D011F0200F00D11AB1D3
:10191400E26B42F00802E263E26B002AD2D013F0D9
:10192400200F02D011F0200F21D123685B6903F04E
:101934004003E26B12F0080F00D123B32046FFF7F7
:10194400C3FD23685A6912F0400F18D05A6922F077
:1019540040025A61636B73B1124A5A63606BFEF7BB
:1019640037FF0028AED0606B436B9847AAE7204648
:10197400FFF73BFFD9E72046FFF781FFA2E72046A8
:10198400FFF77DFF9EE72046FFF779FF0023E3631F
:1019940098E72046FFF7A6FD94E72046FFF718FFD7
:1019A40090E700BFAD19000808B5406A0023C3855D
:1019B400C384FFF764FF08BD90F8393090F83A000B
:1019C4001843704730B587B00E4B9A6942F0200235
:1019D4009A619B6903F020030193019B18250295EA
:1019E400002303930223049303230593064C02A9C3
:1019F4002046FFF717F9012229462046FFF72EFA61
:101A040007B030BD0010024000140140F0B589B0A9
:101A1400284B9A6942F004029A619A6902F004021E
:101A24000192019A9A6942F480429A619A6902F495
:101A340080420292029A9A6942F001029A619B6979
:101A440003F001030393039B4FF4007304930223F5
:101A540005930126069603240794174F04A93846D4
:101A6400FFF7E0F84FF4806304930025059504A97B
:101A74003846FFF7D7F82520FEF73AFE22462146DE
:101A84002520FEF701FE0D4C0D4B23604FF4E1338E
:101A94006360A5600C236361A5612561E560E56170
:101AA4002046FFF7CBFD324606492046FFF761FE8C
:101AB40009B0F0BD0010024000080140F808002001
:101AC40000380140040A00200268194B9A4200D0F1
:101AD4007047184A1388B2F90020002AF8DB13F47F
:101AE400804F0ED0144A12780A2A03D0114B0022D8
:101AF4001A8070476FEA43436FEA53430D4A1380D9
:101B040070470D4A12780D2A0DD0C3F30D010B480E
:101B1400425401339BB2074A1380C72BD8D91346CA
:101B240000221A80D4E743F48043024A13807047AA
:101B34000038014038090020040A00203C09002034
:101B440010B5002210211248FFF788F9114B1C88A8
:101B5400B3F90030002B03DB0A20FEF76FFD10BD44
:101B64000D4800F00FF94FF47A73E2B20B490C48B8
:101B7400FFF793FD0A4B1B681B6813F0400FF9D065
:101B8400084800F0FFF8034B00221A80E7E700BF83
:101B94000014014038090020383600083C090020B0
:101BA400F808002054360008002103E00B4B5B5872
:101BB400435004310A480B4B42189A42F6D30A4A5E
:101BC40002E0002342F8043B084B9A42F9D3FEF7A3
:101BD400E9FC00F015F8FEF7C3FB70476C3600080B
:101BE400000000204C0800204C080020640A00205B
:101BF400FEE70000014B1868704700BF0C0000208E
:101C040070B50D4E0D4D761BB61006D0002455F858
:101C1400043B01349847A642F9D1094E094D01F01D
:101C2400E7FC761BB61006D0002455F8043B0134BB
:101C34009847A642F9D170BD6036000860360008A6
:101C44006836000860360008F0B4860746D0541E93
:101C5400002A3CD00346CAB201E0013C37D303F862
:101C6400012B9D07F9D1032C2AD9CDB245EA0525CC
:101C74000F2C45EA054534D9A4F1100222F00F0CCB
:101C840003F120071609674403F1100242E90455E1
:101C940042E902551032BA42F8D1721C14F00C0F0A
:101CA40003EB021204F00F0613D0331F23F00303D7
:101CB4000433134442F8045B9342FBD106F003045B
:101CC4002CB1CAB21C4403F8012B9C42FBD1F0BCDA
:101CD400704734461346002CF3D1F8E71446034604
:101CE400C1E71A462646E0E7F0B5054689B008463E
:101CF4000C46012700F04EF802262149AA6B0590F4
:101D040004AB384404940390AC6807970296069198
:101D1400019322B3636E13F0010FB4F90C309AB23D
:101D240001D1980525D5910406D4626E43F400537D
:101D340022F40052A3816266284601AA214600F0DB
:101D4400E5F8636E002814BF4FF0FF350A25DA0763
:101D540002D4A3899B0506D5284609B0F0BD2846C0
:101D640000F084F8D6E7A06D00F070FA284609B0B8
:101D7400F0BDA06D00F068FAB4F90C309AB2D2E765
:101D84005C360008024B01461868FFF7ADBF00BF80
:101D94000C00002020F0030110F00300C0F100004B
:101DA40051F8043B00F1040C4FEACC0C6FF0000234
:101DB4001CBF22FA0CF213434FF0010C4CEA0C2C1A
:101DC4004CEA0C4CA3EB0C0222EA030212EACC12FA
:101DD40004BF51F8043B0430F4D0C2F1000102EA1C
:101DE4000102B2FA82F2C2F11F0200EBD200704784
:101DF400024B13B1024800F005B870470000000020
:101E0400E51E0008002301461A46184601F04AB8A8
:101E1400002310B50446C0E90033C0E904338181CE
:101E2400C281194683604366836108225C30FFF7F0
:101E34000BFF07480749084A084BC4E90740C4E9AF
:101E44000912E36204F15800BDE8104000F0F8B94B
:101E5400212D0008452D0008852D0008A52D00081A
:101E6400014900F0C9B900BF592F000810B5044654
:101E7400134800F0E9F9A26BEAB90320114904F50B
:101E84003B73C4F8E832C4E9B820E1636068042114
:101E9400FFF7BEFFA06801220921FFF7B9FFE06840
:101EA40002221221FFF7B4FF01230548A363BDE812
:101EB400104000F0CBB90248BDE8104000F0C6B9AC
:101EC400480A0020651E0008014800F0BDB900BFA3
:101ED4005C0A0020014800F0B9B900BF5C0A002088
:101EE40038B5084B084D5B1B9C1007D0043B1D44C0
:101EF400013C55F804399847002CF9D1BDE8384025
:101F040001F07CBB6C360008683600089368002B2F
:101F140000F0BD802DE9F04F9046B1F90C200C463D
:101F24001107814683B093B227D522692AB313F0EF
:101F34000207D8F800502FD04FF0000B5F46DFF8AF
:101F4400B4A2002F00F0898057453B465A4628BF6B
:101F540053464846E169666AB047002840F38D80DD
:101F6400D8F8083083441B1A3F1AC8F80830002BED
:101F7400E7D1002003B0BDE8F08F2146484600F0C9
:101F840029FF002840F03281B4F90C20D8F8005021
:101F940093B213F00207CFD113F0010A79D1564658
:101FA400002E56D09A05A76840F1BD80B742BB46C3
:101FB40000F2D28013F4906F00F0D080D4E90417BB
:101FC400226807EB4707A2EB010B07EBD7770BF16E
:101FD40001007F103044B8423A4684BF07463A466F
:101FE4005B0540F1E7801146484600F031F90028CE
:101FF40000F0F6805A4621690090FEF711F9A28993
:10200400009B22F4906242F08002A281A7EB0B02B3
:1020140003EB0B006761B346374623612060A2607F
:102024005A46514600F002FCA2682368D21B374688
:1020340000265B44A2602360D8F80820BA44D71B6A
:10204400C8F80870002F94D0B4F90C309BB2002E5D
:10205400A8D1D5E900A60835A2E7D5E900B7083527
:102064006FE729465A4600F0E1FB236821465B44AA
:102074004846236001F06CF858B3B4F90C304FF0C3
:10208400FF3043F04003A38103B0BDE8F08F00208C
:1020940070473E46AA4638463D4600976EB3002830
:1020A40035D0009A20682169B24228BF324688425E
:1020B400636904D9A16803EB010B5A45D1DC93424F
:1020C4006BDC2A464846E169676AB847B0F1000B01
:1020D400D3DD009BB3EB0B03009357D00120D8F85A
:1020E40008305D44A3EB0B03A6EB0B06C8F80830DD
:1020F400002B3FF43EAF002ED1D10AF1080353F870
:10210400046C9A4653F8085C0833002EF7D0324624
:102114000A21284600F04AFB00285ED00130431B08
:102124001A460093BEE720682369984218D862696A
:10213400B24215D86FF00043B34228BF334693FB35
:10214400F2F3676A02FB03F348465246E169B84773
:10215400071E92DDF61B6FE73746B34620685FE73C
:10216400B74228BF374651463A4600F05FFBA368A2
:102174002268DB1B3A44A3602260002BEAD121468B
:10218400484600F0E5FF0028E4D076E721464846BB
:1021940000F0DEFF0028A2D06FE7294693460192A3
:1021A40000F044FBA1682368019A891A1A44A160CB
:1021B40022608EE7484600F0AFFB034600287FF418
:1021C40025AF4846216901F041F80C22B4F90C30DE
:1021D400C9F8002023F0800351E7721C009261E7E4
:1021E4000C22B4F90C30C9F8002048E74FF0FF3056
:1021F400C0E600BF00FCFF7F2DE9F8430746884690
:102204004FF0000900F53876D6E90154013D10D4A9
:10221400A389013D012B08D9B4F90E30013304D050
:1022240021463846C04749EA00096B1C04F168049A
:10223400EED13668002EE7D14846BDE8F88300BFEA
:10224400704700BF704700BF704700BF704700BFB2
:102254002DE9F04F01F10B05162D064683B024D865
:10226400102900F2B68000F04BFB10250220182341
:10227400DFF8E88443445C68A3F10802944200F068
:10228400B4806368E16823F0030323445A68A568B3
:1022940042F00102E96030468D6008345A6000F073
:1022A40035FB204603B0BDE8F08F35F0070500F19B
:1022B4009080A94200F28D8000F022FBB5F5FC7FEE
:1022C400C0F085816B0A00F08B80042B00F25B81E7
:1022D400AB0903F1390003F13807C100DFF87C844E
:1022E40041444C680839A14206D10CE0002A80F22E
:1022F4002281E468A14206D0636823F003035A1BD9
:102304000F2AF3DD3846D8F81040DFF854C464458A
:1023140077D0626822F00302531B0F2B00F3658110
:10232400002BC8E904CC80F25681B2F5007F80F01E
:1023340006810121D30852090B4401FA02F2D8F8AC
:10234400041058F8337008EBC30E0A43AEF10801C9
:10235400C4E90271C8F8042048F83340FC60012144
:1023640083109940914253D8114206D120F00300C2
:102374004900114200F10400FAD008EBC0094C46B0
:102384008646E768BC4207D109E1002B80F2108140
:10239400FF68BC4200F003817A6822F00302531BF9
:1023A4000F2BF2DD45F0010E3046D7E902413D44E2
:1023B40043F00106C7F804E0E1608C60C8E9045505
:1023C400C5E902CC6E60BB5000F0A0FA07F1080426
:1023D40002E00C2300243360204603B0BDE8F08FF4
:1023E4004FF4007140203F2778E7DC68A34208BF20
:1023F40002307FF446AFD8F81040DFF864C3644578
:1024040087D10121D8F80420831099409142ABD997
:10241400D8F80840676827F00307BD4202D87B1B41
:102424000F2B77DCDFF83C93C84BD9F800201B68EE
:1024340001322B4404EB070A00F0248103F5805396
:102444000F3323F47F6B2BF00F0B5946304600F00B
:1024540053FC411C024600F0E180824500F2DC801E
:10246400BB4B196859440846196000F04181D9F8FA
:102474000010019301311BBFA2EB0A0A5044C9F8B2
:102484000020186012F0070A00F00A81CAF108015E
:102494000A44CAF5805193440831A1EB0B01C1F3FE
:1024A4000B0949463046009200F026FC421CDDE947
:1024B400002300F04381801A00EB090B19684BF0EC
:1024C400010049444445C8F808201960506000F0F0
:1024D4001C810F2F40F21B814FF0050C60680C3FEC
:1024E40027F0070700F00100384304EB070E0F2F15
:1024F4006060CEE901CC00F2378114465068954BF8
:102504001A688A4238BF1960934B1A688A4238BFE6
:10251400196086E045F0010243F00103254462603E
:102524003046C8F8085008346B6000F0EFF92046D4
:1025340003B0BDE8F08F23445A68E168A7E6B2F51A
:10254400206F4FEA522361D3142B00F2BA8003F1B7
:102554005C01C9005B3308EB010758F80110083F20
:102564008F4200F092804B6823F00303934202D918
:1025740089688F42F7D1CF68D8F80420C4E90217DC
:10258400BC60CC60EBE6142B59D9542B00F2A1802B
:102594002B0B03F16F0003F16E07C1009EE60EF1F1
:1025A400010E1EF0030F04F108047FF4EAAE51E0BB
:1025B4003C463A445368F96854F8085F43F0010311
:1025C40053603046E9608D6000F0A0F904E7E80844
:1025D40005F108034CE622445368304643F00103F6
:1025E4005360083400F092F9F6E645F0010743F031
:1025F4000101254467603046C8E90455C5E902CCA9
:102604006960A35000F082F90834E5E6930903F108
:102614003901C90038339EE7444564D0D8F80840EE
:10262400606820F0030B5D45ABEB050302D80F2B6C
:102634003FF770AF304600F069F90024CCE603F1AF
:102644005C0003F15B07C10048E659F808394B45C3
:1026540040F0A98010F0030F00F1FF30F5D1D8F855
:10266400043023EA0103C8F80430490099423FF6D4
:10267400CFAE19B9CCE649000EF1040E1942FAD0D6
:1026840070467AE603F1100BDFE64FF0010E9A1064
:10269400D8F804300EFA02F21A43C8F804206DE7A1
:1026A40002EB0B014942C1F30B0949463046009243
:1026B40000F022FB431CDDE900237FF4FCAED1468D
:1026C400FCE6542B26D8130B03F16F01C9006E33BB
:1026D40041E7B3F5AA7F26D8EB0B03F1780003F1A9
:1026E4007707C100FAE51A4B186858441860BEE62B
:1026F400CAF30B0CBCF1000F7FF4B9AED8F8084054
:10270400BB444BF001006060F9E61446F7E6012390
:1027140053608FE7B3F5AA7F32D8D30B03F1780166
:10272400C900773317E740F25452934232D8AB0CC6
:1027340003F17D0003F17C07C100CFE5AAF1080A8B
:10274400D3444FF00009ABEB020BB7E6380A002084
:10275400080A0020300A0020340A00203C0400202B
:10276400440400204408002004F10801304600938A
:1027740000F06CFDD8F80840009B60681968BEE65C
:1027840040F254518B420AD8930C03F17D01C900E5
:102794007C33E0E64FF47E717F207E279EE54FF484
:1027A4007E717E23D7E6D8F804305EE770B48407E0
:1027B400CDB212D00346541E2AB90BE09A0718462C
:1027C4000CD0013C06D3184613F8012BAA42F5D1CC
:1027D40070BC7047002070BC70471446032C0DD8A1
:1027E400002CF7D00246031901E09A42F2D01046B9
:1027F40012F8011BA942F8D170BC704706460A02C0
:1028040092B22A4342EA0242336830465340A3F16B
:10281400013121EA030313F0803F06F10406E1D1FC
:10282400043C032C3046EFD8DAE700BF8842F0B40A
:102834000DD98B1883420AD9841832B1224613F871
:10284400014D994202F8014DF9D1F0BC70470F2AAD
:102854000ED80346541E002AF7D001340C44013B21
:1028640011F8012BA14203F8012FF9D1F0BC7047F4
:1028740040EA01039B073ED1A2F1100323F00F04A9
:1028840001F1200727441B0901F1100400F1100590
:1028940054F8106C103445F8106C54F81C6C103556
:1028A40045F81C6C54F8186C45F8186C54F8146C02
:1028B400BC4245F8146CEBD1013312F00C0F01EB60
:1028C400031102F00F0400EB031317D00E46043C6F
:1028D40024F0030CA5089C441C1F56F8047B44F800
:1028E400047F6445F9D16C1C03EB840301EB840180
:1028F40002F00302AEE70346541EAEE72246A9E700
:102904000148FFF7A1BC00BF4C0A00200148FFF7B3
:102914009DBC00BF4C0A00202DE9F84F1646002943
:1029240000F0BD8006F10B050C468046FFF7E8FF7A
:10293400162D5FD810252A46AE4260D854F8041CE0
:10294400A4F1080921F00307974280F28680C94B5D
:1029540009EB0700D3F808C0844500F0B980D0F82B
:1029640004C02CF0010303445B68DB0700F18C8096
:102974002CF0030C07EB0C03934280F21581CB0778
:102984000FD454F8083CA9EB030ADAF8043023F016
:1029940003018C44BC44944538DA7B18934280F29A
:1029A4000F8131464046FFF753FC0646E0B154F828
:1029B400043CA0F1080223F001034B44934200F0CD
:1029C400F9803A1F242A00F21C81132A00F2CD80D8
:1029D40003462246116819605168596092689A60EA
:1029E4002146404600F032FC4046FFF78FFF304658
:1029F400BDE8F88F25F00705002D2A469CDA0C2344
:102A04000026C8F800303046BDE8F88F5646D0E9B5
:102A14000213CB60996056F8081FDAF80C303A1F9D
:102A2400242ACB60996000F20781132A40F20281C4
:102A340023681B2ACAF808306368CAF80C3000F20D
:102A44001B8108340AF11003226867461A60626821
:102A5400D1465A60A26834469A607B1B0F2BD9F882
:102A6400042021D802F001023A4309EB0701C9F816
:102A740004204B6843F001034B6026464046FFF7B1
:102A840045FF3046BDE8F88FC9078AD454F8083C9E
:102A9400A9EB030ADAF8041021F003017DE71146DB
:102AA400BDE8F84FFFF7D4BB02F0010209EB0501C2
:102AB40043F001032A43C9F804204F444B607B6868
:102AC400404643F0010308317B6000F0BFFBD4E7CC
:102AD400DCF804B005F110002BF0030B07EB0B0C32
:102AE40084454DDAC9073FF55CAF54F8081CA9EBDF
:102AF400010ADAF8041021F003018B44BB44584561
:102B04003FF74BAF5646DAF80C1056F8080F3A1F49
:102B1400242AC160886000F2BD80132A40F2B88084
:102B240021681B2ACAF808106168CAF80C1000F260
:102B3400C18008340AF11002216811606168516093
:102B4400A1689160ABEB05020AEB050142F00102BA
:102B540099604A60DAF80430404603F001031D43EB
:102B6400CAF80450FFF7D2FE4DE723681B2A03601E
:102B74006368436049D804F1080200F1080329E7B7
:102B8400ACEB050209EB050142F0010299604A60D1
:102B940054F8043C404603F001031D4344F8045C2C
:102BA400FFF7B4FE26462EE7D0E902121F46CA609C
:102BB400916052E750F8043C23F003031F444CE7B0
:102BC4005646DAF80C1056F8080F3A1F242AC1604A
:102BD400886027D8132A23D921681B2ACAF8081029
:102BE4006168CAF80C102FD808340AF11002216861
:102BF4001F4611606368D1465360A36834469360EE
:102C04002BE72146FFF712FEEAE6A368242A836035
:102C1400E368C36024D004F1100200F11003D9E684
:102C24003246E4E7214630461F46D146FFF7FEFD13
:102C3400344612E7334607E7214630466746D14615
:102C4400FFF7F4FD344608E7A168242ACAF81010F7
:102C5400E168CAF8141023D010340AF11802C6E748
:102C6400236904F118020361616900F118034161E9
:102C7400B0E600BF3C040020A368242ACAF8103040
:102C8400E368CAF8143021D010340AF11803DBE6E3
:102C9400324651E721463046FFF7C8FD154B51E750
:102CA40021690AF12002CAF8181061691834CAF8B7
:102CB4001C109CE7A168242ACAF81010E168CAF81D
:102CC40014100DD010340AF1180235E722690AF104
:102CD4002003CAF8182062691834CAF81C20B3E625
:102CE40021690AF12002CAF8181061691834CAF877
:102CF4001C1021E73C040020002238B5064D044690
:102D040008462A60FDF724FC431C00D038BD2B681C
:102D1400002BFBD0236038BD600A002010B50C46A0
:102D2400B1F90E1000F026FC002803DB236D0344E8
:102D3400236510BDA38923F48053A38110BD00BF74
:102D44002DE9F0410C46B1F90C101F46CB0516468F
:102D540005460BD421F48051A1813B4632462846D6
:102D6400B4F90E10BDE8F04100F01EB8B4F90E102D
:102D74000223002200F070FBB4F90C10EAE700BF54
:102D840010B50C46B1F90E1000F066FBA389421C85
:102D94000EBF23F4805343F480532065A38110BDF8
:102DA400B1F90E1000F0C4B8F8B50F460026084D6E
:102DB400114604461A4638462E60FDF7BBFB431CF9
:102DC40000D0F8BD2B68002BFBD02360F8BD00BFFA
:102DD400600A002038B5324B054618680C4610B11D
:102DE400836B002B3CD0B4F90C3018079AB20CD585
:102DF4002169A9B112F0010022D000256069A56003
:102E04004042A06111B3002038BDD1063FD552071E
:102E140029D4216943F00803A3819AB20029E9D196
:102E240002F42070B0F5007FE4D02846214600F07B
:102E340057FBB4F90C3021699AB212F00100DCD1CD
:102E4400950758BF6069A0600029DCD1120658BFFD
:102E54000846D9D543F040034FF0FF30A38138BD75
:102E6400FFF704F8BFE7216B51B104F1400291422E
:102E740004D0284600F0EAF9B4F90C3000222263A9
:102E84000022216923F02403C4E90012C2E70922C5
:102E940043F040032A604FF0FF30A38138BD00BFE8
:102EA4000C0000202DE9F047DFF880A00646DAF890
:102EB400000098460F469146FFF7C6F91A4B1B6867
:102EC400D3F8484124B365681F2D26DC5EB96B1C1A
:102ED4000235DAF80000636044F82570FFF7B6F9AC
:102EE4000020BDE8F087012304EB8501C1F8889038
:102EF400D4F88821AB401A43022EC4F88821C1F8C3
:102F04000881E4D1D4F88C211343C4F88C31DEE772
:102F140003F5A674C3F84841D5E7DAF80000FFF7D3
:102F240095F94FF0FF30DCE75836000838040020EC
:102F3400002238B5064D044608462A60FDF726FBF4
:102F4400431C00D038BD2B68002BFBD0236038BD58
:102F5400600A002070B500294BD00C46054610B11C
:102F6400836B002B48D0636ED80734D5B4F90C308A
:102F7400002B3ED02146284600F052F8E36A06466C
:102F840033B12846E16998470028B8BF4FF0FF36AF
:102F9400A3891A063BD4216B41B104F14003994241
:102FA40002D0284600F052F900232363616C21B15A
:102FB400284600F04BF900236364FEF785FF0022E6
:102FC400636EA281DB0727D5A06DFFF73BF9FEF7FF
:102FD40081FF304670BDA3899905CBD4A06DFFF75E
:102FE40033F9B4F90C30002BC4D1666E16F0010627
:102FF40008D00026304670BDFEF738FF636ED80750
:10300400B4D4E8E7A06DFFF721F9304670BD284637
:10301400216900F01BF9BEE7A06DFFF717F9D3E7AC
:10302400B1F90C202DE9F0410D461107804647D433
:103034006B6842F40062002BAA815EDDAC6A002C4E
:1030440058D00023D8F80060C8F8003093B212F4C6
:10305400805256D101234046E969A047431C67D0FA
:10306400AB89AC6A5F0705D56A682B6B801A0BB114
:10307400EB6BC01A0246E96900234046A047411C95
:1030840041D1D8F80030002B3DD01D2B01D0162B98
:1030940056D100212A69AB89C5E9002123F40063D4
:1030A400AB81296BC8F8006021B305F14003994254
:1030B40002D0404600F0CAF800202863BDE8F08141
:1030C4002F69BFB193B29A0718BF00232E6808BFB7
:1030D4006B692F60F61BAB600AE033463A466C6AB4
:1030E4004046E969A047041EA6EB0406274417DD01
:1030F400002EF2DC0020BDE8F081EB6B002B9DDCA0
:10310400F8E7286DAEE70021B5F90C302A6923F4FD
:103114000063AB81DB04C5E90021C2D52865C0E7A3
:10312400AB894FF0FF3043F04003AB81BDE8F08141
:10313400D8F80030002B93D01D2B06D0162B04D0CA
:10314400AB8943F04003AB81D5E7C8F80060D1E711
:1031540038B50C46054608B1836BA3B1B4F90C002D
:10316400B8B1636EDB0701D4810515D52846214625
:10317400FFF756FF636E0546DA0702D4A3899B0561
:103184000ED5284638BDFEF771FEB4F90C000028B0
:10319400E7D10546284638BDA06DFFF755F8E5E7A9
:1031A400A06DFFF753F8284638BD00BFF8B50C46AC
:1031B400234F0646FFF7A4FBBB68C4F57E615D6838
:1031C4000F3125F003054B1923F47F6323F00F031C
:1031D400A3F58054B4F5805F07DB00213046FFF788
:1031E4008BFDBB682B44984204D03046FFF78EFB1E
:1031F4000020F8BD30466142FFF77EFD01300DD05E
:10320400104AB96813682D1B45F0010530461B1B95
:103214004D601360FFF77AFB0120F8BD00213046B2
:10322400FFF76AFDBA68831A0F2BDEDD064943F007
:1032340001030C680349001B53600860D5E700BF15
:103244003C040020080A00204408002000295FD024
:10325400F8B50C460646FFF753FB54F8043CDFF878
:10326400F4C1A4F1080023F001014218DCF808704D
:103274005568974225F0030500F08980DF07556003
:1032840034D454F8087C0CF10804C01B8368394416
:10329400A3426AD057197F68D0F80CE0C3F80CE059
:1032A400CEF80830FB0740F1978041F001034360FA
:1032B4001160B1F5007F34D20122DCF80440CB0860
:1032C4004909134402FA01F121430CEBC3025CF8EF
:1032D4003340083AC0E90242CCF804104CF83300F9
:1032E400E0603046BDE8F840FFF710BB53195B6857
:1032F400DF070ED429440CF108049368A34273D069
:10330400D46841F00102DC60A36042604150D0E720
:10331400704741F00103B1F5007F44F8043C1160AB
:10332400CAD3B1F5206F4FEA51234AD28B0903F176
:103334003905ED0003F138025CF805300CEB0504A7
:10334400083C9C4259D05A6822F003028A4202D9AE
:103354009B689C42F7D1DC68C0E90234A060D86065
:103364003046BDE8F840FFF7D1BA53195B68DB0774
:1033740066D4D2E90223294441F00104D3609A605F
:10338400446041503046BDE8F840FFF7BFBADB0760
:10339400294407D454F8084C001BD0E902232144E3
:1033A400D3609A60294B41F001021B6842608B4252
:1033B400CCF8080095D8264B30461968FFF7F6FE7E
:1033C4008FE7142B0AD9542B21D80B0B03F16F056B
:1033D400ED0003F16E02AFE729448EE703F15C05CB
:1033E400ED0003F15B02A7E741F00103CCE904001F
:1033F400C0E902444360415073E70125DCF804103E
:10340400921005FA02F20A43CCF80420A4E7B3F5BB
:10341400AA7F06D8CB0B03F17805ED0003F1770200
:103424008AE740F25452934206D88B0C03F17D058F
:10343400ED0003F17C027FE74FF47E757E227BE78B
:1034440041F00103436011604BE700BF48080020CE
:10345400380A00203C040020F8B50F460026084D29
:10346400114604461A4638462E60FDF799F8431C67
:1034740000D0F8BD2B68002BFBD02360F8BD00BF43
:10348400600A002070B50C46B1F90E1015460029EB
:103494001E4696B014DB6A4600F082F800280FDB63
:1034A400019A4FF4806302F47042A2F50052B2FA1A
:1034B40082F24FF40060520932602B6016B070BD86
:1034C4000023A189336011F0800004D04022184603
:1034D4002A6016B070BD4FF480632B6016B070BDC7
:1034E40070B58B890C469D0782B007D5012201F186
:1034F40043034A610B600B6102B070BD01AB6A46C5
:103504000646FFF7BFFF009905463046FEF7A0FECA
:10351400B4F90C3070B11649009AF163019943F083
:103524008003C4E90402A381206089B92B43A381E9
:1035340002B070BD9A05DFD4012123F0030304F126
:10354400430243F00203A381616122602261D3E755
:103554003046B4F90E1000F039F810B9B4F90C3053
:10356400E4E7A28922F0030242F0010213B2DDE78C
:10357400651E0008F8B50F460026084D114604469E
:103584001A4638462E60FCF7C5FF431C00D0F8BD30
:103594002B68002BFBD02360F8BD00BF600A00201D
:1035A40070B50C4603460026074D204611461C46BE
:1035B4002E60FCF7EEFF431C00D070BD2B68002B7F
:1035C400FBD0236070BD00BF600A0020002238B524
:1035D400064D044608462A60FCF7E0FF431C00D071
:1035E40038BD2B68002BFBD0236038BD600A002057
:1035F400F8B500BFF8BC08BC9E467047F8B500BFDC
:08360400F8BC08BC9E467047AB
:10360C000000000000000000010203040607080986
:10361C000000000001020304020304050607080968
:10362C000A0B0C0D0E0F1010000000000D0AE682A4
:10363C00A8E58F91E98081E79A84E6B688E681AFA8
:10364C00E4B8BA3A0D0000000D0A0D00100000207D
:04365C000A00000060
:08366000F51D00080902000835
:04366800E501000870
:10366C000024F400010000001000000010000020F5
:10367C0000000000FC02002064030020CC030020AA
:10368C00000000000000000000000000000000002E
:10369C00000000000000000000000000000000001E
:1036AC00000000000000000000000000000000000E
:1036BC0000000000000000000000000000000000FE
:1036CC0000000000000000000000000000000000EE
:1036DC0000000000000000000000000000000000DE
:1036EC0000000000000000000000000000000000CE
:1036FC0000000000000000000000000000000000BE
:10370C0000000000000000000000000000000000AD
:10371C00000000000000000001000000000000009C
:10372C000E33CDAB34126DE6ECDE05000B00000061
:10373C00000000000000000000000000000000007D
:10374C00000000000000000000000000000000006D
:10375C00000000000000000000000000000000005D
:10376C00000000000000000000000000000000004D
:103A9C0000000000000000003C0A002000000000B4
:103AAC00000000003C0400203C04002044040020E2
:103ABC00440400204C0400204C040020540400203A
:103ACC00540400205C0400205C04002064040020EA
:103ADC00640400206C0400206C040020740400209A
:103AEC00740400207C0400207C040020840400204A
:103AFC00840400208C0400208C04002094040020FA
:103B0C00940400209C0400209C040020A4040020A9
:103B1C00A4040020AC040020AC040020B404002059
:103B2C00B4040020BC040020BC040020C404002009
:103B3C00C4040020CC040020CC040020D4040020B9
:103B4C00D4040020DC040020DC040020E404002069
:103B5C00E4040020EC040020EC040020F404002019
:103B6C00F4040020FC040020FC04002004050020C8
:103B7C00040500200C0500200C0500201405002075
:103B8C00140500201C0500201C0500202405002025
:103B9C00240500202C0500202C05002034050020D5
:103BAC00340500203C0500203C0500204405002085
:103BBC00440500204C0500204C0500205405002035
:103BCC00540500205C0500205C05002064050020E5
:103BDC00640500206C0500206C0500207405002095
:103BEC00740500207C0500207C0500208405002045
:103BFC00840500208C0500208C05002094050020F5
:103C0C00940500209C0500209C050020A4050020A4
:103C1C00A4050020AC050020AC050020B405002054
:103C2C00B4050020BC050020BC050020C405002004
:103C3C00C4050020CC050020CC050020D4050020B4
:103C4C00D4050020DC050020DC050020E405002064
:103C5C00E4050020EC050020EC050020F405002014
:103C6C00F4050020FC050020FC05002004060020C3
:103C7C00040600200C0600200C0600201406002070
:103C8C00140600201C0600201C0600202406002020
:103C9C00240600202C0600202C06002034060020D0
:103CAC00340600203C0600203C0600204406002080
:103CBC00440600204C0600204C0600205406002030
:103CCC00540600205C0600205C06002064060020E0
:103CDC00640600206C0600206C0600207406002090
:103CEC00740600207C0600207C0600208406002040
:103CFC00840600208C0600208C06002094060020F0
:103D0C00940600209C0600209C060020A40600209F
:103D1C00A4060020AC060020AC060020B40600204F
:103D2C00B4060020BC060020BC060020C4060020FF
:103D3C00C4060020CC060020CC060020D4060020AF
:103D4C00D4060020DC060020DC060020E40600205F
:103D5C00E4060020EC060020EC060020F40600200F
:103D6C00F4060020FC060020FC06002004070020BE
:103D7C00040700200C0700200C070020140700206B
:103D8C00140700201C0700201C070020240700201B
:103D9C00240700202C0700202C07002034070020CB
:103DAC00340700203C0700203C070020440700207B
:103DBC00440700204C0700204C070020540700202B
:103DCC00540700205C0700205C07002064070020DB
:103DDC00640700206C0700206C070020740700208B
:103DEC00740700207C0700207C070020840700203B
:103DFC00840700208C0700208C07002094070020EB
:103E0C00940700209C0700209C070020A40700209A
:103E1C00A4070020AC070020AC070020B40700204A
:103E2C00B4070020BC070020BC070020C4070020FA
:103E3C00C4070020CC070020CC070020D4070020AA
:103E4C00D4070020DC070020DC070020E40700205A
:103E5C00E4070020EC070020EC070020F40700200A
:103E6C00F4070020FC070020FC07002004080020B9
:103E7C00040800200C0800200C0800201408002066
:103E8C00140800201C0800201C0800202408002016
:103E9C00240800202C0800202C08002034080020C6
:0C3EAC0034080020FFFFFFFF00000200B0
:0400000508001BAD27
:00000001FF
