:020000040800F2
:1000000000000120D112000851030008530300082A
:1000100055030008570300085903000800000000BA
:100020000000000000000000000000005B0300086A
:100030005D030008000000005F0300086103000882
:1000400069030008191300081913000819130008A0
:1000500019130008191300081913000819130008D0
:1000600019130008191300081913000819130008C0
:1000700019130008191300086B0300086D0300082A
:1000800019130008191300081913000819130008A0
:100090001913000819130008191300081913000890
:1000A0001913000819130008191300081913000880
:1000B0006F0300081913000819130008191300082A
:1000C0001913000819130008191300081913000860
:1000D0001913000871030008191300081913000808
:1000E00073030008191300081913000819130008F6
:1000F0001913000819130008191300081913000830
:10010000191300081913000819130008191300081F
:10011000191300081913000819130008191300080F
:1001200019130008191300081913000819130008FF
:1001300000000000000000000000000000000000BF
:1001400000000000000000000000000000000000AF
:10015000000000000000000000000000000000009F
:10016000000000000000000000000000000000008F
:10017000000000000000000000000000000000007F
:10018000000000000000000000000000000000006F
:10019000000000000000000000000000000000005F
:1001A000000000000000000000000000000000004F
:1001B000000000000000000000000000000000003F
:1001C000000000000000000000000000000000002F
:1001D000000000000000000000000000000000001F
:0401E0005FF8E0F1F3
:1001E40010B5054C237833B9044B13B10448AFF36D
:1001F40000800123237010BD3C0400200000000097
:100204004414000808B5034B1BB103490348AFF37A
:10021400008008BD000000004004002044140008D1
:1002240030B597B000240F9411940794089409945E
:100234000A940B94019402940394049405940694F0
:1002440009230C934FF480330D930E9401221092E2
:1002540012920225139514934FF4E01315930CA8EE
:1002640000F0DEFB0F230793089509944FF4806395
:100274000A930B94294607A800F010FE01954FF449
:100284000043039301A800F0D5FE17B030BD08B5B4
:1002940000F096F8FFF7C4FF00F0DEFF4FF4FA70A9
:1002A40000F0B2F8FAE7000082B00E4B9A6942F00F
:1002B40001029A619A6902F001020092009ADA69D5
:1002C40042F08052DA61DB6903F080530193019BB1
:1002D400054A536823F0E06343F00073536002B0AF
:1002E400704700BF001002400000014000B587B015
:1002F400002302930393049305930268114B9A42DB
:1003040002D007B05DF804FB03F56C439A6942F42C
:1003140000729A619A6902F400720092009A9A69D2
:1003240042F010029A619B6903F010030193019B50
:10033400012302930323039302A9034800F03EFA26
:10034400DFE700BF00240140001001407047FEE7D2
:10035400FEE7FEE7FEE770477047704708B500F018
:1003640041F808BD70477047704770477047704741
:100374007047000010B504460E4B18784FF47A739A
:10038400B3FBF0F30C4A1068B0FBF3F000F000FA92
:1003940068B90F2C01D901200AE0002221464FF050
:1003A400FF3000F0C1F9054B1C60002000E0012083
:1003B40010BD00BF04000020000000200800002041
:1003C40008B5074A136843F010031360032000F0D4
:1003D40099F90020FFF7CEFFFFF766FF002008BD64
:1003E40000200240034A1168034B1B780B4413603E
:1003F400704700BF5804002004000020014B186817
:10040400704700BF5804002038B50446FFF7F6FFD4
:100414000546B4F1FF3F02D0044B1B781C44FFF7A0
:10042400EDFF401BA042FAD338BD00BF04000020FA
:1004340030B583B00023019303689A6812F0010F6A
:100444002DD104469A6842F001029A60154B1B684C
:10045400154AA2FB03239B0C0193019B1BB1019B37
:10046400013B0193F9E7FFF7C9FF054623689B6841
:1004740013F0010F11D1FFF7C1FF431B022BF5D974
:10048400A36A43F01003A362E36A43F00103E36247
:10049400002384F82430012002E0002000E0002042
:1004A40003B030BD0000002083DE1B4338B5036871
:1004B4009A6812F0010F01D1002038BD04469A68F1
:1004C40022F001029A60FFF799FF054623689B68B2
:1004D40013F0010F0ED0FFF791FF431B022BF5D948
:1004E400A36A43F01003A362E36A43F00103E362E7
:1004F4000120E2E70020E0E7002800F08680F8B55C
:100504000446836A002B50D02046FFF7CFFFA36A2E
:1005140013F0100373D1002871D1A26A22F4885217
:1005240022F0020242F00202A2626268266838499E
:100534008E4240D0E1690A43217B42EA4102A56828
:10054400B5F5807F02D0012D3CD01D46277D012FBB
:100554003BD0716821F46941294371602568AE6814
:100564002C4931401143A960A168B1F5807F01D0C5
:10057400012902D12369013B1B052568E96A21F49D
:1005840070010B43EB6223689968234B0B409A423A
:100594002CD0A36A23F0120343F01003A362E36A8E
:1005A40043F00103E36201202EE0C36280F82430AB
:1005B400FFF79CFEA8E7E169B1F5402FBBD14FF4EA
:1005C4000021B8E74FF48075C0E731B9A16901395A
:1005D40045EA413141F40065BBE7A16A41F02001DD
:1005E400A162E16A41F00101E162B2E70023E36242
:1005F400A36A23F0030343F00103A36204E0A36AA4
:1006040043F01003A3620120F8BD0120704700BF2E
:10061400003C0140FDF7E1FFFE0E1FFF70B582B004
:100624000023019390F82430012B67D00446012362
:1006340080F82430FFF73AFF054628B1002384F8F8
:100644002430284602B070BDA36A23F4885323F0F3
:10065400020343F00203A362294B1E68022000F048
:1006640073FDB6FBF0F676000196019B1BB1019B6E
:10067400013B0193F9E72046FFF7DAFE226893680D
:1006840043F008039360FFF7B9FE064623689A68AF
:1006940012F0080F0FD0FFF7B1FE801B0A28F5D91E
:1006A400A36A23F0120343F01003A362002384F827
:1006B40024300125C5E79A6842F004029A60FFF7E6
:1006C4009DFE064623689B6813F0040F0FD0FFF7C6
:1006D40095FE801B0A28F5D9A36A23F0120343F080
:1006E4001003A362002384F824300125A9E7A36A38
:1006F40023F0030343F00103A3629FE70225A0E76D
:1007040000000020074AD36823F4E0631B041B0C99
:10071400000200F4E060034343F0BF6343F400339A
:10072400D360704700ED00E030B4174BDB68C3F3CF
:100734000223C3F10704042C28BF04241D1D062D25
:1007440018D9033B4FF0FF3505FA04F421EA0401FC
:10075400994005FA03F322EA0303194300280BDB4B
:100764000901C9B200F1604000F5614080F800134E
:1007740030BC70470023E5E700F00F000901C9B25F
:10078400024B1954F4E700BF00ED00E014ED00E063
:100794000138B0F1807F0AD2064B5860064AF02136
:1007A40082F823100020986007221A607047012005
:1007B400704700BF10E000E000ED00E0F0B482B04C
:1007C40000252C46ABE0854FBB4210D007D9844F9F
:1007D400BB420CD007F58037BB4208D013E0A7F525
:1007E4008017BB4203D007F57027BB4207D18B6843
:1007F400002B60D0012B59D04261082503E0A7F5F6
:100804008017BB42F3D0FF2E57D88446FF2E57D80B
:10081400A200DCF800300F27974023EA070305FA0B
:1008240002F21343CCF800304B6813F0805F75D0AC
:100834006C4B9A6942F001029A619B6903F00103CF
:100844000193019BA208971C674B53F827C004F03F
:1008540003039F000F23BB402CEA030C634B984215
:1008640034D003F58063984200F0948003F58063EC
:10087400984200F0918003F58063984200F08E80E6
:1008840003F58063984200F08B8003F580639842FF
:100894001AD006231BE0CD68B5E7CD680435B2E76E
:1008A400CD680835AFE7CD680C35ACE702610825A3
:1008B400A9E70025A7E70425A5E700F1040CA5E7AF
:1008C400A4F108029200A4E7052300E00023BB4042
:1008D40043EA0C030232444F47F822304B6813F4C6
:1008E400803F5FD0424A1368334313604B6813F46C
:1008F400003F5DD03E4A5368334353604B6813F462
:10090400801F5BD03A4A9368334393604B6813F477
:10091400001F59D0364AD3681E43D66001340B6891
:1009240033FA04F256D00122A24003EA020632EA64
:100934000303F3D14B68122B3FF645AF122B3FF65E
:1009440062AF01A757F823F0F30700089B080008DB
:10095400A5080008B70800080B0800080B080008E1
:100964000B0800080B0800080B0800080B08000817
:100974000B0800080B0800080B0800080B08000807
:100984000B0800080B0800080B0800089F08000863
:10099400AB08000801239AE7022398E7032396E7AC
:1009A400042394E7124A136823EA060313609DE7BD
:1009B4000F4A536823EA060353609FE70C4A93687F
:1009C40023EA06039360A1E7094AD36823EA0606EB
:1009D400D660A3E702B0F0BC704700BF000022104D
:1009E40000003110001002400000014000080140E6
:1009F4000004014082B0084B1B68084AA2FB032391
:100A04005B0A00FB03F3019300BF019B5A1E019292
:100A1400002BF9D102B0704700000020D34D6210C2
:100A2400002800F0F18170B582B00446036813F029
:100A3400010F2CD0AA4B5B6803F00C03042B1DD0D0
:100A4400A74B5B6803F00C03082B12D06368B3F563
:100A5400803F41D0002B55D103F1804303F504338B
:100A64001A6822F480321A601A6822F480221A600A
:100A740037E09B4B5B6813F4803FE7D0984B1B68CF
:100A840013F4003F03D06368002B00F0BF81236898
:100A940013F0020F75D0924B5B6813F00C0F5FD00C
:100AA4008F4B5B6803F00C03082B54D02369002B95
:100AB40000F089808B4B01221A60FFF79FFC0546EA
:100AC400874B1B6813F0020F74D1FFF797FC401B90
:100AD4000228F5D903209EE1814A136843F4803348
:100AE4001360636843B3FFF789FC05467C4B1B68BE
:100AF40013F4003FCBD1FFF781FC401B6428F5D9E8
:100B0400032088E1B3F5A02F09D0754B1A6822F4AD
:100B140080321A601A6822F480221A60E1E703F135
:100B24008043A3F53C331A6842F480221A601A68A1
:100B340042F480321A60D4E7FFF760FC0546684B44
:100B44001B6813F4003FA2D0FFF758FC401B642835
:100B5400F5D903205FE1624B5B6813F4803FA5D1B4
:100B64005F4B1B6813F0020F03D02369012B40F085
:100B74004F815B4A136823F0F803616943EAC103B8
:100B84001360236813F0080F32D0A369002B45D0FB
:100B9400554B01221A60FFF731FC0546504B5B6A46
:100BA40013F0020F21D1FFF729FC401B0228F5D9CD
:100BB400032030E14A4A136823F0F803616943EAE9
:100BC400C1031360DDE7474B00221A60FFF716FCF0
:100BD4000546434B1B6813F0020FD2D0FFF70EFCFF
:100BE400401B0228F5D9032015E10120FFF702FF7D
:100BF400236813F0040F00F09780394BDB6913F07E
:100C0400805F1DD1364BDA6942F08052DA61DB69CC
:100C140003F080530193019B012512E0324B002223
:100C24001A60FFF7EBFB05462D4B5B6A13F0020FCE
:100C3400DED0FFF7E3FB401B0228F5D90320EAE0EE
:100C440000252A4B1B6813F4807F11D0E368012B25
:100C540022D0002B38D103F1804303F504331A6A00
:100C640022F001021A621A6A22F004021A6218E0DF
:100C74001E4A136843F480731360FFF7BFFB0646F4
:100C84001A4B1B6813F4807FE0D1FFF7B7FB801B7E
:100C94006428F5D90320BEE0114A136A43F0010326
:100CA4001362E36873B3FFF7A9FB06460C4B1B6A98
:100CB40013F0020F37D1FFF7A1FB801B41F28833F9
:100CC4009842F3D90320A6E0052B11D0044B1A6AED
:100CD40022F001021A621A6A22F004021A62E0E7A0
:100CE4000010024000004242800442420070004072
:100CF4004D4B1A6A42F004021A621A6A42F0010267
:100D04001A62CEE7FFF77AFB0646474B1B6A13F0DD
:100D1400020F08D0FFF772FB801B41F28833984220
:100D2400F3D9032077E0E5B9E369002B72D03E4A9A
:100D3400526802F00C02082A56D0022B17D03B4B03
:100D440000221A60FFF75AFB0446374B1B6813F066
:100D5400007F47D0FFF752FB001B0228F5D9032080
:100D640059E0314AD36923F08053D361DCE72F4B38
:100D740000221A60FFF742FB05462B4B1B6813F059
:100D8400007F06D0FFF73AFB401B0228F5D9032069
:100D940041E0236AB3F5803F1AD023494B6823F41A
:100DA4007413226A606A024313434B601F4B01228F
:100DB4001A60FFF723FB04461B4B1B6813F0007FEC
:100DC4000ED1FFF71BFB001B0228F5D9032022E0FC
:100DD400154A536823F40033A1680B435360DCE7DE
:100DE400002018E0002016E0012B16D00E4B5B68A3
:100DF40003F48031226A914211D103F47013626AC0
:100E040093420ED1002006E001207047012002E049
:100E1400012000E0002002B070BD0120FBE70120AA
:100E2400F9E70120F7E700BF0010024060004242EA
:100E340086B0164B0FCB0DF1180C0CE90F0040F2E5
:100E44000123ADF80430124B5B6803F00C02082A4E
:100E540002D0104806B07047C3F38342624412F8CC
:100E6400102C13F4803F0CD0094B5B68C3F3404350
:100E7400634413F8143C074800FB02F0B0FBF3F0A2
:100E8400E8E7054800FB02F0E4E700BF741400083B
:100E94000010024000127A0000093D00002800F012
:100EA400A08070B50D460446524B1B6803F007033F
:100EB4008B420BD24F4A136823F007030B43136092
:100EC400136803F007038B4240F08D80236813F00E
:100ED400020F17D013F0040F04D0474A536843F4A9
:100EE400E0635360236813F0080F04D0424A536848
:100EF40043F460535360404A536823F0F003A168FD
:100F04000B435360236813F0010F31D06368012B46
:100F140020D0022B25D0384A126812F0020F64D078
:100F240035494A6822F0030213434B60FFF766FA1F
:100F34000646314B5B6803F00C036268B3EB820F27
:100F440016D0FFF75BFA801B41F288339842F0D940
:100F5400032045E0284A126812F4003FE0D1012042
:100F64003EE0254A126812F0007FD9D1012037E013
:100F7400204B1B6803F00703AB420AD91D4A1368D0
:100F840023F007032B431360136803F00703AB42FA
:100F94002DD1236813F0040F06D0174A536823F4A5
:100FA400E063E1680B435360236813F0080F07D034
:100FB400114A536823F46053216943EAC10353601F
:100FC400FFF736FF0C4B5B68C3F303130B4AD35C88
:100FD400D8400B4B18600B4B1868FFF7CBF9002077
:100FE40070BD012070470120FAE70120F8E70120D5
:100FF400F6E700BF00200240001002405C14000825
:101004000000002008000020014B1868704700BF52
:101014000000002008B5FFF7F7FF044B5B68C3F33B
:10102400C223034AD35CD84008BD00BF001002406D
:101034006C14000870B582B00446036813F0010F05
:1010440034D03E4BDB6913F0805F47D13B4BDA6908
:1010540042F08052DA61DB6903F080530193019B13
:101064000125374B1B6813F4807F39D0334B1B6A3F
:1010740013F4407311D0626802F440729A420CD0A7
:101084002E4A136A23F440702E4901260E6000266E
:101094000E60106213F0010F36D1284A136A23F44C
:1010A400407361680B431362002D3ED1236813F033
:1010B400020F06D0214A536823F44043A1680B432E
:1010C4005360236813F0100F34D01C4A536823F480
:1010D400800361690B43536000202CE00025C0E7C6
:1010E400174A136843F480731360FFF787F90646C1
:1010F400134B1B6813F4807FB8D1FFF77FF9801B73
:101104006428F5D9032016E0FFF778F906460B4B5F
:101114001B6A13F0020FC0D1FFF770F9801B41F274
:1011240088339842F3D9032005E0D36923F0805330
:10113400D361BBE7002002B070BD00BF00100240C5
:10114400007000404004424210B586B004463D4B56
:101154000FCB0DF1180C0CE90F0040F20123ADF890
:101164000430601E0F2866D8DFE800F0385A653274
:10117400656565356565656565656508324B5A68FD
:10118400186810F0807057D0C2F3834306A90B444B
:1011940013F8100C12F4803F16D02B4B5B68C3F38A
:1011A40040430B4413F8142C284BB3FBF2F300FB1D
:1011B40003F0254B5B6813F4800F3DD14000244BB2
:1011C400A3FB0030400837E0224B03FB00F0F0E7BC
:1011D400FFF72EFE30E0FFF72BFE2DE01A4B1B6AC3
:1011E40040F202321A40B2F5817F27D003F44073F3
:1011F400B3F5007F04D0B3F5407F09D000201BE095
:10120400114A526A12F0020FF5D049F6404013E039
:101214000D4B186810F400300ED04FF224400BE050
:10122400FFF7F8FE084B5B68C3F3813301335B00BF
:10123400B0FBF3F000E0002006B010BD4FF4004016
:10124400FAE700BF741400080010024000127A008C
:10125400ABAAAAAA00093D0070B586B0174B9A69DB
:1012640042F400729A619A6902F400720092009A40
:101274009A6942F010029A619B6903F0100301938A
:10128400019B01260296032303930025049502A9DA
:101294000B48FFF793FA0B4C0B4B2360A5602573A7
:1012A40025754FF46023E361656026612046FFF7EE
:1012B40023F92046FFF7B2F906B070BD00100240D2
:1012C400001001405C04002000240140002103E0E0
:1012D4000B4B5B58435004310A480B4B42189A425B
:1012E400F6D30A4A02E0002342F8043B084B9A4230
:1012F400F9D3FFF73DF800F00FF8FEF7C8FF704789
:1013040098140008000000203C0400203C04002045
:10131400B0040020FEE7000070B50D4E0D4D761BA5
:10132400B61006D0002455F8043B01349847A64271
:10133400F9D1094E094D00F083F8761BB61006D09A
:10134400002455F8043B01349847A642F9D170BDF6
:101354008C1400088C140008941400088C140008E1
:10136400024B13B1024800F005B8704700000000BA
:1013740085130008002301461A46184600F01AB8DF
:1013840038B5084B084D5B1B9C1007D0043B1D442B
:10139400013C55F804399847002CF9D1BDE8384090
:1013A40000F054B89814000894140008704700BF63
:1013B400704700BF2DE9F047DFF880A00646DAF851
:1013C400000098460F469146FFF7F0FF1A4B1B6842
:1013D400D3F8484124B365681F2D26DC5EB96B1C25
:1013E4000235DAF80000636044F82570FFF7E0FF87
:1013F4000020BDE8F087012304EB8501C1F8889043
:10140400D4F88821AB401A43022EC4F88821C1F8CD
:101414000881E4D1D4F88C211343C4F88C31DEE77D
:1014240003F5A674C3F84841D5E7DAF80000FFF7DE
:10143400BFFF4FF0FF30DCE78814000838040020B9
:10144400F8B500BFF8BC08BC9E467047F8B500BFAD
:08145400F8BC08BC9E4670477D
:10145C000000000000000000010203040607080958
:10146C00000000000102030402030405060708093A
:10147C000A0B0C0D0E0F10100000000010000020C5
:08148C006513000809020008C5
:04149400E501000866
:101498000024F4000100000010000000000000001B
:1014A80000000000FC02002064030020CC030020A0
:1014B8000000000000000000000000000000000024
:1014C8000000000000000000000000000000000014
:1014D8000000000000000000000000000000000004
:1014E80000000000000000000000000000000000F4
:1014F80000000000000000000000000000000000E4
:1015080000000000000000000000000000000000D3
:1015180000000000000000000000000000000000C3
:1015280000000000000000000000000000000000B3
:1015380000000000000000000000000000000000A3
:101548000000000000000000010000000000000092
:101558000E33CDAB34126DE6ECDE05000B00000057
:101568000000000000000000000000000000000073
:101578000000000000000000000000000000000063
:101588000000000000000000000000000000000053
:101598000000000000000000000000000000000043
:0C18C80000000000000000008C04002064
:04000005080012D10C
:00000001FF
