:020000040800F2
:1000000000000120793F0008491600084B1600083F
:100010004D1600084F160008511600080000000099
:10002000000000000000000000000000531600085F
:100030005516000800000000571600085916000861
:10004000C13F0008C13F0008C13F0008C13F000890
:10005000C13F0008C13F0008C13F0008C13F000880
:10006000C13F0008C13F0008C13F0008C13F000870
:10007000C13F0008C13F0008611600087116000862
:10008000C13F0008C13F0008C13F0008C13F000850
:10009000C13F0008C13F0008C13F0008C13F000840
:1000A000C13F0008C13F0008C13F0008C13F000830
:1000B00081160008C13F0008C13F0008C13F000889
:1000C000C13F0008C13F0008C13F0008C13F000810
:1000D000C13F000885160008C13F0008C13F000865
:1000E00095160008C13F0008C13F0008C13F000845
:1000F000C13F0008C13F0008C13F0008C13F0008E0
:10010000C13F0008C13F0008C13F0008C13F0008CF
:10011000C13F0008C13F0008C13F0008C13F0008BF
:10012000C13F0008C13F0008C13F0008C13F0008AF
:1001300000000000000000000000000000000000BF
:1001400000000000000000000000000000000000AF
:10015000000000000000000000000000000000009F
:10016000000000000000000000000000000000008F
:10017000000000000000000000000000000000007F
:10018000000000000000000000000000000000006F
:10019000000000000000000000000000000000005F
:1001A000000000000000000000000000000000004F
:1001B000000000000000000000000000000000003F
:1001C000000000000000000000000000000000002F
:1001D000000000000000000000000000000000001F
:0401E0005FF8E0F1F3
:1001E80010B5054C237833B9044B13B10448AFF369
:1001F80000800123237010BDC40900200000000006
:10020800B8AB000808B5034B1BB103490348AFF36B
:10021800008008BD00000000C8090020B8AB000835
:100228004FF0FF0C1CEAD0521EBF1CEAD15392EAD1
:100238000C0F93EA0C0F6FD01A4480EA010C4002AD
:1002480018BF5FEA41211ED04FF0006343EA501007
:1002580043EA5111A0FB01310CF00040B1F5000F49
:100268003EBF490041EAD3715B0040EA010062F1F8
:100278007F02FD2A1DD8B3F1004F40EBC25008BFE2
:1002880020F00100704790F0000F0CF0004C08BF00
:1002980049024CEA502040EA51207F3AC2BFD2F1CD
:1002A800FF0340EAC250704740F400004FF00003DB
:1002B800013A5DDC12F1190FDCBF00F00040704715
:1002C800C2F10002410021FA02F1C2F1200200FA53
:1002D80002FC5FEA310040F1000053EA4C0308BF1A
:1002E80020EADC70704792F0000F00F0004C02BF6B
:1002F800400010F4000F013AF9D040EA0C0093F0E6
:10030800000F01F0004C02BF490011F4000F013B3F
:10031800F9D041EA0C018FE70CEAD15392EA0C0FAD
:1003280018BF93EA0C0F0AD030F0004C18BF31F018
:10033800004CD8D180EA010000F00040704790F0EE
:10034800000F17BF90F0004F084691F0000F91F092
:10035800004F14D092EA0C0F01D142020FD193EA58
:100368000C0F03D14B0218BF084608D180EA0100E0
:1003780000F0004040F0FE4040F40000704740F0BC
:10038800FE4040F44000704781F0004102E000BFA9
:1003980083F0004330B54FEA41044FEA430594EA3D
:1003A800050F08BF90EA020F1FBF54EA000C55EA78
:1003B800020C7FEA645C7FEA655C00F0E2804FEA49
:1003C8005454D4EB5555B8BF6D420CDD2C4480EA2B
:1003D800020281EA030382EA000083EA010180EA5B
:1003E800020281EA0303362D88BF30BD11F0004FA9
:1003F8004FEA01314FF4801C4CEA113102D04042DF
:1004080061EB410113F0004F4FEA03334CEA133319
:1004180002D0524263EB430394EA050F00F0A78031
:10042800A4F10104D5F1200E0DDB02FA0EFC22FA2C
:1004380005F2801841F1000103FA0EF2801843FA20
:1004480005F359410EE0A5F120050EF1200E012A11
:1004580003FA0EFC28BF4CF0020C43FA05F3C0184F
:1004680051EBE37101F0004507D54FF0000EDCF1C8
:10047800000C7EEB00006EEB0101B1F5801F1BD371
:10048800B1F5001F0CD349085FEA30004FEA3C0C75
:1004980004F101044FEA445212F5800F80F09A806B
:1004A800BCF1004F08BF5FEA500C50F1000041EB6F
:1004B800045141EA050130BD5FEA4C0C404141EB73
:1004C8000101013C28BFB1F5801FE9D291F0000F6E
:1004D80004BF01460020B1FA81F308BF2033A3F11D
:1004E8000B03B3F120020CDA0C3208DD02F1140C14
:1004F800C2F10C0201FA0CF021FA02F10CE002F14F
:100508001402D8BFC2F1200C01FA02F120FA0CFC47
:10051800DCBF41EA0C019040E41AA2BF01EB045190
:10052800294330BD6FEA04041F3C1CDA0C340EDC8E
:1005380004F11404C4F1200220FA04F001FA02F3D1
:1005480040EA030021FA04F345EA030130BDC4F18F
:100558000C04C4F1200220FA02F001FA04F340EA84
:100568000300294630BD21FA04F0294630BD94F035
:10057800000F83F4801306BF81F480110134013D1C
:100588004EE77FEA645C18BF7FEA655C29D094EA8D
:10059800050F08BF90EA020F05D054EA000C04BF0B
:1005A8001946104630BD91EA030F1EBF00210020F6
:1005B80030BD5FEA545C05D14000494128BF41F095
:1005C800004130BD14F580043CBF01F5801130BDF9
:1005D80001F0004545F0FE4141F470014FF0000084
:1005E80030BD7FEA645C1ABF194610467FEA655C35
:1005F8001CBF0B46024650EA013406BF52EA0335D7
:1006080091EA030F41F4002130BD00BF90F0000FC4
:1006180004BF0021704730B54FF4806404F1320400
:100628004FF000054FF0000150E700BF90F0000FB9
:1006380004BF0021704730B54FF4806404F13204E0
:1006480010F0004548BF40424FF000013EE700BFB0
:1006580042004FEAE2014FEA31014FEA02701FBF40
:1006680012F07F4393F07F4F81F06051704732F072
:100678007F4208BF704793F07F4F04BF41F40021C9
:10068800704730B54FF4607401F0004521F0004127
:100698001CE700BF50EA010208BF704730B54FF0B1
:1006A80000050AE050EA010208BF704730B511F0B2
:1006B800004502D5404261EB41014FF4806404F1EA
:1006C80032045FEA915C3FF4D8AE4FF003025FEA70
:1006D800DC0C18BF03325FEADC0C18BF033202EBF4
:1006E800DC02C2F1200300FA03FC20FA02F001FA4E
:1006F80003FE40EA0E0021FA02F11444BDE600BFF1
:1007080070B54FF0FF0C4CF4E06C1CEA11541DBF9F
:100718001CEA135594EA0C0F95EA0C0F00F0DEF86A
:100728002C4481EA030621EA4C5123EA4C5350EA4F
:10073800013518BF52EA033541F4801143F48013A0
:1007480038D0A0FB02CE4FF00005E1FB02E506F031
:100758000042E0FB03E54FF00006E1FB03569CF086
:10076800000F18BF4EF0010EA4F1FF04B6F5007F8C
:1007780064F5407404D25FEA4E0E6D4146EB0606FE
:1007880042EAC62141EA55514FEAC52040EA5E5087
:100798004FEACE2EB4F1FD0C88BFBCF5E06F1ED831
:1007A800BEF1004F08BF5FEA500E50F1000041EB68
:1007B800045170BD06F0004646EA010140EA020015
:1007C80081EA0301B4EB5C04C2BFD4EB0C0541EA37
:1007D800045170BD41F480114FF0000E013C00F34C
:1007E800AB8014F1360FDEBF002001F0004170BD70
:1007F800C4F10004203C35DA0C341BDC04F1140489
:10080800C4F1200500FA05F320FA04F001FA05F214
:1008180040EA020001F0004221F0004110EBD370E1
:1008280021FA04F642EB06015EEA430E08BF20EA0D
:10083800D37070BDC4F10C04C4F1200500FA04F3B0
:1008480020FA05F001FA04F240EA020001F0004142
:1008580010EBD37041F100015EEA430E08BF20EAB5
:10086800D37070BDC4F1200500FA05F24EEA020EFD
:1008780020FA04F301FA05F243EA020321FA04F02C
:1008880001F0004121FA04F220EA020000EBD370E3
:100898005EEA430E08BF20EAD37070BD94F0000FE3
:1008A8000FD101F00046400041EB010111F4801F17
:1008B80008BF013CF7D041EA060195F0000F18BFC8
:1008C800704703F00046520043EB030313F4801F04
:1008D80008BF013DF7D043EA0603704794EA0C0FBE
:1008E8000CEA135518BF95EA0C0F0CD050EA4106D4
:1008F80018BF52EA4306D1D181EA030101F0004151
:100908004FF0000070BD50EA410606BF1046194678
:1009180052EA430619D094EA0C0F02D150EA013684
:1009280013D195EA0C0F05D152EA03361CBF1046C5
:1009380019460AD181EA030101F0004141F0FE4164
:1009480041F470014FF0000070BD41F0FE4141F4E8
:10095800780170BD70B54FF0FF0C4CF4E06C1CEAE8
:1009680011541DBF1CEA135594EA0C0F95EA0C0F9D
:1009780000F0A7F8A4EB050481EA030E52EA033558
:100988004FEA013100F088804FEA03334FF0805579
:1009980045EA131343EA12634FEA022245EA1115A6
:1009A80045EA10654FEA00260EF000419D4208BF57
:1009B800964244F1FD0404F5407402D25B084FEA04
:1009C8003202B61A65EB03055B084FEA32024FF4B0
:1009D80080104FF4002CB6EB020E75EB030E22BF0D
:1009E800B61A754640EA0C005B084FEA3202B6EBCD
:1009F800020E75EB030E22BFB61A754640EA5C007C
:100A08005B084FEA3202B6EB020E75EB030E22BF0B
:100A1800B61A754640EA9C005B084FEA3202B6EB0C
:100A2800020E75EB030E22BFB61A754640EADC00CB
:100A380055EA060E18D04FEA051545EA16754FEA2D
:100A480006164FEAC30343EA52734FEAC2025FEA4B
:100A58001C1CC0D111F4801F0BD141EA00014FF0DA
:100A680000004FF0004CB6E711F4801F04BF0143AB
:100A78000020B4F1FD0C88BFBCF5E06F3FF6AFAEC7
:100A8800B5EB030C04BFB6EB020C5FEA500C50F157
:100A9800000041EB045170BD0EF0004E4EEA1131DA
:100AA80014EB5C04C2BFD4EB0C0541EA045170BDE1
:100AB80041F480114FF0000E013C90E645EA060E25
:100AC8008DE60CEA135594EA0C0F08BF95EA0C0F53
:100AD8003FF43BAF94EA0C0F0AD150EA01347FF49B
:100AE80034AF95EA0C0F7FF425AF104619462CE772
:100AF80095EA0C0F06D152EA03353FF4FDAE1046D5
:100B0800194622E750EA410618BF52EA43067FF425
:100B1800C5AE50EA41047FF40DAF52EA43057FF4B5
:100B2800EBAE12E74FEA4102B2F1E04324BFB3F55E
:100B3800001CDCF1FE5C0DD901F0004C4FEAC0024C
:100B48004CEA5070B2F1004F40EB830008BF20F030
:100B58000100704711F0804F21D113F13872BCBFEA
:100B680001F00040704741F480114FEA5252C2F13F
:100B78001802C2F1200C10FA0CF320FA02F018BF88
:100B880040F001004FEAC1234FEAD32303FA0CFCDB
:100B980040EA0C0023FA02F34FEA4303CCE77FEA6A
:100BA800625307D150EA01331EBF4FF0FE4040F4B4
:100BB8004000704701F0004040F0FE4040F4000063
:100BC800704700BF80F0004002E000BF81F00041A4
:100BD80042001FBF5FEA410392EA030F7FEA226CDB
:100BE8007FEA236C6AD04FEA1262D2EB1363C1BF6B
:100BF800D218414048404140B8BF5B42192B88BFDA
:100C0800704710F0004F40F4000020F07F4018BFFC
:100C1800404211F0004F41F4000121F07F4118BF1C
:100C2800494292EA030F3FD0A2F1010241FA03FCC4
:100C380010EB0C00C3F1200301FA03F100F00043AC
:100C480002D5494260EB4000B0F5000F13D3B0F174
:100C5800807F06D340084FEA310102F10102FE2AE3
:100C680051D2B1F1004F40EBC25008BF20F0010053
:100C780040EA03007047490040EB0000013A28BFF2
:100C8800B0F5000FEDD2B0FA80FCACF1080CB2EB75
:100C98000C0200FA0CF0AABF00EBC25052421843F3
:100CA800BCBFD0401843704792F0000F81F4000198
:100CB80006BF80F400000132013BB5E74FEA41036B
:100CC8007FEA226C18BF7FEA236C21D092EA030FD7
:100CD80004D092F0000F08BF0846704790EA010F51
:100CE8001CBF0020704712F07F4F04D1400028BF7E
:100CF80040F00040704712F100723CBF00F5000060
:100D0800704700F0004343F0FE4040F40000704795
:100D18007FEA226216BF08467FEA23630146420241
:100D280006BF5FEA412390EA010F40F48000704754
:100D38004FF0000304E000BF10F0004348BF4042FA
:100D48005FEA000C08BF704743F0964301464FF036
:100D580000001CE050EA010208BF70474FF0000392
:100D68000AE000BF50EA010208BF704711F00043D3
:100D780002D5404261EB41015FEA010C02BF8446A3
:100D88000146002043F0B64308BFA3F18053A3F502
:100D98000003BCFA8CF2083AA3EBC25310DB01FA49
:100DA80002FC634400FA02FCC2F12002BCF1004FCD
:100DB80020FA02F243EB020008BF20F0010070475E
:100DC80002F1200201FA02FCC2F1200250EA4C00B2
:100DD80021FA02F243EB020008BF20EADC707047F8
:100DE8004FF0FF3C06E000BF4FF0010C02E000BFEF
:100DF8004FF0010C4DF804CD4FEA40024FEA410391
:100E08007FEA226C18BF7FEA236C11D001B052EA46
:100E1800530C18BF90EA010F58BFB2EB030088BF0C
:100E2800C81738BF6FEAE17018BF40F0010070477B
:100E38007FEA226C02D15FEA402C05D17FEA236C5D
:100E4800E4D15FEA412CE1D05DF8040B704700BFA4
:100E5800844608466146FFE70FB5FFF7C9FF00283B
:100E680048BF10F1000F0FBD4DF808EDFFF7F4FF74
:100E78000CBF012000205DF808FB00BF4DF808ED0D
:100E8800FFF7EAFF34BF012000205DF808FB00BF30
:100E98004DF808EDFFF7E0FF94BF012000205DF852
:100EA80008FB00BF4DF808EDFFF7D2FF94BF012003
:100EB80000205DF808FB00BF4DF808EDFFF7C8FFFC
:100EC80034BF012000205DF808FB00BF844641EADA
:100ED800000313F0030349D1403A23D30B6803609E
:100EE8004B6843608B688360CB68C3600B690361A0
:100EF8004B6943618B698361CB69C3610B6A036288
:100F08004B6A43628B6A8362CB6AC3620B6B03636F
:100F18004B6B43638B6B8363CB6BC3634030403154
:100F2800403ADBD230320BD30B6803604B68436026
:100F38008B688360CB68C36010301031103AF3D2ED
:100F48000C3205D351F8043B40F8043B043AF9D27B
:100F5800043208D0D2071CBF11F8013B00F8013B4E
:100F680001D30B8803806046704700BF082A13D35B
:100F78008B07B1D010F00303AED0C3F10403D21A2B
:100F8800DB071CBF11F8013B00F8013BA4D331F883
:100F9800023B20F8023B9FE7043AD9D3013A11F803
:100FA800013B00F8013BF9D20B7803704B78437092
:100FB8008B788370604670474FF0FF3C06E000BFB7
:100FC8004FF0010C02E000BF4FF0010C4DF804CDCA
:100FD8004FEA410C7FEA6C5C4FEA430C18BF7FEA8A
:100FE8006C5C1BD001B050EA410C0CBF52EA430CB8
:100FF80091EA030F02BF90EA020F0020704710F138
:10100800000F91EA030F58BF994208BF90422CBFC6
:10101800D8176FEAE37040F0010070474FEA410CBF
:101028007FEA6C5C02D150EA013C07D14FEA430CDD
:101038007FEA6C5CD6D152EA033CD3D05DF8040B4E
:10104800704700BF8446104662468C461946634680
:1010580000E000BF01B5FFF7B7FF002848BF10F157
:10106800000F01BD4DF808EDFFF7F4FF0CBF01209C
:1010780000205DF808FB00BF4DF808EDFFF7EAFF18
:1010880034BF012000205DF808FB00BF4DF808EDD3
:10109800FFF7E0FF94BF012000205DF808FB00BFC8
:1010A8004DF808EDFFF7CEFF94BF012000205DF852
:1010B80008FB00BF4DF808EDFFF7C4FF34BF01205F
:1010C80000205DF808FB00BF4FEA410C7FEA6C5C2A
:1010D80002D150EA013C0AD14FEA430C7FEA6C5C2A
:1010E80002D152EA033C02D14FF0000070474FF0A2
:1010F800010070474FEA410212F5001215D211D5CE
:101108006FF47873B3EB625212D94FEAC12343F0FC
:10111800004343EA505311F0004F23FA02F018BF7E
:10112800404270474FF00000704750EA013005D147
:1011380011F0004008BF6FF0004070474FF000000A
:10114800704700BF53B94AB9002908BF00281CBF1F
:101158004FF0FF314FF0FF3000F06EB9ADF1080CE1
:101168006DE904CE00F006F8DDF804E0DDE90223BD
:1011780004B070472DE9F047089E0D4604468E4698
:10118800002B40F083808A42174647D9B2FA82F38F
:101198004BB1C3F1200105FA03FE20FA01F19F408B
:1011A80041EA0E0E9C404FEA1748BEFBF8FC1FFAB6
:1011B80087F908FB1CE20CFB09F0210C41EA02420A
:1011C80090420AD9BA180CF1FF3180F01881904288
:1011D80040F21581ACF1020C3A44121AB2FBF8F055
:1011E80008FB102200FB09F1A4B244EA0244A14220
:1011F80009D93C1900F1FF3280F00381A14240F285
:10120800008102383C44641A002140EA0C401EB1B7
:101218000022DC40C6E90042BDE8F08702B9FFDEE3
:10122800B2FA82F3002B4FD18D1A01214FEA124EE8
:101238001FFA82F8B5FBFEFC0EFB1C5508FB0CF0F0
:10124800220C42EA0545A84207D97D190CF1FF3264
:1012580002D2A84200F2E98094462D1AB5FBFEF0AE
:101268000EFB105508FB00F8A4B244EA0544A0455B
:1012780007D93C1900F1FF3202D2A04500F2D9800B
:101288001046A4EB080440EA0C40C0E78B4208D99A
:10129800002E00F0B1800021C6E900050846BDE82F
:1012A800F087B3FA83F100294BD1AB4202D38242D3
:1012B80000F2B980841A65EB030301209E46002ED4
:1012C800AAD0C6E9004EA7E79F40C3F12002D1404B
:1012D8004FEA174EB1FBFEF01FFA87F80EFB10110C
:1012E80024FA02F29D4000FB08FC2A43150C45EA4B
:1012F8000145AC4504FA03F409D97D1900F1FF3121
:1013080080F08F80AC4540F28C8002383D44A5EBDC
:101318000C05B5FBFEF10EFB115C01FB08F995B25B
:1013280045EA0C45A94507D97D1901F1FF3274D268
:10133800A94572D902393D44A5EB090541EA0041A6
:1013480078E7C1F120078B4022FA07FC4CEA030C2E
:1013580025FA07F44FEA1C4EB4FBFEF91FFA8CF885
:101368000EFB194420FA07F309FB08FA8D401D43C8
:101378002B0C43EA0444A24502FA01F200FA01F3F5
:1013880009D91CEB040409F1FF3048D2A24546D91B
:10139800A9F102096444A4EB0A04B4FBFEF00EFBB5
:1013A800104400FB08FAADB245EA0444A24508D946
:1013B8001CEB040400F1FF352DD2A2452BD90238CD
:1013C800644440EA0940A0FB0289A4EB0A044C45A6
:1013D800C6464D4619D316D05EB1B3EB0E0264EB88
:1013E800050404FA07F722FA01F31F43CC40C6E9C3
:1013F80000740021BDE8F087314630460CE78C4682
:10140800EBE61046FFE64345E6D2B8EB020E69EB81
:101418000C050138E0E72846D3E711468CE78146FA
:10142800B9E7084673E7084649E7ACF1020C3D44C2
:1014380013E702383C4424E7704700BF30B597B043
:1014480000240F9411940794089409940A940B9417
:1014580001940294039404940594069409230C932C
:101468004FF480330D930E940122109212920225AC
:10147800139514934FF4E01315930CA801F05EFA3A
:101488000F230793089509944FF480630A930B94EC
:10149800294607A801F090FC01954FF400430393F7
:1014A80001A801F065FD17B030BD0000F0B585B0AA
:1014B80000F030FEFFF7C2FF02F07AFC02F0BEFC3B
:1014C80002F058F802F0FBF90028FBD0012114487B
:1014D80001F015FA642000F041FE02F067FB16E007
:1014E800104B5E681F689868FFF7B2F804460D460F
:1014F8003846FFF7ADF8CDE902013046FFF7A8F806
:10150800CDE9000122462B46074802F075FC00246D
:101518000134A4B2034800F01BFD142CF8D1DFE716
:10152800000C0140E4090020D0AB000882B00E4B4B
:101538009A6942F001029A619A6902F001020092E6
:10154800009ADA6942F08052DA61DB6903F080536D
:101558000193019B054A536823F0E06343F000734D
:10156800536002B0704700BF001002400000014005
:1015780070B586B000230293039304930593026821
:10158800294B9A4201D006B070BD044603F5584372
:101598009A6942F480429A619A6902F48042009200
:1015A800009A9A6942F004029A619B6903F0040365
:1015B8000193019B4FF400730293022303930323C7
:1015C80005931A4E02A9304601F070F84FF4806373
:1015D800029300250395049502A9304601F066F8A8
:1015E800134B144A1A6010225A609D608022DA60F8
:1015F8001D615D619D61DD6123635C620E4B0F4976
:1016080019605D609D60DA601D615D619D61DD61ED
:1016180063635C622A462946252000F0C5FD252023
:1016280000F0F6FDAFE700BF0038014000080140B8
:101638000C0C002044000240C80B00205800024057
:101648007047FEE7FEE7FEE7FEE770477047704722
:1016580008B500F071FD08BD08B5024800F0B0FEFD
:1016680008BD00BF0C0C002008B5024800F0A8FE19
:1016780008BD00BFC80B00207047000008B502482D
:1016880001F0DCFE08BD00BFB80A00207047012049
:10169800704708B502F092FC162303604FF0FF3044
:1016A80008BD08B54FF0FF31FFF7F3FFFEE770B54F
:1016B8000C4616460025B54207DAAFF300802146EE
:1016C80001F8010B01350C46F5E7304670BD70B5E1
:1016D8000C4616460025B54205DA14F8010BAFF39F
:1016E80000800135F7E7304670BD000008B50346B5
:1016F8000B4A126842B10A4A106803446A46934288
:1017080006D8074A136008BD054A06491160F2E782
:1017180002F054FC0C2303604FF0FF30F3E700BFE6
:10172800E0090020B00C00204FF0FF3070474FF464
:1017380000534B600020704701207047002070471D
:101748007047000010B504464FF07C51FEF768FD65
:1017580001462346094CA4EB63042046FEF760FDCE
:1017680001462046FEF75CFD01464FF07F50FFF72B
:101778002DFA01462046FEF753FD10BDDF59375FAD
:101788002DE9F04F95B00D900E910F921C46DDF8A3
:1017980078B0DDF87CA0DDF88090A54D2868296830
:1017A800FEF73EFD10902868A24F3968FEF738FD15
:1017B80002902868A04E3168FEF732FD0390286831
:1017C8009E4D2968FEF72CFD089038683968FEF7A9
:1017D80027FD009038683168FEF722FD04903868CC
:1017E8002968FEF71DFD069030683168FEF718FD80
:1017F800804630682968FEF713FD09902868296833
:10180800FEF70EFD074621462046FEF709FD054670
:1018180059465846FEF704FD01462846FFF7D8F911
:10182800054651465046FEF7FBFC01462846FFF7A1
:10183800CFF9FFF787FF054601462046FEF7F0FC83
:101848000A9029465846FEF7EBFC0B90294650466D
:10185800FEF7E6FC0C9049464846FEF7E1FC0446D4
:1018680021990846FEF7DCFC01462046FFF7B0F94F
:10187800044622990846FEF7D3FC01462046FFF7A6
:10188800A7F9FFF75FFF044601464846FEF7C8FC84
:10189800834621462198FEF7C3FC824621462298BA
:1018A800FEF7BEFC064659465846FFF791F904462E
:1018B80041464FF07C50FFF789F901973946FFF709
:1018C80085F901462046FEF7ABFC054651465046D1
:1018D800FFF77EF9074608990498FFF777F9129001
:1018E80001463846FEF79CFC01462846FFF770F98A
:1018F8000546314611963046FFF76AF906460699BD
:101908000398FFF765F9139001463046FEF788FC07
:1019180001462846FFF75CF9814604990898FFF7C5
:1019280057F901462046FEF77BFC054600994FF023
:101938007C50FFF74BF908900199FFF747F90146EA
:101948003846FEF76DFC01462846FFF741F9054683
:1019580002990998FFF73AF901463046FEF760FC0C
:1019680001462846FFF734F9049003990698FFF7D3
:101978002DF9054601462046FEF752FC03900999C9
:101988000298FFF725F9044601463846FEF748FC59
:1019980001460398FFF71CF9074641460898FFF7E8
:1019A80015F901463046FEF73BFC01463846FFF77D
:1019B8000FF9074649464846FEF732FC0646049B9F
:1019C80019461846FEF72CFC01463046FFF700F989
:1019D800FEF73EFE08F038FBFFF7A4F80646294656
:1019E8002846FFF7F5F8029021462046FFF7F0F861
:1019F800039000991098FFF7E9F84146FFF7E6F8D9
:101A08000199FFF7E5F8089031463046FFF7E0F80E
:101A18000646FEF71DFECDE904014046FEF718FE16
:101A280080468946CDE9068902460B4608E000BF94
:101A380004000020F8090020FC090020000A00200A
:101A48000020B149FEF7A4FC804689460198FEF7BC
:101A5800FFFD02460B4640464946FEF799FC024602
:101A68000B46DDE90401FEF74BFE80468946394600
:101A78003846FFF7ADF8074601462846FEF7D0FB83
:101A8800FEF7E6FD02460B4640464946FEF782FC55
:101A9800FFF748F8054631461298FEF7C1FB804625
:101AA80039462046FEF7BCFB01464046FFF790F852
:101AB800044631461398FEF7B3FBFEF7C9FD80468E
:101AC80089463846FEF7C4FD06460F460098FEF7DD
:101AD800BFFD02460B4600208B49FEF759FCDDE9A5
:101AE8000623FEF755FC02460B4630463946FEF7FC
:101AF80007FE02460B4640464946FEF74BFCFFF7F9
:101B080011F8064608990B98FEF78AFB07460399D1
:101B18000C98FEF785FB01463846FFF757F807464D
:101B280031465046FEF77CFB80462146DDF844905E
:101B38004846FEF775FB01464046FFF747F8014661
:101B48003846FFF745F8074602990C98FEF768FBF8
:101B5800804608990A98FEF763FB01464046FFF75E
:101B680035F8804629464846FEF75AFB81463146F5
:101B78005846FEF755FB01464846FFF727F8014649
:101B88004046FFF725F8064603990A98FEF748FBF2
:101B9800804602990B98FEF743FB01464046FFF743
:101BA80015F8804621465846FEF73AFB0446294672
:101BB8005046FEF735FB01462046FFF707F8014679
:101BC8004046FFF705F8044600213846FFF74CF970
:101BD800002844D100213046FFF746F900283ED1BD
:101BE80000212046FFF740F9002838D147493846F8
:101BF800FEF716FB0021FEF7EBFF8146434930460E
:101C0800FEF70EFB0021FEF7E3FF80463F49204622
:101C1800FEF706FB0021FEF7DBFF05463C49384688
:101C2800FEF7FEFA0D99FEF7D3FF4946FEF7D0FFFF
:101C38000D9037493046FEF7F3FA0E99FEF7C8FFC4
:101C48004146FEF7C5FF0E9031492046FEF7E8FAF7
:101C58000F99FEF7BDFF2946FEF7BAFF0F902D4EEC
:101C6800306800F10040DDF834904946FEF7D8FAB4
:101C78000446294D2868DDF838B05946FEF7D0FAF1
:101C880001462046FEF7A2FF0746244C2068DDF8EF
:101C98003CA05146FEF7C4FA01463846FEF796FFC7
:101CA8001A49FEF7BDFA1E4F3968FEF791FF3860F2
:101CB80038684946FEF7B4FA804628685146FEF768
:101CC800AFFA01464046FEF783FF80462068594632
:101CD800FEF7A6FA01464046FEF778FF0B49FEF7E5
:101CE8009FFA3168FEF774FF306038685946FEF78E
:101CF80097FA804630685146FEF792FA0146404608
:101D0800FEF764FF0EE000BF0000E03FA69BC43C66
:101D180000009040F8090020FC090020000A00207B
:101D280004000020804620684946FEF779FA0146FB
:101D38004046FEF74DFF2E49FEF772FA2968FEF776
:101D480047FF286038685146FEF76AFA80463068CF
:101D58005946FEF765FA01464046FEF739FF8046C8
:101D680028684946FEF75CFA01464046FEF72EFF12
:101D78001F49FEF755FA2168FEF72AFF20603868E8
:101D88003968FEF74DFA804630683168FEF748FA40
:101D980001464046FEF71CFF804628682968FEF782
:101DA8003FFA01464046FEF713FF80462068216847
:101DB800FEF736FA01464046FEF70AFFFFF7C2FC77
:101DC800804638684146FEF72BFA3860306841464D
:101DD800FEF726FA306028684146FEF721FA2860A7
:101DE80020684146FEF71CFA206015B0BDE8F08F68
:101DF800A69BC43C000000002DE9F04F91B00DAA4D
:101E08000DF132010CA801F00FFF0FAA0DF13A01F4
:101E18000EA801F033FE0BAA0DF12A010AA801F061
:101E28005DFFBDF93AB0BDF93CA0BDF93090BDF9F0
:101E38003280BDF93470BDF82860434B1A88B61A51
:101E480036B2BDF82A505A88AD1A2DB2BDF82C40CA
:101E58009B88E41A24B2BDF93800FEF7E7FB36A3E5
:101E6800D3E90023FEF776FDFEF75CFE06905846A0
:101E7800FEF7DCFB30A3D3E90023FEF76BFDFEF78A
:101E880051FE83465046FEF7D1FB2BA3D3E900232E
:101E9800FEF760FDFEF746FE82464846FEF74CFF19
:101EA80081464046FEF748FF80463846FEF744FF25
:101EB80007463046FEF740FF06462846FEF73CFF39
:101EC80005462046FEF738FF04460698FEF7C0FB95
:101ED8001BA3D3E90023FEF713FCCDE906015846FE
:101EE800FEF7B6FB16A3D3E90023FEF709FCCDE9FC
:101EF80008015046FEF7ACFB11A3D3E90023FEF717
:101F0800FFFBFEF70FFE8246DDE90801FEF70AFE39
:101F18008346DDE90601FEF705FE04940395029663
:101F28000197CDF800804B4652465946FFF728FCEA
:101F380011B0BDE8F08F00BF666666666666404011
:101F4800EC51B81E85EB913FF0090020000000001D
:101F58002DE9F84F0546FFF74FFF574F38684FF008
:101F68004041FEF75DF9554E3168FEF759F9804654
:101F7800DFF850A1DAF800000146FEF729FE504CC0
:101F88002168FEF74DF901464046FEF721FEFEF7AF
:101F98005FFB08F027F846A3D3E90023FEF7B0FB60
:101FA800FEF7C0FD686020680146FEF711FE316843
:101FB800FEF736F98046DAF800000146FEF708FE1B
:101FC8003968FEF72DF901464046FEF701FE8346C3
:101FD80038684FF04041FEF723F93968FEF720F9D9
:101FE800804620680146FEF7F3FD2168FEF718F9E0
:101FF80001464046FEF7EAFD4FF07E51FEF7E8FD48
:10200800FEF726FB804689465846FEF721FB4246E6
:102018004B4608F017F826A3D3E90023FEF770FB18
:10202800FEF780FDA86038684FF04041FEF7F8F8E9
:102038002168FEF7F5F80746DAF800000146FEF7D2
:10204800C7FD3168FEF7ECF801463846FEF7BEFDDD
:10205800804620680146FEF7BBFD2168FEF7E0F8E0
:10206800044630680146FEF7B3FD3168FEF7D8F83C
:1020780001462046FEF7ACFD4FF07E51FEF7A6FD67
:10208800FEF7E6FA06460F464046FEF7E1FA324604
:102098003B4607F0D7FF06A3D3E90023FEF730FB42
:1020A800FEF740FD2860BDE8F88F00BFAFF3008061
:1020B8006666666666A64C40F8090020000A00209D
:1020C800FC0900200400002010B504460E4B1878C7
:1020D8004FF47A73B3FBF0F30C4A1068B0FBF3F0DB
:1020E80000F0A4F868B90F2C01D901200AE00022F9
:1020F80021464FF0FF3000F057F8054B1C600020D8
:1021080000E0012010BD00BF0800002000000020F2
:102118000C00002008B5074A136843F01003136049
:10212800032000F02FF80020FFF7CEFFFFF7FEF99D
:10213800002008BD00200240034A1168034B1B78A9
:102148000B441360704700BF040A002008000020F9
:10215800014B1868704700BF040A002038B50446D0
:10216800FFF7F6FF0546B4F1FF3F02D0044B1B789A
:102178001C44FFF7EDFF401BA042FAD338BD00BF57
:1021880008000020074AD36823F4E0631B041B0CF3
:10219800000200F4E060034343F0BF6343F40033FC
:1021A800D360704700ED00E030B4174BDB68C3F331
:1021B8000223C3F10704042C28BF04241D1D062D87
:1021C80018D9033B4FF0FF3505FA04F421EA04015E
:1021D800994005FA03F322EA0303194300280BDBAD
:1021E8000901C9B200F1604000F5614080F80013B0
:1021F80030BC70470023E5E700F00F000901C9B2C1
:10220800024B1954F4E700BF00ED00E014ED00E0C4
:10221800002807DB00F01F02400901239340024A0F
:1022280042F82030704700BF00E100E00138B0F10B
:10223800807F0AD2064B5860064AF02182F82310A4
:102248000020986007221A6070470120704700BF7D
:1022580010E000E000ED00E008B590F82130022B16
:1022680003D004238363012008BD0268136823F0A8
:102278000E0313600268136823F0010313600368F8
:102288004B4A93424ED9783A934224D0143293421F
:1022980030D0143293422FD0143293422FD01432BC
:1022A80093422FD0143293422FD0143293422FD01E
:1022B80002F5627293422ED0143293422DD014321A
:1022C80093422CD01432934202D04FF4803203E070
:1022D8004FF4805200E00122364B5A60012380F807
:1022E8002130002380F82030436B002B5ED09847C4
:1022F8000020B9E71022EFE74FF48072ECE74FF4C3
:102308008052E9E74FF48032E6E74FF48012E3E7C2
:102318004FF08072E0E70122DEE71022DCE74FF49D
:102328008072D9E7244A934224D01432934225D0AC
:102338001432934224D01432934224D0143293425C
:1023480024D01432934224D01432934224D002F57C
:102358006272934223D01432934222D014329342B1
:1023680021D01432934202D04FF4803203E04FF46C
:10237800805200E00122114B5A60AFE71022FAE7C1
:102388004FF48072F7E74FF48052F4E74FF480324D
:10239800F1E74FF48012EEE74FF08072EBE701228D
:1023A800E9E71022E7E74FF48072E4E700205BE7F3
:1023B8008000024000040240080002400000024081
:1023C80038B5C36B1A6804682568016C04238B4010
:1023D800134200F09B8015F0040F00F097802368EB
:1023E80013F0200F03D1236823F00403236003684C
:1023F800AA4A934246D9783A934224D01432934257
:1024080028D01432934227D01432934227D0143262
:10241800934227D01432934227D01432934227D0C4
:1024280002F56272934226D01432934225D01432B8
:10243800934224D01432934202D04FF4802203E016
:102448004FF4804200E00422954B5A60C36A03B1FE
:10245800984738BD4022F7E74FF48062F4E74FF41D
:102468008042F1E74FF48022EEE74FF48002EBE779
:102478004FF08062E8E70422E6E74022E4E74FF401
:102488008062E1E7874A934224D01432934225D0F0
:102498001432934224D01432934224D014329342FB
:1024A80024D01432934224D01432934224D002F51B
:1024B8006272934223D01432934222D01432934250
:1024C80021D01432934202D04FF4802203E04FF41B
:1024D800804200E00422744B5A60B7E74022FAE7D2
:1024E8004FF48062F7E74FF48042F4E74FF480221C
:1024F800F1E74FF48002EEE74FF08062EBE7042249
:10250800E9E74022E7E74FF48062E4E702238B40E3
:10251800134200F0A38015F0020F00F09F8023689B
:1025280013F0200F06D1236823F00A032360012348
:1025380080F821300368594A93424BD9783A93423C
:1025480024D0143293422DD0143293422CD014321A
:1025580093422CD0143293422CD0143293422CD074
:10256800143293422CD002F5627293422BD014326B
:1025780093422AD01432934229D01432934202D083
:102588004FF4003203E04FF4005200E00222444BC3
:102598005A60002380F82030836A002B3FF459AF3B
:1025A800984756E72022F2E74FF40072EFE74FF41E
:1025B8000052ECE74FF40032E9E74FF40012E6E787
:1025C8004FF00072E3E70222E1E72022DFE74FF451
:1025D8000072DCE7334A934224D01432934225D068
:1025E8001432934224D01432934224D014329342AA
:1025F80024D01432934224D01432934224D002F5CA
:102608006272934223D01432934222D014329342FE
:1026180021D01432934202D04FF4003203E04FF439
:10262800005200E00222204B5A60B2E72022FAE76B
:102638004FF40072F7E74FF40052F4E74FF400321A
:10264800F1E74FF40012EEE74FF00072EBE70222D9
:10265800E9E72022E7E74FF40072E4E7082303FAEA
:1026680001F111423FF4F5AE15F0080F3FF4F1AE59
:10267800236823F00E032360026CC16B012303FA65
:1026880002F24A60836380F82130002380F820300A
:10269800036B002B3FF4DDAE9847DAE6800002407A
:1026A800000402400800024000000240F0B482B07A
:1026B80000252C46ABE0854FBB4210D007D9844F8C
:1026C800BB420CD007F58037BB4208D013E0A7F512
:1026D8008017BB4203D007F57027BB4207D18B6830
:1026E800002B60D0012B59D04261082503E0A7F5E3
:1026F8008017BB42F3D0FF2E57D88446FF2E57D8F9
:10270800A200DCF800300F27974023EA070305FAF8
:1027180002F21343CCF800304B6813F0805F75D099
:102728006C4B9A6942F001029A619B6903F00103BC
:102738000193019BA208971C674B53F827C004F02C
:1027480003039F000F23BB402CEA030C634B984202
:1027580034D003F58063984200F0948003F58063D9
:10276800984200F0918003F58063984200F08E80D3
:1027780003F58063984200F08B8003F580639842EC
:102788001AD006231BE0CD68B5E7CD680435B2E75B
:10279800CD680835AFE7CD680C35ACE70261082590
:1027A800A9E70025A7E70425A5E700F1040CA5E79C
:1027B800A4F108029200A4E7052300E00023BB402F
:1027C80043EA0C030232444F47F822304B6813F4B3
:1027D800803F5FD0424A1368334313604B6813F459
:1027E800003F5DD03E4A5368334353604B6813F44F
:1027F800801F5BD03A4A9368334393604B6813F465
:10280800001F59D0364AD3681E43D66001340B687E
:1028180033FA04F256D00122A24003EA020632EA51
:102828000303F3D14B68122B3FF645AF122B3FF64B
:1028380062AF01A757F823F0E72600088F270008A2
:1028480099270008AB270008FF260008FF26000884
:10285800FF260008FF260008FF260008FF260008BC
:10286800FF260008FF260008FF260008FF260008AC
:10287800FF260008FF260008FF2600089327000807
:102888009F27000801239AE7022398E7032396E786
:10289800042394E7124A136823EA060313609DE7AA
:1028A8000F4A536823EA060353609FE70C4A93686C
:1028B80023EA06039360A1E7094AD36823EA0606D8
:1028C800D660A3E702B0F0BC704700BF000022103A
:1028D80000003110001002400000014000080140D3
:1028E800000401408368194201D00120704700208C
:1028F80070470AB101617047090401617047C368F4
:1029080001EA030221EA030141EA02410161704739
:1029180082B0084B1B68084AA2FB03235B0A00FB32
:1029280003F3019300BF019B5A1E0192002BF9D1BA
:1029380002B0704700000020D34D6210002800F05C
:10294800F18170B582B00446036813F0010F2CD0F2
:10295800AA4B5B6803F00C03042B1DD0A74B5B68E4
:1029680003F00C03082B12D06368B3F5803F41D005
:10297800002B55D103F1804303F504331A6822F480
:1029880080321A601A6822F480221A6037E09B4B62
:102998005B6813F4803FE7D0984B1B6813F4003F43
:1029A80003D06368002B00F0BF81236813F0020F87
:1029B80075D0924B5B6813F00C0F5FD08F4B5B6840
:1029C80003F00C03082B54D02369002B00F08980F6
:1029D8008B4B01221A60FFF7BBFB0546874B1B6830
:1029E80013F0020F74D1FFF7B3FB401B0228F5D98F
:1029F80003209EE1814A136843F4803313606368BF
:102A080043B3FFF7A5FB05467C4B1B6813F4003F57
:102A1800CBD1FFF79DFB401B6428F5D9032088E143
:102A2800B3F5A02F09D0754B1A6822F480321A60CA
:102A38001A6822F480221A60E1E703F18043A3F5C3
:102A48003C331A6842F480221A601A6842F48032D1
:102A58001A60D4E7FFF77CFB0546684B1B6813F444
:102A6800003FA2D0FFF774FB401B6428F5D9032070
:102A78005FE1624B5B6813F4803FA5D15F4B1B6835
:102A880013F0020F03D02369012B40F04F815B4AFA
:102A9800136823F0F803616943EAC10313602368EC
:102AA80013F0080F32D0A369002B45D0554B0122F3
:102AB8001A60FFF74DFB0546504B5B6A13F0020F97
:102AC80021D1FFF745FB401B0228F5D9032030E14F
:102AD8004A4A136823F0F803616943EAC1031360A3
:102AE800DDE7474B00221A60FFF732FB0546434BF0
:102AF8001B6813F0020FD2D0FFF72AFB401B0228F5
:102B0800F5D9032015E10120FFF702FF236813F030
:102B1800040F00F09780394BDB6913F0805F1DD1FB
:102B2800364BDA6942F08052DA61DB6903F0805390
:102B38000193019B012512E0324B00221A60FFF736
:102B480007FB05462D4B5B6A13F0020FDED0FFF73B
:102B5800FFFA401B0228F5D90320EAE000252A4B9A
:102B68001B6813F4807F11D0E368012B22D0002B5F
:102B780038D103F1804303F504331A6A22F00102C5
:102B88001A621A6A22F004021A6218E01E4A1368CE
:102B980043F480731360FFF7DBFA06461A4B1B6891
:102BA80013F4807FE0D1FFF7D3FA801B6428F5D9AE
:102BB8000320BEE0114A136A43F001031362E3687D
:102BC80073B3FFF7C5FA06460C4B1B6A13F0020FE6
:102BD80037D1FFF7BDFA801B41F288339842F3D909
:102BE8000320A6E0052B11D0044B1A6A22F001023B
:102BF8001A621A6A22F004021A62E0E70010024020
:102C08000000424280044242007000404D4B1A6A64
:102C180042F004021A621A6A42F001021A62CEE70E
:102C2800FFF796FA0646474B1B6A13F0020F08D0C7
:102C3800FFF78EFA801B41F288339842F3D90320BC
:102C480077E0E5B9E369002B72D03E4A526802F09A
:102C58000C02082A56D0022B17D03B4B00221A60D0
:102C6800FFF776FA0446374B1B6813F0007F47D00E
:102C7800FFF76EFA001B0228F5D9032059E0314A04
:102C8800D36923F08053D361DCE72F4B00221A600D
:102C9800FFF75EFA05462B4B1B6813F0007F06D042
:102CA800FFF756FA401B0228F5D9032041E0236AB2
:102CB800B3F5803F1AD023494B6823F47413226A72
:102CC800606A024313434B601F4B01221A60FFF7EF
:102CD8003FFA04461B4B1B6813F0007F0ED1FFF729
:102CE80037FA001B0228F5D9032022E0154A536859
:102CF80023F40033A1680B435360DCE7002018E09D
:102D0800002016E0012B16D00E4B5B6803F48031CF
:102D1800226A914211D103F47013626A93420ED170
:102D2800002006E001207047012002E0012000E0B9
:102D3800002002B070BD0120FBE70120F9E7012067
:102D4800F7E700BF001002406000424286B0164B11
:102D58000FCB0DF1180C0CE90F0040F20123ADF870
:102D68000430124B5B6803F00C02082A02D01048AA
:102D780006B07047C3F38342624412F8102C13F470
:102D8800803F0CD0094B5B68C3F34043634413F89E
:102D9800143C074800FB02F0B0FBF3F0E8E70548F5
:102DA80000FB02F0E4E700BF18AC00080010024086
:102DB80000127A0000093D00002800F0A08070B5DC
:102DC8000D460446524B1B6803F007038B420BD297
:102DD8004F4A136823F007030B431360136803F08B
:102DE80007038B4240F08D80236813F0020F17D041
:102DF80013F0040F04D0474A536843F4E063536068
:102E0800236813F0080F04D0424A536843F4605310
:102E18005360404A536823F0F003A1680B435360A2
:102E2800236813F0010F31D06368012B20D0022BE7
:102E380025D0384A126812F0020F64D035494A6822
:102E480022F0030213434B60FFF782F90646314B29
:102E58005B6803F00C036268B3EB820F16D0FFF7D0
:102E680077F9801B41F288339842F0D9032045E076
:102E7800284A126812F4003FE0D101203EE0254ABA
:102E8800126812F0007FD9D1012037E0204B1B686F
:102E980003F00703AB420AD91D4A136823F007035E
:102EA8002B431360136803F00703AB422DD123684B
:102EB80013F0040F06D0174A536823F4E063E1685F
:102EC8000B435360236813F0080F07D0114A536867
:102ED80023F46053216943EAC1035360FFF736FFC7
:102EE8000C4B5B68C3F303130B4AD35CD8400B4B02
:102EF80018600B4B1868FFF7E7F8002070BD012039
:102F080070470120FAE70120F8E70120F6E700BF43
:102F1800002002400010024000AC00080000002021
:102F28000C000020014B1868704700BF000000200B
:102F380008B5FFF7F7FF044B5B68C3F30223034AA6
:102F4800D35CD84008BD00BF0010024010AC000898
:102F580008B5FFF7E7FF044B5B68C3F3C223034AD6
:102F6800D35CD84008BD00BF0010024010AC000878
:102F780070B582B00446036813F0010F34D03E4B9D
:102F8800DB6913F0805F47D13B4BDA6942F080522E
:102F9800DA61DB6903F080530193019B0125374B0C
:102FA8001B6813F4807F39D0334B1B6A13F44073CA
:102FB80011D0626802F440729A420CD02E4A136A09
:102FC80023F440702E4901260E6000260E60106220
:102FD80013F0010F36D1284A136A23F4407361684D
:102FE8000B431362002D3ED1236813F0020F06D065
:102FF800214A536823F44043A1680B435360236874
:1030080013F0100F34D01C4A536823F4800361690D
:103018000B43536000202CE00025C0E7174A1368D3
:1030280043F480731360FFF793F80646134B1B684D
:1030380013F4807FB8D1FFF78BF8801B6428F5D98B
:10304800032016E0FFF784F806460B4B1B6A13F0C3
:10305800020FC0D1FFF77CF8801B41F288339842F9
:10306800F3D9032005E0D36923F08053D361BBE78C
:10307800002002B070BD00BF001002400070004088
:10308800400442420268D36823F49073D360026814
:10309800536923F001035361202380F83A307047C5
:1030A80090F83930DBB2212B01D0022070478368B9
:1030B800B3F5805F17D0036A5A1C02621A78036856
:1030C8005A60C38C9BB2013B9BB2C3844BB9026864
:1030D800D36823F08003D3600268D36843F04003C9
:1030E800D360002070470369002BE4D1036A1B8872
:1030F8000268C3F308035360036A02330362E0E71C
:1031080010B504460268136923F44053C1680B43A1
:10311800136183680269134342691A430168CB68E3
:1031280023F4B05323F00C031343CB6002685369B4
:1031380023F4407381690B4353610268124B9A422E
:103148001FD0FFF7F5FE00EB800303EB83036268F3
:103158009200B3FBF2F20D48A0FB02314909642347
:1031680003FB11231B013233A0FB03235B0903F08C
:10317800F00202EB011203F00F03216813448B6085
:1031880010BDFFF7E5FEDEE7003801401F85EB5173
:103198002DE9F84305460F4616469946DDF8208086
:1031A8002C68246837EA04030CBF01240024B442C5
:1031B8001FD1B8F1FF3FF3D0B8F1000F05D0FEF7EB
:1031C800C7FFA0EB09004045EAD92A68D36823F471
:1031D800D073D3602A68536923F001035361202315
:1031E80085F8393085F83A30002385F838300320DF
:1031F80000E00020BDE8F88358B310B5044690F805
:1032080039300BB3242384F839302268D36823F487
:103218000053D3602046FFF773FF2268136923F435
:10322800904313612268536923F02A03536122688B
:10323800D36843F40053D3600020E063202384F86C
:10324800393084F83A3010BD80F83830FEF790F9FC
:10325800D8E7012070472DE9F04182B01E4690F86A
:103268003930DBB2202B54D104460D469046002954
:1032780053D0002A53D090F83830012B51D0012375
:1032880080F838300023C363212380F83930FEF7F3
:103298005FFF0746A4F82480A4F82680A368B3F546
:1032A800805F05D04FF00008002384F8383012E022
:1032B800236913B14FF00008F6E7A8460025F3E7A5
:1032C80038F8023B2268C3F308035360E28C92B2D9
:1032D800013A92B2E284E38C9BB273B100963B460A
:1032E800002280212046FFF753FFE0B9002DE7D0E8
:1032F80015F8012B23685A60E8E700963B46002240
:1033080040212046FFF744FF78B9202384F839305C
:1033180000E0022002B0BDE8F0810120FAE70120B8
:10332800F8E70220F6E70320F4E70320F2E790F835
:103338003A30DBB2202B20D109B312B390F83830E1
:10334800012B20D081628285C2850023C36322229B
:1033580080F83A2080F838300168CA6842F48072F0
:10336800CA6001684A6942F001024A610168CA6894
:1033780042F02002CA6018467047022070470120B8
:1033880070470120704702207047704708B50168F0
:10339800CA6822F04002CA60202280F83920FFF76C
:1033A800F4FF002008BD08B590F83A30DBB2222BB4
:1033B80041D18368B3F5805F14D0826AB3F5805F2A
:1033C80002D0E3B90369D3B903685B681370836AF1
:1033D80001338362C38D9BB2013B9BB2C385A3B10A
:1033E800002008BD0269002AE7D1826A03685B6889
:1033F800C3F308031380836A02338362EAE703682E
:103408005B6803F07F031370E1E70268D36823F079
:103418002003D3600268D36823F48073D360026802
:10342800536923F001035361202380F83A3000F0F8
:1034380063FD0020D5E70220D3E7704710B50446A6
:1034480002681368D168526913F00F0005D113F0B0
:10345800200F02D011F0200F13D128B112F0010271
:1034680013D111F4907F10D113F0800F02D011F016
:10347800800F6CD113F0400F02D011F0400F6AD1C9
:1034880010BD2046FFF78FFFFAE713F0010F06D0B3
:1034980011F4807F03D0E06B40F00100E06313F08B
:1034A800040F04D01AB1E06B40F00200E06313F09F
:1034B800020F04D01AB1E06B40F00400E06313F08F
:1034C800080F07D011F0200F00D11AB1E26B42F0BB
:1034D8000802E263E26B002AD2D013F0200F02D078
:1034E80011F0200F21D123685B6903F04003E26BE0
:1034F80012F0080F00D123B32046FFF7C3FD23685D
:103508005A6912F0400F18D05A6922F040025A61E5
:10351800636B73B1124A5A63606BFEF79DFE002815
:10352800AED0606B436B9847AAE72046FFF73BFF96
:10353800D9E72046FFF781FFA2E72046FFF77DFF86
:103548009EE72046FFF779FF0023E36398E72046CC
:10355800FFF7A6FD94E72046FFF718FF90E700BFA6
:103568006D35000808B5406A0023C385C384FFF79A
:1035780064FF08BD10B586B00023049303F18043AF
:1035880003F504339A6942F008029A619B6903F0D3
:1035980008030193019BC023029311230393032380
:1035A8000593084C02A92046FFF780F80122402124
:1035B8002046FFF79EF9012280212046FFF799F95E
:1035C80006B010BD000C014082B000EBC0000190B5
:1035D80000BF019B5A1E0192002BF9D102B070471F
:1035E80008B5FEF7BBFD08BD00B585B08023009384
:1035F80068B1112301930323039369460548FFF734
:1036080055F80A20FFF7E0FF05B05DF804FB00233A
:103618000193F0E7000C014010B50120FFF7E4FF2B
:103628000F4C012280212046FFF763F90220FFF7A3
:10363800CBFF012240212046FFF75BF90220FFF76C
:10364800C3FF002280212046FFF753F90420FFF72B
:10365800BBFF002240212046FFF74BF910BD00BFF9
:10366800000C014010B50F4C002240212046FFF706
:1036780040F9002280212046FFF73BF90220FFF79E
:10368800A3FF012240212046FFF733F90220FFF76C
:103698009BFF012280212046FFF72BF90420FFF72A
:1036A80093FF10BD000C014010B5144C00224021BE
:1036B8002046FFF71EF90120FFF786FF012240216F
:1036C8002046FFF716F90020FFF78EFF002480211F
:1036D8000A48FFF707F938B10134E4B2C82CF6D923
:1036E800FFF7C0FF002008E00120FFF77DFF002260
:1036F80040210248FFF7FDF8012010BD000C0140F1
:1037080010B50F4C002240212046FFF7F2F80120A7
:10371800FFF76AFF002280212046FFF7EAF802201F
:10372800FFF752FF012240212046FFF7E2F802206E
:10373800FFF74AFF002240212046FFF7DAF810BDC4
:10374800000C014010B50F4C002240212046FFF725
:10375800D0F80120FFF748FF012280212046FFF71B
:10376800C8F80220FFF730FF012240212046FFF76A
:10377800C0F80220FFF728FF002240212046FFF76B
:10378800B8F810BD000C014038B504460120FFF719
:103798002BFF002513E0012280211348FFF7A9F829
:1037A8006400E4B20220FFF70FFF012240210E4817
:1037B800FFF79FF80220FFF707FF0135EDB2072D4D
:1037C80010D8002240210848FFF793F80220FFF79D
:1037D800FBFE14F0800FDED1002280210248FFF7A3
:1037E80088F8DDE738BD00BF000C014070B506461B
:1037F8000D461446FFF710FF3046FFF7C5FFFFF7E9
:1038080053FF2846FFF7C0FFFFF74EFF2046FFF79C
:10381800BBFFFFF749FFFFF725FF70BDF8B5074667
:103828000020FFF7E1FE0024254604E00220FFF710
:10383800CBFE0135EDB2072D18D8104E00224021DD
:103848003046FFF756F80220FFF7BEFE012240215E
:103858003046FFF74EF86400E4B280213046FFF7A7
:1038680041F80028E2D044F00104DFE71FB9FFF770
:1038780047FF2046F8BDFFF765FFFAE7000C014057
:1038880038B504460D46FFF7C7FE2046FFF77CFF14
:10389800FFF70AFF2846FFF777FFFFF705FFFFF757
:1038A800BBFE44F00100FFF76FFFFFF7FDFE0120AC
:1038B800FFF7B4FF0446FFF7D5FE204638BD08B52C
:1038C8000021D020FFF7DCFFEA2801D0002008BD46
:1038D8000120FCE7F8B507460C4615461E4630227F
:1038E8007F21D020FFF782FF3A460321D020FFF73F
:1038F8007DFF22460421D020FFF778FF45F08002A3
:103908000521D020FFF772FF00227F21D020FFF78A
:103918006DFF0321D020FFF7B3FF044640F02002DB
:10392800D2B20321D020FFF761FF0520FFF758FE30
:1039380004F0DF020321D020FFF758FF0024AC4237
:1039480009D204F13B01C9B2D020FFF799FF3055E5
:103958000134E4B2F3E730227F21D020FFF746FF9D
:103968000521D020FFF78CFF02460521D020FFF764
:103978003DFF00227F21D020FFF738FFF8BD00B5BA
:1039880083B001AB022200218C20FFF7A3FF9DF832
:103998000430482B03D0002003B05DF804FB9DF8E9
:1039A8000530092B01D00020F6E70120F4E770B5B7
:1039B80006460D46144630227F21D020FFF716FF19
:1039C80032460721D020FFF711FF2A460821D020D0
:1039D800FFF70CFF22460A21D020FFF707FF8122BC
:1039E8000921D020FFF702FF00227F21D020FFF716
:1039F800FDFE0321D020FFF743FF044640F02002DC
:103A0800D2B20321D020FFF7F1FE0520FFF7E8FD31
:103A180004F0DF020321D020FFF7E8FE30227F21E7
:103A2800D020FFF7E3FE0521D020FFF729FF02464B
:103A38000521D020FFF7DAFE00227F21D020FFF7F2
:103A4800D5FE70BD30B40478651C057021F81420CB
:103A5800027802F00702027000221A6006E031F9CB
:103A680012401868204418600132D2B2072AF6D9E9
:103A78001A68D2101A6030BC704700002DE9F04176
:103A880086B080460F46164600240194029403949B
:103A98002B4A1388013313803421D020FFF7F0FE1E
:103AA80005463321D020FFF7EBFE2DB245EA00256D
:103AB800ADF810503621D020FFF7E2FE054635213B
:103AC800D020FFF7DDFE2DB245EA0025ADF81250F3
:103AD8003821D020FFF7D4FE05463721D020FFF744
:103AE800CFFE2DB245EA0025ADF8145015E0154D6E
:103AF80004EBC40105EB410106AB03EB440204EB04
:103B0800C40001AB03EB840332F9082C023105EB46
:103B18004000FFF797FF0134E4B2022CE7D90A4BC3
:103B28001988019A521AA8F800205988029A521A3C
:103B38003A809A88039B9B1A338006B0BDE8F081CF
:103B48000E0A0020100A0020080A0020F0B583B0F1
:103B58000024ADF80640ADF80440ADF80240254613
:103B6800264627461F2C15D80DF1020201A90DF192
:103B78000600FFF783FFBDF906301F44BDF9043086
:103B88001E44BDF902301D440A20FFF729FD013407
:103B9800E4B2E7E77F11044B1F8076115E806D1158
:103BA8009D8003B0F0BD00BF080A002008B50022C0
:103BB8007F21D020FFF71AFE01220621D020FFF72F
:103BC80015FE0A20FFF70CFD01220621D020FFF781
:103BD8000DFE20227F21D020FFF708FE07220021BA
:103BE800D020FFF703FE35220121D020FFF7FEFD8C
:103BF80007221121D020FFF7F9FD31221421D0200E
:103C0800FFF7F4FD00227F21D020FFF7EFFD6420AD
:103C1800FFF7E6FCFFF79AFFFFF7B1FE0422312118
:103C28000C20FFF7C4FE08BD2DE9F04186B08046A0
:103C38000F46164600240194029403942E21D020A6
:103C4800FFF71EFE05462D21D020FFF719FE2DB2E5
:103C580045EA0025ADF810503021D020FFF710FEBE
:103C680005462F21D020FFF70BFE2DB245EA00258F
:103C7800ADF812503221D020FFF702FE054631215F
:103C8800D020FFF7FDFD2DB245EA0025ADF8145010
:103C980015E0114D04EBC40105EB410106AB03EB44
:103CA800440204EBC40001AB03EB840332F9082C93
:103CB800023105EB4000FFF7C5FE0134E4B2022CE7
:103CC800E7D9019BA8F80030029B3B80039B338017
:103CD80006B0BDE8F08100BF480A0020F0B589B001
:103CE80007460E46154600230493ADF81430019399
:103CF80002930393142484B10A20FFF771FC06ABE6
:103D0800012210218C20FFF7E5FD9DF8183013F0F3
:103D1800010F02D1013CE4B2EDE7FCB106AB06228B
:103D280011218C20FFF7D6FD9DF819209DF8183039
:103D380043EA0223ADF810309DF81B209DF81A3095
:103D480043EA0223ADF812309DF81D209DF81C307F
:103D580043EA0223ADF81430002419E0124800F0B9
:103D6800F5F9F9E7114804EBC40100EB410108AB90
:103D780003EB440204EBC40C01AB03EB840332F9FC
:103D8800102C023100EB4C00FFF75CFE0134E4B26A
:103D9800022CE7D9019B3B80029B5B423380039B4B
:103DA8005B422B8009B0F0BD2CAC0008800A0020D3
:103DB80030B587B00E4B9A6942F008029A619B6948
:103DC80003F008030193019B012402940023039349
:103DD800022304930594074D02A92846FEF766FCC2
:103DE800224621462846FEF784FD07B030BD00BFB5
:103DF80000100240000C01400FB430B5A3B026AC4F
:103E080054F8045B8022002102A800F001F9019413
:103E18002246294602A800F0E3F902A800F09EF91C
:103E28004FF0FF3382B202A90348FFF714FA23B018
:103E3800BDE8304004B07047B80A0020F0B589B03A
:103E4800284B9A6942F004029A619A6902F00402C6
:103E58000192019A9A6942F480429A619A6902F43D
:103E680080420292029A9A6942F001029A619B6921
:103E780003F001030393039B4FF40073049302239D
:103E880005930126069603240794174F04A938467C
:103E9800FEF70CFC4FF4806304930025059504A9F4
:103EA8003846FEF703FC2520FEF7B2F922462146E4
:103EB8002520FEF779F90D4C0D4B23604FF4E123D3
:103EC8006360A5600C236361A5612561E560E56118
:103ED8002046FFF791F9324606492046FFF727FAB0
:103EE80009B0F0BD0010024000080140B80A0020E7
:103EF80000380140C40B00200268194B9A4200D0D8
:103F08007047184A1388B2F90020002AF8DB13F426
:103F1800804F0ED0144A12780A2A03D0114B00227F
:103F28001A8070476FEA43436FEA53430D4A138080
:103F380070470D4A12780D2A0DD0C3F30D010B48B6
:103F4800425401339BB2074A1380C72BD8D9134672
:103F580000221A80D4E743F48043024A1380704752
:103F680000380140F80A0020C40B0020FC0A002099
:103F7800002103E00B4B5B58435004310A480B4BBC
:103F880042189A42F6D30A4A02E0002342F8043B58
:103F9800084B9A42F9D3FDF7D3FB00F015F8FDF76B
:103FA80085FA7047C4B0000800000020C40900204A
:103FB800C4090020AC0C0020FEE70000014B186883
:103FC800704700BF1000002070B50D4E0D4D761BD8
:103FD800B61006D0002455F8043B01349847A64291
:103FE800F9D1094E094D06F0E3FD761BB61006D04F
:103FF800002455F8043B01349847A642F9D170BD16
:10400800B8B00008B8B00008C0B00008B8B00008E0
:10401800F0B4860746D0541E002A3CD00346CAB2E4
:1040280001E0013C37D303F8012B9D07F9D1032C9C
:104038002AD9CDB245EA05250F2C45EA054534D9DC
:10404800A4F1100222F00F0C03F1200716096744AF
:1040580003F1100242E9045542E902551032BA420E
:10406800F8D1721C14F00C0F03EB021204F00F06C7
:1040780013D0331F23F003030433134442F8045BC3
:104088009342FBD106F003042CB1CAB21C4403F8D6
:10409800012B9C42FBD1F0BC704734461346002CE0
:1040A800F3D1F8E714460346C1E71A462646E0E787
:1040B800F0B5054689B008460C46012700F04EF8D1
:1040C80002262149AA6B059004AB38440494039056
:1040D800AC68079702960691019322B3636E13F0BA
:1040E800010FB4F90C309AB201D1980525D5910485
:1040F80006D4626E43F4005322F40052A381626630
:10410800284601AA214600F005F9636E002814BF6D
:104118004FF0FF350A25DA0702D4A3899B0506D597
:10412800284609B0F0BD284600F0A4F8D6E7A06DEF
:1041380000F090FA284609B0F0BDA06D00F088FAAA
:10414800B4F90C309AB2D2E744AC0008024B0146ED
:104158001868FFF7ADBF00BF1000002020F0030172
:1041680010F00300C0F1000051F8043B00F1040C0A
:104178004FEACC0C6FF000021CBF22FA0CF213437A
:104188004FF0010C4CEA0C2C4CEA0C4CA3EB0C0243
:1041980022EA030212EACC1204BF51F8043B0430AD
:1041A800F4D0C2F1000102EA0102B2FA82F2C2F1CD
:1041B8001F0200EBD200704730B56FF000449BB08F
:1041C800064D009104916946CDE90245059400F039
:1041D800EFFF0022009B1A701BB030BD0802FFFFE2
:1041E80030B40D46034C134601462A46206830BCBD
:1041F800FFF7E2BF10000020024B13B1024800F0A5
:1042080005B8704700000000F1420008002301468D
:104218001A46184602F0F2BD002310B50446C0E95C
:104228000033C0E904338181C28119468360436643
:10423800836108225C30FFF7EBFE07480749084A0C
:10424800084BC4E90740C4E90912E36204F15800C5
:10425800BDE8104000F0F8B92D5100085151000890
:1042680091510008B1510008014900F0C9B900BFD7
:10427800A17E000810B50446134800F0E9F9A26BC6
:10428800EAB90320114904F53B73C4F8E832C4E9DC
:10429800B820E16360680421FFF7BEFFA06801222F
:1042A8000921FFF7B9FFE06802221221FFF7B4FFE6
:1042B80001230548A363BDE8104000F0CBB90248CC
:1042C800BDE8104000F0C6B9900C0020714200080B
:1042D800014800F0BDB900BFA40C0020014800F05F
:1042E800B9B900BFA40C002038B5084B084D5B1BBA
:1042F8009C1007D0043B1D44013C55F804399847ED
:10430800002CF9D1BDE8384006F058BCC4B000080C
:10431800C0B000089368002B00F0BD802DE9F04F75
:104328009046B1F90C200C461107814683B093B230
:1043380027D522692AB313F00207D8F800502FD0E6
:104348004FF0000B5F46DFF8B4A2002F00F0898021
:1043580057453B465A4628BF53464846E169666A70
:10436800B047002840F38D80D8F8083083441B1AE2
:104378003F1AC8F80830002BE7D1002003B0BDE889
:10438800F08F2146484602F0D1FC002840F03281E7
:10439800B4F90C20D8F8005093B213F00207CFD12B
:1043A80013F0010A79D15646002E56D09A05A7680F
:1043B80040F1BD80B742BB4600F2D28013F4906F43
:1043C80000F0D080D4E90417226807EB4707A2EB76
:1043D800010B07EBD7770BF101007F103044B8428F
:1043E8003A4684BF07463A465B0540F1E7801146E6
:1043F800484600F031F9002800F0F6805A46216955
:104408000090FCF763FDA289009B22F4906242F0C1
:104418008002A281A7EB0B0203EB0B006761B34696
:10442800374623612060A2605A46514600F002FCDC
:10443800A2682368D21B374600265B44A26023602B
:10444800D8F80820BA44D71BC8F80870002F94D0B1
:10445800B4F90C309BB2002EA8D1D5E900A60835D6
:10446800A2E7D5E900B708356FE729465A4600F0B4
:10447800E1FB236821465B444846236003F00AFEBB
:1044880058B3B4F90C304FF0FF3043F04003A38128
:1044980003B0BDE8F08F002070473E46AA46384674
:1044A8003D4600976EB3002835D0009A20682169F0
:1044B800B24228BF32468842636904D9A16803EB37
:1044C800010B5A45D1DC93426BDC2A464846E16928
:1044D800676AB847B0F1000BD3DD009BB3EB0B0361
:1044E800009357D00120D8F808305D44A3EB0B03A4
:1044F800A6EB0B06C8F80830002B3FF43EAF002EA1
:10450800D1D10AF1080353F8046C9A4653F8085CB1
:104518000833002EF7D032460A21284600F04AFB1D
:1045280000285ED00130431B1A460093BEE720687E
:104538002369984218D86269B24215D86FF00043CF
:10454800B34228BF334693FBF2F3676A02FB03F3D7
:1045580048465246E169B847071E92DDF61B6FE7E9
:104568003746B34620685FE7B74228BF374651460B
:104578003A4600F05FFBA3682268DB1B3A44A3605D
:104588002260002BEAD12146484603F083FD00282B
:10459800E4D076E72146484603F07CFD0028A2D007
:1045A8006FE729469346019200F044FBA16823680F
:1045B800019A891A1A44A16022608EE7484600F0E1
:1045C800AFFB034600287FF425AF4846216903F076
:1045D800DFFD0C22B4F90C30C9F8002023F0800369
:1045E80051E7721C009261E70C22B4F90C30C9F84B
:1045F800002048E74FF0FF30C0E600BF00FCFF7F17
:104608002DE9F843074688464FF0000900F538764B
:10461800D6E90154013D10D4A389013D012B08D9E5
:10462800B4F90E30013304D021463846C04749EA70
:1046380000096B1C04F16804EED13668002EE7D13E
:104648004846BDE8F88300BF704700BF704700BF09
:10465800704700BF704700BF2DE9F04F01F10B050F
:10466800162D064683B024D8102900F2B68000F033
:104678004BFB102502201823DFF8E88443445C68CC
:10468800A3F10802944200F0B4806368E16823F063
:10469800030323445A68A56842F00102E9603046E2
:1046A8008D6008345A6000F035FB204603B0BDE841
:1046B800F08F35F0070500F19080A94200F28D8057
:1046C80000F022FBB5F5FC7FC0F085816B0A00F095
:1046D8008B80042B00F25B81AB0903F1390003F1F5
:1046E8003807C100DFF87C8441444C680839A1428E
:1046F80006D10CE0002A80F22281E468A14206D0AB
:10470800636823F003035A1B0F2AF3DD3846D8F8F1
:104718001040DFF854C4644577D0626822F0030281
:10472800531B0F2B00F36581002BC8E904CC80F2E2
:104738005681B2F5007F80F006810121D308520925
:104748000B4401FA02F2D8F8041058F8337008EB59
:10475800C30E0A43AEF10801C4E90271C8F8042087
:1047680048F83340FC60012183109940914253D8A6
:10477800114206D120F003004900114200F1040063
:10478800FAD008EBC0094C468646E768BC4207D118
:1047980009E1002B80F21081FF68BC4200F0038120
:1047A8007A6822F00302531B0F2BF2DD45F0010E4D
:1047B8003046D7E902413D4443F00106C7F804E01A
:1047C800E1608C60C8E90455C5E902CC6E60BB5055
:1047D80000F0A0FA07F1080402E00C23002433607B
:1047E800204603B0BDE8F08F4FF4007140203F270A
:1047F80078E7DC68A34208BF02307FF446AFD8F8F8
:104808001040DFF864C3644587D10121D8F804203B
:10481800831099409142ABD9D8F80840676827F0CF
:104828000307BD4202D87B1B0F2B77DCDFF83C93D4
:10483800C84BD9F800201B6801322B4404EB070A47
:1048480000F0248103F580530F3323F47F6B2BF0A2
:104858000F0B5946304600F053FC411C024600F04D
:10486800E180824500F2DC80BB4B19685944084658
:10487800196000F04181D9F80010019301311BBF84
:10488800A2EB0A0A5044C9F80020186012F0070A7F
:1048980000F00A81CAF108010A44CAF5805193441C
:1048A8000831A1EB0B01C1F30B09494630460092D0
:1048B80000F026FC421CDDE9002300F04381801A49
:1048C80000EB090B19684BF0010049444445C8F84E
:1048D80008201960506000F01C810F2F40F21B81E6
:1048E8004FF0050C60680C3F27F0070700F0010047
:1048F800384304EB070E0F2F6060CEE901CC00F2BD
:10490800378114465068954B1A688A4238BF196037
:10491800934B1A688A4238BF196086E045F0010255
:1049280043F00103254462603046C8F80850083453
:104938006B6000F0EFF9204603B0BDE8F08F234428
:104948005A68E168A7E6B2F5206F4FEA522361D3AF
:10495800142B00F2BA8003F15C01C9005B3308EB49
:10496800010758F80110083F8F4200F092804B6809
:1049780023F00303934202D989688F42F7D1CF68A5
:10498800D8F80420C4E90217BC60CC60EBE6142B0D
:1049980059D9542B00F2A1802B0B03F16F0003F1BE
:1049A8006E07C1009EE60EF1010E1EF0030F04F122
:1049B80008047FF4EAAE51E03C463A445368F9688B
:1049C80054F8085F43F0010353603046E9608D6096
:1049D80000F0A0F904E7E80805F108034CE62244D2
:1049E8005368304643F001035360083400F092F9ED
:1049F800F6E645F0010743F00101254467603046BB
:104A0800C8E90455C5E902CC6960A35000F082F9F1
:104A18000834E5E6930903F13901C90038339EE704
:104A2800444564D0D8F80840606820F0030B5D4521
:104A3800ABEB050302D80F2B3FF770AF304600F001
:104A480069F90024CCE603F15C0003F15B07C100BF
:104A580048E659F808394B4540F0A98010F0030F93
:104A680000F1FF30F5D1D8F8043023EA0103C8F883
:104A78000430490099423FF6CFAE19B9CCE6490057
:104A88000EF1040E1942FAD070467AE603F1100BC3
:104A9800DFE64FF0010E9A10D8F804300EFA02F251
:104AA8001A43C8F804206DE702EB0B014942C1F331
:104AB8000B0949463046009200F022FB431CDDE911
:104AC80000237FF4FCAED146FCE6542B26D8130B0A
:104AD80003F16F01C9006E3341E7B3F5AA7F26D809
:104AE800EB0B03F1780003F17707C100FAE51A4BE5
:104AF800186858441860BEE6CAF30B0CBCF1000FE6
:104B08007FF4B9AED8F80840BB444BF001006060B0
:104B1800F9E61446F7E6012353608FE7B3F5AA7F59
:104B280032D8D30B03F17801C900773317E740F285
:104B38005452934232D8AB0C03F17D0003F17C0749
:104B4800C100CFE5AAF1080AD3444FF00009ABEB46
:104B5800020BB7E6800C0020500C0020780C0020D7
:104B68007C0C0020440400204C0400204C08002049
:104B780004F108013046009303F00AFBD8F8084016
:104B8800009B60681968BEE640F254518B420AD80F
:104B9800930C03F17D01C9007C33E0E64FF47E718C
:104BA8007F207E279EE54FF47E717E23D7E6D8F8D6
:104BB80004305EE770B48407CDB212D00346541EA9
:104BC8002AB90BE09A0718460CD0013C06D31846C0
:104BD80013F8012BAA42F5D170BC7047002070BCB5
:104BE80070471446032C0DD8002CF7D00246031941
:104BF80001E09A42F2D0104612F8011BA942F8D1FE
:104C080070BC704706460A0292B22A4342EA024240
:104C1800336830465340A3F1013121EA030313F00E
:104C2800803F06F10406E1D1043C032C3046EFD85E
:104C3800DAE700BF8842F0B40DD98B1883420AD94D
:104C4800841832B1224613F8014D994202F8014DF9
:104C5800F9D1F0BC70470F2A0ED80346541E002A1B
:104C6800F7D001340C44013B11F8012BA14203F8A1
:104C7800012FF9D1F0BC704740EA01039B073ED1F0
:104C8800A2F1100323F00F0401F1200727441B09A8
:104C980001F1100400F1100554F8106C103445F8B7
:104CA800106C54F81C6C103545F81C6C54F8186CD2
:104CB80045F8186C54F8146CBC4245F8146CEBD1E8
:104CC800013312F00C0F01EB031102F00F0400EB9B
:104CD800031317D00E46043C24F0030CA5089C448B
:104CE8001C1F56F8047B44F8047F6445F9D16C1CFA
:104CF80003EB840301EB840102F00302AEE70346F1
:104D0800541EAEE72246A9E70148FFF7A1BC00BF41
:104D1800940C00200148FFF79DBC00BF940C0020B4
:104D28002DE9F84F1646002900F0BD8006F10B0565
:104D38000C468046FFF7E8FF162D5FD810252A4657
:104D4800AE4260D854F8041CA4F1080921F0030706
:104D5800974280F28680C94B09EB0700D3F808C058
:104D6800844500F0B980D0F804C02CF00103034456
:104D78005B68DB0700F18C802CF0030C07EB0C035D
:104D8800934280F21581CB070FD454F8083CA9EB65
:104D9800030ADAF8043023F003018C44BC44944538
:104DA80038DA7B18934280F20F8131464046FFF78C
:104DB80053FC0646E0B154F8043CA0F1080223F085
:104DC80001034B44934200F0F9803A1F242A00F271
:104DD8001C81132A00F2CD8003462246116819600F
:104DE8005168596092689A602146404603F0D0F9AC
:104DF8004046FFF78FFF3046BDE8F88F25F00705DE
:104E0800002D2A469CDA0C230026C8F800303046CC
:104E1800BDE8F88F5646D0E90213CB60996056F882
:104E2800081FDAF80C303A1F242ACB60996000F288
:104E38000781132A40F2028123681B2ACAF8083026
:104E48006368CAF80C3000F21B8108340AF11003B9
:104E5800226867461A606268D1465A60A26834467A
:104E68009A607B1B0F2BD9F8042021D802F001028D
:104E78003A4309EB0701C9F804204B6843F00103E2
:104E88004B6026464046FFF745FF3046BDE8F88FA1
:104E9800C9078AD454F8083CA9EB030ADAF80410C5
:104EA80021F003017DE71146BDE8F84FFFF7D4BBB9
:104EB80002F0010209EB050143F001032A43C9F896
:104EC80004204F444B607B68404643F0010308319F
:104ED8007B6003F05DF9D4E7DCF804B005F110005D
:104EE8002BF0030B07EB0B0C84454DDAC9073FF594
:104EF8005CAF54F8081CA9EB010ADAF8041021F099
:104F080003018B44BB4458453FF74BAF5646DAF88C
:104F18000C1056F8080F3A1F242AC160886000F266
:104F2800BD80132A40F2B88021681B2ACAF80810ED
:104F38006168CAF80C1000F2C18008340AF1100246
:104F48002168116061685160A1689160ABEB05024E
:104F58000AEB050142F0010299604A60DAF8043070
:104F6800404603F001031D43CAF80450FFF7D2FE80
:104F78004DE723681B2A03606368436049D804F13E
:104F8800080200F1080329E7ACEB050209EB05016B
:104F980042F0010299604A6054F8043C404603F02C
:104FA80001031D4344F8045CFFF7B4FE26462EE7D0
:104FB800D0E902121F46CA60916052E750F8043CDB
:104FC80023F003031F444CE75646DAF80C1056F852
:104FD800080F3A1F242AC160886027D8132A23D9CA
:104FE80021681B2ACAF808106168CAF80C102FD863
:104FF80008340AF1100221681F4611606368D1461F
:105008005360A368344693602BE72146FFF712FEEE
:10501800EAE6A368242A8360E368C36024D004F125
:10502800100200F11003D9E63246E4E72146304683
:105038001F46D146FFF7FEFD344612E7334607E721
:10504800214630466746D146FFF7F4FD344608E767
:10505800A168242ACAF81010E168CAF8141023D0ED
:1050680010340AF11802C6E7236904F11802036133
:10507800616900F118034161B0E600BF44040020F3
:10508800A368242ACAF81030E368CAF8143021D07B
:1050980010340AF11803DBE6324651E72146304660
:1050A800FFF7C8FD154B51E721690AF12002CAF83C
:1050B800181061691834CAF81C109CE7A168242AE2
:1050C800CAF81010E168CAF814100DD010340AF1AB
:1050D800180235E722690AF12003CAF81820626924
:1050E8001834CAF81C20B3E621690AF12002CAF86C
:1050F800181061691834CAF81C1021E7440400200C
:10510800002238B5064D044608462A60FCF7EEFA38
:10511800431C00D038BD2B68002BFBD0236038BD62
:10512800A80C002010B50C46B1F90E1003F044FD90
:10513800002803DB236D0344236510BDA38923F4F2
:105148008053A38110BD00BF2DE9F0410C46B1F991
:105158000C101F46CB05164605460BD421F480518A
:10516800A1813B4632462846B4F90E10BDE8F0410D
:1051780001F0C6BDB4F90E100223002203F012F9A3
:10518800B4F90C10EAE700BF10B50C46B1F90E10DF
:1051980003F008F9A389421C0EBF23F4805343F49B
:1051A80080532065A38110BDB1F90E1001F06CBECB
:1051B8002DE9F04FD7B08B4617460E93814603F082
:1051C800EDF8036818461893FEF7C8FFBBF80C30D3
:1051D80017901D0604D5DBF81030002B00F0DF8790
:1051E800002300210022CDE92B33CDE91A33CDE984
:1051F8001C33139319930A932DAB98462A933B7843
:10520800DA46CDE91412002B00F0A4813C4604E0F4
:1052180014F8013F002B00F0FD80252BF8D1E51B89
:1052280040F0FB802378002B00F0948100230B933F
:105238008DF88B3007934FF0FF33667804F1010B3C
:1052480020212B2409930BF1010BA6F120035A2BE3
:1052580000F2FF80DFE813F0BC02FD00FD00B5029C
:10526800FD00FD00FD009102FD00FD006A00E7025F
:10527800FD003402CD02FD00C6025B005B005B004E
:105288005B005B005B005B005B005B00FD00FD00FA
:10529800FD00FD00FD00FD00FD009001FD00F7018F
:1052A8007C00900190019001FD00FD00FD00FD00D3
:1052B8008A02FD00FD00A900FD00FD00FD000B02B3
:1052C800FD003B02FD00FD008107FD00FD00FD0023
:1052D800FD00FD00FD00FD00FD009001FD00F7014F
:1052E8008000900190019001800280007500FD000F
:1052F8007602FD005E02AD004C027500FD000B0257
:1053080072005B07FD00FD005F07FD0072000022D0
:10531800A6F130031BF8016B02EB820203EB420299
:10532800A6F13003092BF5D90B928EE70E9B53F8A3
:10533800042B002A0B920E93C0F2BF819BF80060E9
:1053480081E7079B9BF8006043F0200307937AE707
:10535800079B43F010030793079B9C0640F162816B
:105368000E9B073323F007031946F1E8022314467E
:105378001D460E91002A73F10003C0F2AB85099B0C
:105388000133079B00F0148423F0800354EA0502DC
:10539800089340F00E84099A002A40F00F8407937E
:1053A800002356AF09930C936BE2079B43F010035D
:1053B8000793079B9A0640F126810E9B073323F03B
:1053C8000703F3E802450E93079B23F480630893D1
:1053D800002300228DF88B20099A1146013100F034
:1053E8003182089921F08001079154EA050140F0C3
:1053F8002782002A40F07D83002BD1D1089B13F02F
:1054080001030C9300F0908530230DF257178DF8A7
:10541800573136E2E51B00F09D80DDE92B32013380
:105428002A44072BC8E90075CDE92B3206DC08F1C0
:1054380008080A9A23782A440A92F4E6514648460C
:105448002AAA03F03BFC002841F0CE830DF1B408F2
:10545800EFE7002E7ED0002301211A4608918DF82F
:10546800F4608DF88B300D93099312931693109373
:105478000C913DAF079B13F0020302D0089902314B
:105488000891079911F084010F9105D10B9908989B
:105498000D1A002D00F34B832C9C72B101202B9A1E
:1054A800044402440DF18B01072ACDE92B24C8E9F5
:1054B800001000F3CD8308F108086BB102212B9B83
:1054C8000C44013323AA072BCDE92B34C8E900216A
:1054D80000F3CC8308F108080F9B802B00F034827E
:1054E800099B0C9A9D1A002D00F36E82079BD90523
:1054F80000F1D5812B9B0C9A01331444072BC8E982
:1055080000722C942B9300F3978308F10808079BEB
:10551800590705D50B9B089A9D1A002D00F3B283F5
:10552800DDE90A3208998A42ACBF9B185B180A93D6
:10553800002C40F07D8200232B930D9B1BB1484625
:105548000D9902F025FE5F460DF1B4083B78002B5B
:105558007FF45CAE2C9BD346002B41F04B82BBF80A
:105568000C3013F0400F0A9B18BF4FF0FF330A931B
:105578000A9857B0BDE8F08F0E9B073323F0070356
:105588001946F1E80223CDE91423DDE9143424F0A7
:1055980000441D4618460E914FF0FF322146A44B99
:1055A800FBF792FD002840F0D984284621464FF0A9
:1055B800FF329F4BFBF76AFD002840F0CF84DDE9FE
:1055C800140100220023FBF757FD002841F00E804C
:1055D8009DF88B2003200021964F974B08900D9142
:1055E800472EC8BF1F46079C0C9024F080040794E0
:1055F8000991129116911091002A3FF43BAF089B34
:105608000133089336E7079BDB0600F19C84079B70
:105618005F0640F1B2870E9B002553F8044B0E93AA
:10562800A4B2D1E6079BD80600F16885079B590606
:1056380040F1BE870E9B53F8044B24B2E5170E9336
:1056480022462B4696E6002101240E9B0A4653F873
:10565800040B0894CDE90D138DF88B108DF8F40028
:1056680009911291169110910C943DAF02E7002513
:105678000E9C8DF88B5054F8047B002F00F09F850A
:10568800099A1346013300F0708729463846FFF718
:1056980091FA0D90002801F0B9802B460D9A0995D2
:1056A800D21B0C9222EAE27208920E949DF88B208B
:1056B8000D931293169310939EE70B9B5B420B93EB
:1056C800079B9BF8006043F004030793BBE5079B27
:1056D80043F010030893089B9D0640F1EA830E9B54
:1056E800073323F00703F3E802450E93012370E61E
:1056F80047F630020E9B079953F8044B41F002011C
:105708000E934E4B00251993782602230891ADF885
:105718008C205EE6079B9D0600F10884079BDC064B
:1057280000F1E186079B580600F19587079B9905CC
:1057380040F1D9860E9B0A9953F8042B5F461170E5
:105748000E9303E79BF80060079B6C2E00F008851A
:1057580043F01003079376E59BF80060079B682EDB
:1057680000F0078543F0400307936CE5079B9BF81F
:10577800006043F00803079365E5484602F00EFE13
:10578800436818461C93FEF7E9FC034648461D4645
:105798001D9302F003FE826820211A92002D3FF427
:1057A800CDAD1A9B002B3FF4C9AD1A9B1B78002B7B
:1057B8003FF4C4AD079B9BF8006043F480630793F4
:1057C80041E5079B9BF8006043F0010307933AE526
:1057D8009DF88B30002B7FF4B1AD9BF800608DF8FD
:1057E8008B1030E5079B9BF8006043F0800307931C
:1057F80029E55A4612F8016B2A2E01F05182A6F1CA
:105808003003092B934698BF002201F2EF801BF862
:10581800016B02EB820203EB4202A6F13003092B73
:10582800F5D9099211E59BF800608DF88B400AE5DF
:10583800FFFFEF7F48AC00084CAC000858AC0008EC
:10584800079A0892012B00F0B481022B00F05981CD
:1058580056AFE20842EA4572E90804F007030D462C
:105868001446303354EA05013A4607F8013DF0D1B1
:1058780008990846C00700F1B88256ABDB1B0791B0
:105888000C93002309990D931293169310930C9B74
:105898009DF88B208B42B8BF0B460893ACE6652E6B
:1058A80040F3D880DDE9140100220023FBF7DAFB7E
:1058B800002800F01E8201212B9BC54A0B440C4492
:1058C800072BCDE92B34C8E9002100F3BB8508F18B
:1058D8000808249B139A934280F221832B9B179AE2
:1058E800013318991444072BC8E900122C942B9300
:1058F80000F3488408F10808139B5D1E002D7FF70C
:1059080006AE102D40F3C785B24F10262B9B0F977C
:1059180005E008F10808103D102D40F3BF8501335C
:105928001034072BCDE92B34C8E90076F1DD514658
:1059380048462AAA03F0C2F9002840F08180DDE930
:105948002B340DF1B408E6E70B9B089A9D1A002D3D
:105958007FF7C6AD102D41F369809E48214610237C
:1059680004462B9A0F9004E0103D102D08F108080A
:1059780017DD01321031072ACDE92B21C8E9004390
:10598800F2DD514648462AAA03F098F9002857D173
:10599800DDE92B21103D102D4FF010030DF1B40857
:1059A800E7DC0C4601320F9B2C44072ACDE92B2457
:1059B800C8E9003500F38A85099B0C9A08F10808A4
:1059C8009D1A002D7FF792AD102D40F30A8681486D
:1059D8002146102304462B9A0F9004E0103D102D09
:1059E80008F1080816DD01321031072ACDE92B210C
:1059F800C8E90043F2DD514648462AAA03F05EF999
:105A0800F0B9DDE92B21103D102D4FF010030DF1F9
:105A1800B408E8DC0C4601320F9B2C44072ACDE978
:105A28002B24C8E9003500F3378208F108085DE542
:105A3800514648462AAA03F041F900283FF47BADB5
:105A4800D3460D9B002B3FF48AAD48460D9902F0D2
:105A58009FFB84E5139B012B40F3D58101232B9DEC
:105A68001C441D44072D2C94C8F800702B95C8F8C9
:105A7800043000F33A8208F10808179B0135189A98
:105A88001C44072DCDE92B54C8E9002300F33A82C2
:105A980008F108080023DDE914010022FBF7E2FA07
:105AA800139B002840F0CD81013B013501371C4490
:105AB800072DCDE92B54C8F80070C8F8043000F35E
:105AC800DC8408F108081B9A0135144426AB072D1D
