:020000040800F2
:1000000000000120952800081F1100082111000898
:100010002311000825110008271100080000000026
:10002000000000000000000000000000291100088E
:100030002B110008000000002D1100082F110008EE
:1000400037110008DD280008DD280008DD28000839
:10005000DD280008DD280008DD280008DD2800086C
:10006000DD280008DD280008DD280008DD2800085C
:10007000DD280008DD280008391100083B110008C0
:10008000DD280008DD280008DD280008DD2800083C
:10009000DD280008DD280008DD280008DD2800082C
:1000A000DD280008DD280008DD280008DD2800081C
:1000B0003D110008DD280008DD280008DD280008C3
:1000C000DD280008DD280008DD280008DD280008FC
:1000D000DD2800083F110008DD280008DD280008A1
:1000E00041110008DD280008DD280008DD2800088F
:1000F000DD280008DD280008DD280008DD280008CC
:10010000DD280008DD280008DD280008DD280008BB
:10011000DD280008DD280008DD280008DD280008AB
:10012000DD280008DD280008DD280008DD2800089B
:1001300000000000000000000000000000000000BF
:1001400000000000000000000000000000000000AF
:10015000000000000000000000000000000000009F
:10016000000000000000000000000000000000008F
:10017000000000000000000000000000000000007F
:10018000000000000000000000000000000000006F
:10019000000000000000000000000000000000005F
:1001A000000000000000000000000000000000004F
:1001B000000000000000000000000000000000003F
:1001C000000000000000000000000000000000002F
:1001D000000000000000000000000000000000001F
:0401E0005FF8E0F1F3
:1001E80010B5054C237833B9044B13B10448AFF369
:1001F80000800123237010BDB80900200000000012
:100208005888000808B5034B1BB103490348AFF3EE
:10021800008008BD00000000BC09002058880008C4
:1002280081F0004102E000BF83F0004330B54FEA9F
:1002380041044FEA430594EA050F08BF90EA020F0C
:100248001FBF54EA000C55EA020C7FEA645C7FEA9F
:10025800655C00F0E2804FEA5454D4EB5555B8BFC2
:100268006D420CDD2C4480EA020281EA030382EA33
:10027800000083EA010180EA020281EA0303362DC5
:1002880088BF30BD11F0004F4FEA01314FF4801C98
:100298004CEA113102D0404261EB410113F0004FAA
:1002A8004FEA03334CEA133302D0524263EB430361
:1002B80094EA050F00F0A780A4F10104D5F1200EFF
:1002C8000DDB02FA0EFC22FA05F2801841F100015A
:1002D80003FA0EF2801843FA05F359410EE0A5F12E
:1002E80020050EF1200E012A03FA0EFC28BF4CF05F
:1002F800020C43FA05F3C01851EBE37101F0004515
:1003080007D54FF0000EDCF1000C7EEB00006EEB21
:100318000101B1F5801F1BD3B1F5001F0CD34908AB
:100328005FEA30004FEA3C0C04F101044FEA445202
:1003380012F5800F80F09A80BCF1004F08BF5FEA89
:10034800500C50F1000041EB045141EA050130BD69
:100358005FEA4C0C404141EB0101013C28BFB1F57B
:10036800801FE9D291F0000F04BF01460020B1FAC6
:1003780081F308BF2033A3F10B03B3F120020CDA99
:100388000C3208DD02F1140CC2F10C0201FA0CF077
:1003980021FA02F10CE002F11402D8BFC2F1200CDC
:1003A80001FA02F120FA0CFCDCBF41EA0C01904092
:1003B800E41AA2BF01EB0451294330BD6FEA0404DB
:1003C8001F3C1CDA0C340EDC04F11404C4F12002C6
:1003D80020FA04F001FA02F340EA030021FA04F3D8
:1003E80045EA030130BDC4F10C04C4F1200220FA2F
:1003F80002F001FA04F340EA0300294630BD21FA6D
:1004080004F0294630BD94F0000F83F4801306BF32
:1004180081F480110134013D4EE77FEA645C18BF26
:100428007FEA655C29D094EA050F08BF90EA020FBD
:1004380005D054EA000C04BF1946104630BD91EAB5
:10044800030F1EBF0021002030BD5FEA545C05D1B8
:100458004000494128BF41F0004130BD14F58004F7
:100468003CBF01F5801130BD01F0004545F0FE416B
:1004780041F470014FF0000030BD7FEA645C1ABFA0
:10048800194610467FEA655C1CBF0B46024650EAD7
:10049800013406BF52EA033591EA030F41F4002103
:1004A80030BD00BF90F0000F04BF0021704730B589
:1004B8004FF4806404F132044FF000054FF000015E
:1004C80050E700BF90F0000F04BF0021704730B51F
:1004D8004FF4806404F1320410F0004548BF4042F4
:1004E8004FF000013EE700BF42004FEAE2014FEA49
:1004F80031014FEA02701FBF12F07F4393F07F4F24
:1005080081F06051704732F07F4208BF704793F026
:100518007F4F04BF41F40021704730B54FF4607439
:1005280001F0004521F000411CE700BF50EA01023C
:1005380008BF704730B54FF000050AE050EA0102E5
:1005480008BF704730B511F0004502D5404261EB55
:1005580041014FF4806404F132045FEA915C3FF496
:10056800D8AE4FF003025FEADC0C18BF03325FEA33
:10057800DC0C18BF033202EBDC02C2F1200300FAE4
:1005880003FC20FA02F001FA03FE40EA0E0021FA09
:1005980002F11444BDE600BF4FEA4102B2F1E04364
:1005A80024BFB3F5001CDCF1FE5C0DD901F0004C52
:1005B8004FEAC0024CEA5070B2F1004F40EB8300A2
:1005C80008BF20F00100704711F0804F21D113F1CE
:1005D8003872BCBF01F00040704741F480114FEA07
:1005E8005252C2F11802C2F1200C10FA0CF320FA90
:1005F80002F018BF40F001004FEAC1234FEAD323AD
:1006080003FA0CFC40EA0C0023FA02F34FEA430316
:10061800CCE77FEA625307D150EA01331EBF4FF09F
:10062800FE4040F44000704701F0004040F0FE40BA
:1006380040F40000704700BF844641EA000313F00D
:10064800030349D1403A23D30B6803604B684360E6
:100658008B688360CB68C3600B6903614B69436136
:100668008B698361CB69C3610B6A03624B6A43621E
:100678008B6A8362CB6AC3620B6B03634B6B436306
:100688008B6B8363CB6BC36340304031403ADBD222
:1006980030320BD30B6803604B6843608B68836010
:1006A800CB68C36010301031103AF3D20C3205D346
:1006B80051F8043B40F8043B043AF9D2043208D01C
:1006C800D2071CBF11F8013B00F8013B01D30B888E
:1006D80003806046704700BF082A13D38B07B1D048
:1006E80010F00303AED0C3F10403D21ADB071CBF1A
:1006F80011F8013B00F8013BA4D331F8023B20F884
:10070800023B9FE7043AD9D3013A11F8013B00F8BC
:10071800013BF9D20B7803704B7843708B78837068
:100728006046704770B54FF0FF0C4CF4E06C1CEA63
:1007380011541DBF1CEA135594EA0C0F95EA0C0FCF
:1007480000F0DEF82C4481EA030621EA4C5123EA42
:100758004C5350EA013518BF52EA033541F4801171
:1007680043F4801338D0A0FB02CE4FF00005E1FB24
:1007780002E506F00042E0FB03E54FF00006E1FB6E
:1007880003569CF0000F18BF4EF0010EA4F1FF04B1
:10079800B6F5007F64F5407404D25FEA4E0E6D41F1
:1007A80046EB060642EAC62141EA55514FEAC52002
:1007B80040EA5E504FEACE2EB4F1FD0C88BFBCF57E
:1007C800E06F1ED8BEF1004F08BF5FEA500E50F12F
:1007D800000041EB045170BD06F0004646EA0101F5
:1007E80040EA020081EA0301B4EB5C04C2BFD4EB27
:1007F8000C0541EA045170BD41F480114FF0000E20
:10080800013C00F3AB8014F1360FDEBF002001F08D
:10081800004170BDC4F10004203C35DA0C341BDC07
:1008280004F11404C4F1200500FA05F320FA04F0D9
:1008380001FA05F240EA020001F0004221F000410D
:1008480010EBD37021FA04F642EB06015EEA430E80
:1008580008BF20EAD37070BDC4F10C04C4F12005B0
:1008680000FA04F320FA05F001FA04F240EA020063
:1008780001F0004110EBD37041F100015EEA430E34
:1008880008BF20EAD37070BDC4F1200500FA05F254
:100898004EEA020E20FA04F301FA05F243EA0203D3
:1008A80021FA04F001F0004121FA04F220EA0200E2
:1008B80000EBD3705EEA430E08BF20EAD37070BD28
:1008C80094F0000F0FD101F00046400041EB010108
:1008D80011F4801F08BF013CF7D041EA060195F0EA
:1008E800000F18BF704703F00046520043EB0303A4
:1008F80013F4801F08BF013DF7D043EA0603704791
:1009080094EA0C0F0CEA135518BF95EA0C0F0CD09B
:1009180050EA410618BF52EA4306D1D181EA0301E1
:1009280001F000414FF0000070BD50EA410606BFDB
:100938001046194652EA430619D094EA0C0F02D120
:1009480050EA013613D195EA0C0F05D152EA033665
:100958001CBF104619460AD181EA030101F0004183
:1009680041F0FE4141F470014FF0000070BD41F0CC
:10097800FE4141F4780170BD70B54FF0FF0C4CF4A6
:10098800E06C1CEA11541DBF1CEA135594EA0C0FC5
:1009980095EA0C0F00F0A7F8A4EB050481EA030E12
:1009A80052EA03354FEA013100F088804FEA0333F9
:1009B8004FF0805545EA131343EA12634FEA0222C7
:1009C80045EA111545EA10654FEA00260EF0004188
:1009D8009D4208BF964244F1FD0404F5407402D2DA
:1009E8005B084FEA3202B61A65EB03055B084FEA6B
:1009F80032024FF480104FF4002CB6EB020E75EB68
:100A0800030E22BFB61A754640EA0C005B084FEA8F
:100A18003202B6EB020E75EB030E22BFB61A75460C
:100A280040EA5C005B084FEA3202B6EB020E75EB57
:100A3800030E22BFB61A754640EA9C005B084FEACF
:100A48003202B6EB020E75EB030E22BFB61A7546DC
:100A580040EADC0055EA060E18D04FEA051545EACB
:100A680016754FEA06164FEAC30343EA52734FEA74
:100A7800C2025FEA1C1CC0D111F4801F0BD141EAED
:100A880000014FF000004FF0004CB6E711F4801F52
:100A980004BF01430020B4F1FD0C88BFBCF5E06F32
:100AA8003FF6AFAEB5EB030C04BFB6EB020C5FEA42
:100AB800500C50F1000041EB045170BD0EF0004E97
:100AC8004EEA113114EB5C04C2BFD4EB0C0541EAC9
:100AD800045170BD41F480114FF0000E013C90E6C6
:100AE80045EA060E8DE60CEA135594EA0C0F08BF8A
:100AF80095EA0C0F3FF43BAF94EA0C0F0AD150EA89
:100B080001347FF434AF95EA0C0F7FF425AF10461B
:100B180019462CE795EA0C0F06D152EA03353FF443
:100B2800FDAE1046194622E750EA410618BF52EAC0
:100B380043067FF4C5AE50EA41047FF40DAF52EA94
:100B480043057FF4EBAE12E74FF0FF3C06E000BF31
:100B58004FF0010C02E000BF4FF0010C4DF804CD3E
:100B68004FEA410C7FEA6C5C4FEA430C18BF7FEAFE
:100B78006C5C1BD001B050EA410C0CBF52EA430C2C
:100B880091EA030F02BF90EA020F0020704710F1AC
:100B9800000F91EA030F58BF994208BF90422CBF3B
:100BA800D8176FEAE37040F0010070474FEA410C34
:100BB8007FEA6C5C02D150EA013C07D14FEA430C52
:100BC8007FEA6C5CD6D152EA033CD3D05DF8040BC3
:100BD800704700BF8446104662468C4619466346F5
:100BE80000E000BF01B5FFF7B7FF002848BF10F1CC
:100BF800000F01BD4DF808EDFFF7F4FF0CBF012011
:100C080000205DF808FB00BF4DF808EDFFF7EAFF8C
:100C180034BF012000205DF808FB00BF4DF808ED47
:100C2800FFF7E0FF94BF012000205DF808FB00BF3C
:100C38004DF808EDFFF7CEFF94BF012000205DF8C6
:100C480008FB00BF4DF808EDFFF7C4FF34BF0120D3
:100C580000205DF808FB00BF4FEA410C7FEA6C5C9E
:100C680002D150EA013C0AD14FEA430C7FEA6C5C9E
:100C780002D152EA033C02D14FF0000070474FF016
:100C8800010070474FEA410212F5001215D211D542
:100C98006FF47873B3EB625212D94FEAC12343F071
:100CA800004343EA505311F0004F23FA02F018BFF3
:100CB800404270474FF00000704750EA013005D1BC
:100CC80011F0004008BF6FF0004070474FF000007F
:100CD800704700BF53B94AB9002908BF00281CBF94
:100CE8004FF0FF314FF0FF3000F06EB9ADF1080C56
:100CF8006DE904CE00F006F8DDF804E0DDE9022332
:100D080004B070472DE9F047089E0D4604468E460C
:100D1800002B40F083808A42174647D9B2FA82F303
:100D28004BB1C3F1200105FA03FE20FA01F19F40FF
:100D380041EA0E0E9C404FEA1748BEFBF8FC1FFA2A
:100D480087F908FB1CE20CFB09F0210C41EA02427E
:100D580090420AD9BA180CF1FF3180F018819042FC
:100D680040F21581ACF1020C3A44121AB2FBF8F0C9
:100D780008FB102200FB09F1A4B244EA0244A14294
:100D880009D93C1900F1FF3280F00381A14240F2F9
:100D9800008102383C44641A002140EA0C401EB12C
:100DA8000022DC40C6E90042BDE8F08702B9FFDE58
:100DB800B2FA82F3002B4FD18D1A01214FEA124E5D
:100DC8001FFA82F8B5FBFEFC0EFB1C5508FB0CF065
:100DD800220C42EA0545A84207D97D190CF1FF32D9
:100DE80002D2A84200F2E98094462D1AB5FBFEF023
:100DF8000EFB105508FB00F8A4B244EA0544A045D0
:100E080007D93C1900F1FF3202D2A04500F2D9807F
:100E18001046A4EB080440EA0C40C0E78B4208D90E
:100E2800002E00F0B1800021C6E900050846BDE8A3
:100E3800F087B3FA83F100294BD1AB4202D3824247
:100E480000F2B980841A65EB030301209E46002E48
:100E5800AAD0C6E9004EA7E79F40C3F12002D140BF
:100E68004FEA174EB1FBFEF01FFA87F80EFB101180
:100E780024FA02F29D4000FB08FC2A43150C45EABF
:100E88000145AC4504FA03F409D97D1900F1FF3195
:100E980080F08F80AC4540F28C8002383D44A5EB51
:100EA8000C05B5FBFEF10EFB115C01FB08F995B2D0
:100EB80045EA0C45A94507D97D1901F1FF3274D2DD
:100EC800A94572D902393D44A5EB090541EA00411B
:100ED80078E7C1F120078B4022FA07FC4CEA030CA3
:100EE80025FA07F44FEA1C4EB4FBFEF91FFA8CF8FA
:100EF8000EFB194420FA07F309FB08FA8D401D433D
:100F08002B0C43EA0444A24502FA01F200FA01F369
:100F180009D91CEB040409F1FF3048D2A24546D98F
:100F2800A9F102096444A4EB0A04B4FBFEF00EFB29
:100F3800104400FB08FAADB245EA0444A24508D9BA
:100F48001CEB040400F1FF352DD2A2452BD9023841
:100F5800644440EA0940A0FB0289A4EB0A044C451A
:100F6800C6464D4619D316D05EB1B3EB0E0264EBFC
:100F7800050404FA07F722FA01F31F43CC40C6E937
:100F880000740021BDE8F087314630460CE78C46F6
:100F9800EBE61046FFE64345E6D2B8EB020E69EBF6
:100FA8000C050138E0E72846D3E711468CE781466F
:100FB800B9E7084673E7084649E7ACF1020C3D4437
:100FC80013E702383C4424E7704700BF30B597B0B8
:100FD80000240F9411940794089409940A940B948C
:100FE80001940294039404940594069409230C93A1
:100FF8004FF480330D930E94012210921292022521
:10100800139514934FF4E01315930CA800F01EFEEB
:101018000F230793089509944FF480630A930B9460
:10102800294607A801F050F801954FF400430393AF
:1010380001A801F025F917B030BD000008B500F08F
:10104800FDF8FFF7C3FF01F045FB01F0C9FB01F014
:101058007BFBFFF749FA02460B46044801F09EFB6A
:101068004FF4FA7000F00EF9F1E700BF708800083D
:1010780082B00E4B9A6942F001029A619A6902F0B5
:1010880001020092009ADA6942F08052DA61DB6963
:1010980003F080530193019B054A536823F0E063F2
:1010A80043F00073536002B0704700BF0010024065
:1010B8000000014000B587B0002302930393049316
:1010C80005930268114B9A4202D007B05DF804FB01
:1010D80003F56C439A6942F400729A619A6902F4C2
:1010E80000720092009A9A6942F010029A619B6914
:1010F80003F010030193019B01230293032303933D
:1011080002A9034800F070FCDFE700BF002401409B
:101118000010014070477047FEE7FEE7FEE7FEE774
:1011280070477047704708B500F09AF808BD7047D7
:10113800704770477047704770470120704708B57F
:1011480001F0CAFB162303604FF0FF3008BD08B555
:101158004FF0FF31FFF7F3FFFEE770B50C46164678
:101168000025B54207DAAFF30080214601F8010BEC
:1011780001350C46F5E7304670BD70B50C4616468D
:101188000025B54205DA14F8010BAFF300800135EC
:10119800F7E7304670BD000008B503460B4A1268F1
:1011A80042B10A4A106803446A46934206D8074A7D
:1011B800136008BD054A06491160F2E701F08CFB8F
:1011C8000C2303604FF0FF30F3E700BFD409002081
:1011D800A80A00204FF0FF3070474FF400534B60CF
:1011E80000207047012070470020704770470000BA
:1011F80010B504460E4B18784FF47A73B3FBF0F32E
:101208000C4A1068B0FBF3F000F0D8FB68B90F2C5B
:1012180001D901200AE0002221464FF0FF3000F0FA
:101228008BFB054B1C60002000E0012010BD00BFB7
:1012380004000020000000200800002008B5074A2C
:10124800136843F010031360032000F063FB0020D1
:10125800FFF7CEFFFFF70CFF002008BD002002407B
:10126800034A1168034B1B780B441360704700BF97
:10127800D809002004000020014B1868704700BFFF
:10128800D809002038B50446FFF7F6FF0546B4F143
:10129800FF3F02D0044B1B781C44FFF7EDFF401BB7
:1012A800A042FAD338BD00BF04000020F0B583B0D7
:1012B80005460C4600230193FFF7DEFF2B689A686A
:1012C80012F4807F23D107465A6812F4807F03D135
:1012D800DB6A13F4700F24D04A4B1E68022001F019
:1012E80059F8B6FBF0F02B681969474A11422FD11B
:1012F800D96802F15C4211422AD11969434A114264
:1013080039D1DA68424B1A4237D029263AE0AB6A1B
:1013180043F02003AB62002385F82430012003B09A
:10132800F0BD2B681B6813F0020F48D1B4F1FF3FE2
:10133800F7D024B1FFF7A0FFC01BA042F1D9AB6AD8
:1013480043F00403AB62002385F824300320E6E76A
:1013580019692E4A114204D1D96802F16E4211422C
:101368000DD019692B4A0A405AB9DA68294B13403B
:101378005BB1FC2606E0292604E0142602E0542688
:1013880000E0FC2606FB00F604E05426FAE7019B81
:1013980001330193019BB34211D2B4F1FF3FF6D060
:1013A80024B1FFF769FFC31BA342F0D9AB6A43F02E
:1013B8000403AB62002385F824300320AFE72B68D1
:1013C8006FF012021A60AB6A43F40073AB622B68C9
:1013D8009B6803F46023B3F5602F01D000209EE7DB
:1013E800287B60B9AB6A23F48073AB62AB6A13F4F1
:1013F800805F94D1AB6A43F00103AB628FE70020B2
:101408008DE700BF0000002024499224922449124D
:1014180092244900499224000368D86C7047000060
:1014280030B482B00022019290F82420012A00F002
:101438008B800346012280F824204A68062A29D88E
:101448000568686B02EB8202053A1F24944020EA83
:1014580004000C6804FA02F202436A630A68092A63
:1014680038D91D68E86802EB42021E3A0724944006
:1014780020EA04008C6804FA02F20243EA600A686F
:10148800103A012A34D90020002283F8242002B01F
:1014980030BC70470C2A0ED80568286B02EB820214
:1014A800233A1F24944020EA04000C6804FA02F24C
:1014B80002432A63D2E70568E86A02EB8202413AEE
:1014C8001F24944020EA04000C6804FA02F2024344
:1014D800EA62C3E71D68286902EB420207249440C8
:1014E80020EA04008C6804FA02F202432A61C6E783
:1014F8001A681648824205D09A6A42F020029A6217
:101508000120C1E7906810F4000F1BD1906840F4E7
:10151800000090600A68102A01D00020B4E70C4A45
:1015280012680C49A1FB0212920C02EB82025200D3
:10153800019202E0019A013A0192019A002AF9D136
:101548000020A1E700209FE70220A0E70024014037
:101558000000002083DE1B4330B583B000230193D5
:1015680003689A6812F0010F2DD104469A6842F078
:1015780001029A60154B1B68154AA2FB03239B0CBA
:101588000193019B1BB1019B013B0193F9E7FFF715
:1015980073FE054623689B6813F0010F11D1FFF70E
:1015A8006BFE431B022BF5D9A36A43F01003A36219
:1015B800E36A43F00103E362002384F82430012046
:1015C80002E0002000E0002003B030BD0000002051
:1015D80083DE1B4390F82430012B68D010B50446F5
:1015E800012380F82430FFF7B7FF00285BD1A36AF6
:1015F80023F4407323F0010343F48073A362236848
:101608002C4A934227D0A26A22F48012A2625A6816
:1016180012F4806F05D0A26A22F4405242F480523C
:10162800A262A26A12F4805F2BD0E26A22F006025C
:10163800E262002284F824206FF002021A60236814
:101648009A6802F46022B2F5602F1DD09A6842F4BD
:1016580080129A602AE0A2F58062526812F4702F14
:10166800D1D0A26A42F48012A262134A526812F4DC
:10167800806FD6D0A26A22F4405242F48052A2620D
:10168800CFE70022E262D4E70A4A934204D09A687C
:1016980042F4A0029A6009E0A2F58062526812F44E
:1016A800702FD3D1F3E7002384F8243010BD022033
:1016B800704700BF002801400024014038B5036886
:1016C8009A6812F0010F01D1002038BD04469A68CB
:1016D80022F001029A60FFF7CFFD054623689B6858
:1016E80013F0010F0ED0FFF7C7FD431B022BF5D9EE
:1016F800A36A43F01003A362E36A43F00103E362C1
:101708000120E2E70020E0E7002800F08680F8B535
:101718000446836A002B50D02046FFF7CFFFA36A08
:1017280013F0100373D1002871D1A26A22F48852F1
:1017380022F0020242F00202A26262682668384978
:101748008E4240D0E1690A43217B42EA4102A56802
:10175800B5F5807F02D0012D3CD01D46277D012F95
:101768003BD0716821F46941294371602568AE68EE
:101778002C4931401143A960A168B1F5807F01D09F
:10178800012902D12369013B1B052568E96A21F477
:1017980070010B43EB6223689968234B0B409A4214
:1017A8002CD0A36A23F0120343F01003A362E36A68
:1017B80043F00103E36201202EE0C36280F8243085
:1017C800FFF778FCA8E7E169B1F5402FBBD14FF4EA
:1017D8000021B8E74FF48075C0E731B9A169013934
:1017E80045EA413141F40065BBE7A16A41F02001B7
:1017F800A162E16A41F00101E162B2E70023E3621C
:10180800A36A23F0030343F00103A36204E0A36A7D
:1018180043F01003A3620120F8BD0120704700BF08
:10182800003C0140FDF7E1FFFE0E1FFF70B582B0DE
:101838000023019390F82430012B67D0044601233C
:1018480080F82430FFF73AFF054628B1002384F8D2
:101858002430284602B070BDA36A23F4885323F0CD
:10186800020343F00203A362294B1E68022000F022
:1018780091FDB6FBF0F676000196019B1BB1019B2A
:10188800013B0193F9E72046FFF766FE226893685B
:1018980043F008039360FFF7EFFC064623689A6855
:1018A80012F0080F0FD0FFF7E7FC801B0A28F5D9C4
:1018B800A36A23F0120343F01003A362002384F801
:1018C80024300125C5E79A6842F004029A60FFF7C0
:1018D800D3FC064623689B6813F0040F0FD0FFF76C
:1018E800CBFC801B0A28F5D9A36A23F0120343F026
:1018F8001003A362002384F824300125A9E7A36A12
:1019080023F0030343F00103A3629FE70225A0E746
:1019180000000020074AD36823F4E0631B041B0C73
:10192800000200F4E060034343F0BF6343F4003374
:10193800D360704700ED00E030B4174BDB68C3F3A9
:101948000223C3F10704042C28BF04241D1D062DFF
:1019580018D9033B4FF0FF3505FA04F421EA0401D6
:10196800994005FA03F322EA0303194300280BDB25
:101978000901C9B200F1604000F5614080F8001328
:1019880030BC70470023E5E700F00F000901C9B239
:10199800024B1954F4E700BF00ED00E014ED00E03D
:1019A800002807DB00F01F02400901239340024A88
:1019B80042F82030704700BF00E100E00138B0F184
:1019C800807F0AD2064B5860064AF02182F823101D
:1019D8000020986007221A6070470120704700BFF6
:1019E80010E000E000ED00E0F0B482B000252C46E5
:1019F800ABE0854FBB4210D007D9844FBB420CD017
:101A080007F58037BB4208D013E0A7F58017BB4223
:101A180003D007F57027BB4207D18B68002B60D035
:101A2800012B59D04261082503E0A7F58017BB4276
:101A3800F3D0FF2E57D88446FF2E57D8A200DCF8E3
:101A480000300F27974023EA070305FA02F21343F1
:101A5800CCF800304B6813F0805F75D06C4B9A69F6
:101A680042F001029A619B6903F001030193019B13
:101A7800A208971C674B53F827C004F003039F0084
:101A88000F23BB402CEA030C634B984234D003F578
:101A98008063984200F0948003F58063984200F0D8
:101AA800918003F58063984200F08E8003F580638F
:101AB800984200F08B8003F5806398421AD0062381
:101AC8001BE0CD68B5E7CD680435B2E7CD680835C9
:101AD800AFE7CD680C35ACE702610825A9E700251A
:101AE800A7E70425A5E700F1040CA5E7A4F108027F
:101AF8009200A4E7052300E00023BB4043EA0C035F
:101B08000232444F47F822304B6813F4803F5FD0CD
:101B1800424A1368334313604B6813F4003F5DD0A7
:101B28003E4A5368334353604B6813F4801F5BD0BD
:101B38003A4A9368334393604B6813F4001F59D0B3
:101B4800364AD3681E43D66001340B6833FA04F270
:101B580056D00122A24003EA020632EA0303F3D177
:101B68004B68122B3FF645AF122B3FF662AF01A729
:101B780057F823F0231A0008CB1A0008D51A0008D2
:101B8800E71A00083B1A00083B1A00083B1A00082D
:101B98003B1A00083B1A00083B1A00083B1A0008C9
:101BA8003B1A00083B1A00083B1A00083B1A0008B9
:101BB8003B1A00083B1A0008CF1A0008DB1A000875
:101BC80001239AE7022398E7032396E7042394E77F
:101BD800124A136823EA060313609DE70F4A536805
:101BE80023EA060353609FE70C4A936823EA060337
:101BF8009360A1E7094AD36823EA0606D660A3E7FB
:101C080002B0F0BC704700BF000022100000311085
:101C1800001002400000014000080140000401409B
:101C280082B0084B1B68084AA2FB03235B0A00FB2F
:101C380003F3019300BF019B5A1E0192002BF9D1B7
:101C480002B0704700000020D34D6210002800F059
:101C5800F18170B582B00446036813F0010F2CD0EF
:101C6800AA4B5B6803F00C03042B1DD0A74B5B68E1
:101C780003F00C03082B12D06368B3F5803F41D002
:101C8800002B55D103F1804303F504331A6822F47D
:101C980080321A601A6822F480221A6037E09B4B5F
:101CA8005B6813F4803FE7D0984B1B6813F4003F40
:101CB80003D06368002B00F0BF81236813F0020F84
:101CC80075D0924B5B6813F00C0F5FD08F4B5B683D
:101CD80003F00C03082B54D02369002B00F08980F3
:101CE8008B4B01221A60FFF7C7FA0546874B1B6822
:101CF80013F0020F74D1FFF7BFFA401B0228F5D981
:101D080003209EE1814A136843F4803313606368BB
:101D180043B3FFF7B1FA05467C4B1B6813F4003F49
:101D2800CBD1FFF7A9FA401B6428F5D9032088E135
:101D3800B3F5A02F09D0754B1A6822F480321A60C7
:101D48001A6822F480221A60E1E703F18043A3F5C0
:101D58003C331A6842F480221A601A6842F48032CE
:101D68001A60D4E7FFF788FA0546684B1B6813F436
:101D7800003FA2D0FFF780FA401B6428F5D9032062
:101D88005FE1624B5B6813F4803FA5D15F4B1B6832
:101D980013F0020F03D02369012B40F04F815B4AF7
:101DA800136823F0F803616943EAC10313602368E9
:101DB80013F0080F32D0A369002B45D0554B0122F0
:101DC8001A60FFF759FA0546504B5B6A13F0020F89
:101DD80021D1FFF751FA401B0228F5D9032030E141
:101DE8004A4A136823F0F803616943EAC1031360A0
:101DF800DDE7474B00221A60FFF73EFA0546434BE2
:101E08001B6813F0020FD2D0FFF736FA401B0228E6
:101E1800F5D9032015E10120FFF702FF236813F02D
:101E2800040F00F09780394BDB6913F0805F1DD1F8
:101E3800364BDA6942F08052DA61DB6903F080538D
:101E48000193019B012512E0324B00221A60FFF733
:101E580013FA05462D4B5B6A13F0020FDED0FFF72D
:101E68000BFA401B0228F5D90320EAE000252A4B8B
:101E78001B6813F4807F11D0E368012B22D0002B5C
:101E880038D103F1804303F504331A6A22F00102C2
:101E98001A621A6A22F004021A6218E01E4A1368CB
:101EA80043F480731360FFF7E7F906461A4B1B6883
:101EB80013F4807FE0D1FFF7DFF9801B6428F5D9A0
:101EC8000320BEE0114A136A43F001031362E3687A
:101ED80073B3FFF7D1F906460C4B1B6A13F0020FD8
:101EE80037D1FFF7C9F9801B41F288339842F3D9FB
:101EF8000320A6E0052B11D0044B1A6A22F0010238
:101F08001A621A6A22F004021A62E0E7001002401C
:101F18000000424280044242007000404D4B1A6A61
:101F280042F004021A621A6A42F001021A62CEE70B
:101F3800FFF7A2F90646474B1B6A13F0020F08D0B9
:101F4800FFF79AF9801B41F288339842F3D90320AE
:101F580077E0E5B9E369002B72D03E4A526802F097
:101F68000C02082A56D0022B17D03B4B00221A60CD
:101F7800FFF782F90446374B1B6813F0007F47D000
:101F8800FFF77AF9001B0228F5D9032059E0314AF6
:101F9800D36923F08053D361DCE72F4B00221A600A
:101FA800FFF76AF905462B4B1B6813F0007F06D034
:101FB800FFF762F9401B0228F5D9032041E0236AA4
:101FC800B3F5803F1AD023494B6823F47413226A6F
:101FD800606A024313434B601F4B01221A60FFF7EC
:101FE8004BF904461B4B1B6813F0007F0ED1FFF71B
:101FF80043F9001B0228F5D9032022E0154A53684B
:1020080023F40033A1680B435360DCE7002018E099
:10201800002016E0012B16D00E4B5B6803F48031CC
:10202800226A914211D103F47013626A93420ED16D
:10203800002006E001207047012002E0012000E0B6
:10204800002002B070BD0120FBE70120F9E7012064
:10205800F7E700BF001002406000424286B0164B0E
:102068000FCB0DF1180C0CE90F0040F20123ADF86D
:102078000430124B5B6803F00C02082A02D01048A7
:1020880006B07047C3F38342624412F8102C13F46D
:10209800803F0CD0094B5B68C3F34043634413F89B
:1020A800143C074800FB02F0B0FBF3F0E8E70548F2
:1020B80000FB02F0E4E700BF90880008001002402F
:1020C80000127A0000093D00002800F0A08070B5D9
:1020D8000D460446524B1B6803F007038B420BD294
:1020E8004F4A136823F007030B431360136803F088
:1020F80007038B4240F08D80236813F0020F17D03E
:1021080013F0040F04D0474A536843F4E063536064
:10211800236813F0080F04D0424A536843F460530D
:102128005360404A536823F0F003A1680B4353609F
:10213800236813F0010F31D06368012B20D0022BE4
:1021480025D0384A126812F0020F64D035494A681F
:1021580022F0030213434B60FFF78EF80646314B1B
:102168005B6803F00C036268B3EB820F16D0FFF7CD
:1021780083F8801B41F288339842F0D9032045E068
:10218800284A126812F4003FE0D101203EE0254AB7
:10219800126812F0007FD9D1012037E0204B1B686C
:1021A80003F00703AB420AD91D4A136823F007035B
:1021B8002B431360136803F00703AB422DD1236848
:1021C80013F0040F06D0174A536823F4E063E1685C
:1021D8000B435360236813F0080F07D0114A536864
:1021E80023F46053216943EAC1035360FFF736FFC4
:1021F8000C4B5B68C3F303130B4AD35CD8400B4BFF
:1022080018600B4B1868FEF7F3FF002070BD012023
:1022180070470120FAE70120F8E70120F6E700BF40
:1022280000200240001002407888000800000020CA
:1022380008000020014B1868704700BF000000200C
:1022480008B5FFF7F7FF044B5B68C3F30223034AA3
:10225800D35CD84008BD00BF001002408888000841
:1022680008B5FFF7E7FF044B5B68C3F3C223034AD3
:10227800D35CD84008BD00BF001002408888000821
:1022880070B582B00446036813F0010F34D03E4B9A
:10229800DB6913F0805F47D13B4BDA6942F080522B
:1022A800DA61DB6903F080530193019B0125374B09
:1022B8001B6813F4807F39D0334B1B6A13F44073C7
:1022C80011D0626802F440729A420CD02E4A136A06
:1022D80023F440702E4901260E6000260E6010621D
:1022E80013F0010F36D1284A136A23F4407361684A
:1022F8000B431362002D3ED1236813F0020F06D062
:10230800214A536823F44043A1680B435360236870
:1023180013F0100F34D01C4A536823F4800361690A
:102328000B43536000202CE00025C0E7174A1368D0
:1023380043F480731360FEF79FFF0646134B1B6838
:1023480013F4807FB8D1FEF797FF801B6428F5D976
:10235800032016E0FEF790FF06460B4B1B6A13F0AE
:10236800020FC0D1FEF788FF801B41F288339842E4
:10237800F3D9032005E0D36923F08053D361BBE789
:10238800002002B070BD00BF001002400070004085
:102398004004424210B586B004463D4B0FCB0DF1C8
:1023A800180C0CE90F0040F20123ADF80430601E50
:1023B8000F2866D8DFE800F0385A6532656565355C
:1023C8006565656565656508324B5A68186810F07B
:1023D800807057D0C2F3834306A90B4413F8100C3E
:1023E80012F4803F16D02B4B5B68C3F340430B4479
:1023F80013F8142C284BB3FBF2F300FB03F0254B26
:102408005B6813F4800F3DD14000244BA3FB0030E0
:10241800400837E0224B03FB00F0F0E7FFF71EFE11
:1024280030E0FFF71BFE2DE01A4B1B6A40F2023228
:102438001A40B2F5817F27D003F44073B3F5007FCB
:1024480004D0B3F5407F09D000201BE0114A526A3E
:1024580012F0020FF5D049F6404013E00D4B186812
:1024680010F400300ED04FF224400BE0FFF7F8FED6
:10247800084B5B68C3F3813301335B00B0FBF3F0B7
:1024880000E0002006B010BD4FF40040FAE700BF9E
:10249800908800080010024000127A00ABAAAAAA8D
:1024A80000093D0010B504460268136923F440533F
:1024B800C1680B43136183680269134342691A4375
:1024C8000168CB6823F4B05323F00C031343CB60AB
:1024D8000268536923F4407381690B4353610268AE
:1024E800124B9A421FD0FFF7ABFE00EB800303EBC1
:1024F800830362689200B3FBF2F20D48A0FB02313D
:102508004909642303FB11231B013233A0FB032376
:102518005B0903F0F00202EB011203F00F032168DC
:1025280013448B6010BDFFF79BFEDEE700380140C7
:102538001F85EB512DE9F84305460F461646994687
:10254800DDF820802C68246837EA04030CBF0124D6
:102558000024B4421FD1B8F1FF3FF3D0B8F1000F07
:1025680005D0FEF789FEA0EB09004045EAD92A68A4
:10257800D36823F4D073D3602A68536923F0010326
:102588005361202385F8393085F83A30002385F8DF
:102598003830032000E00020BDE8F88358B310B5B8
:1025A800044690F839300BB3242384F83930226874
:1025B800D36823F40053D3602046FFF773FF2268E3
:1025C800136923F4904313612268536923F02A03A3
:1025D80053612268D36843F40053D3600020E0635A
:1025E800202384F8393084F83A3010BD80F8383028
:1025F800FEF790FDD8E7012070472DE9F04182B041
:102608001E4690F83930DBB2202B54D104460D46D3
:102618009046002953D0002A53D090F83830012B27
:1026280051D0012380F838300023C363212380F878
:102638003930FEF721FE0746A4F82480A4F8268046
:10264800A368B3F5805F05D04FF00008002384F835
:10265800383012E0236913B14FF00008F6E7A846B6
:102668000025F3E738F8023B2268C3F308035360F8
:10267800E28C92B2013A92B2E284E38C9BB273B1DB
:1026880000963B46002280212046FFF753FFE0B921
:10269800002DE7D015F8012B23685A60E8E700966B
:1026A8003B46002240212046FFF744FF78B920230B
:1026B80084F8393000E0022002B0BDE8F081012042
:1026C800FAE70120F8E70220F6E70320F4E7032001
:1026D800F2E7000070B586B0174B9A6942F40072B1
:1026E8009A619A6902F400720092009A9A6942F01B
:1026F80010029A619B6903F010030193019B012664
:102708000296032303930025049502A90B48FFF7BB
:102718006BF90B4C0B4B2360A560257325754FF4A3
:102728006023E361656026612046FEF7EDFF2046E1
:10273800FFF77CF806B070BD0010024000100140A1
:10274800DC0900200024014010B584B00A2301935D
:1027580001230293062303930F4C01A92046FEF799
:102768005FFE2046FEF736FF0F212046FEF79EFD4E
:102778002046FEF751FEFDF795FE05A3D3E9002399
:10278800FDF7D0FFFDF708FF04B010BDAFF30080E0
:102798006666666666664A3FDC0900200FB430B597
:1027A800A3B026AC54F8045B8022002102A800F0F4
:1027B800BDF801942246294602A800F049F902A86A
:1027C80000F004F94FF0FF3382B202A90348FFF783
:1027D80014FF23B0BDE8304004B070470C0A002055
:1027E80070B588B0254B9A6942F004029A619A69DB
:1027F80002F004020192019A9A6942F480429A61B5
:102808009A6902F480420292029A9A6942F001029D
:102818009A619B6903F001030393039B4FF40073D0
:102828000493022305930123069303250795144E69
:1028380004A93046FFF7D8F84FF4806304930024C6
:10284800059404A93046FFF7CFF82520FFF7A8F82C
:102858002A4629462520FFF76FF80A480A4B0360E5
:102868004FF4E13343608460082343618461046169
:10287800C460C461FFF792FE08B070BD001002404A
:10288800000801400C0A002000380140002103E044
:102898000B4B5B58435004310A480B4B42189A4281
:1028A800F6D30A4A02E0002342F8043B084B9A4256
:1028B800F9D3FEF79BFC00F015F8FEF7BFFB704755
:1028C800B48C000800000020B8090020B8090020D6
:1028D800A80A0020FEE70000014B1868704700BFF7
:1028E8000C00002070B50D4E0D4D761BB61006D0AD
:1028F800002455F8043B01349847A642F9D1094E03
:10290800094D05F0A5FF761BB61006D0002455F832
:10291800043B01349847A642F9D170BDA88C000841
:10292800A88C0008B08C0008A88C0008F0B48607B2
:1029380046D0541E002A3CD00346CAB201E0013CEE
:1029480037D303F8012B9D07F9D1032C2AD9CDB22F
:1029580045EA05250F2C45EA054534D9A4F11002AE
:1029680022F00F0C03F120071609674403F1100247
:1029780042E9045542E902551032BA42F8D1721CB4
:1029880014F00C0F03EB021204F00F0613D0331FE0
:1029980023F003030433134442F8045B9342FBD14E
:1029A80006F003042CB1CAB21C4403F8012B9C4264
:1029B800FBD1F0BC704734461346002CF3D1F8E73E
:1029C80014460346C1E71A462646E0E720F003010D
:1029D80010F00300C0F1000051F8043B00F1040CB2
:1029E8004FEACC0C6FF000021CBF22FA0CF2134322
:1029F8004FF0010C4CEA0C2C4CEA0C4CA3EB0C02EB
:102A080022EA030212EACC1204BF51F8043B043054
:102A1800F4D0C2F1000102EA0102B2FA82F2C2F174
:102A28001F0200EBD200704730B56FF000449BB036
:102A3800064D009104916946CDE90245059400F0E0
:102A480041F80022009B1A701BB030BD0802FFFF3E
:102A580030B40D46034C134601462A46206830BC64
:102A6800FFF7E2BF0C000020024B13B1024800F050
:102A780005B8704700000000912A000800230146AD
:102A88001A46184601F0C6BD38B5084B084D5B1B01
:102A98009C1007D0043B1D44013C55F80439984765
:102AA800002CF9D1BDE8384005F0D8BEB48C000838
:102AB800B08C0008704700BF704700BF704700BF68
:102AC800704700BF2DE9F04FD7B08B4617460E93DD
:102AD800814602F02FFF036818461893FFF776FF28
:102AE800BBF80C3017901D0604D5DBF81030002B0E
:102AF80000F0DF87002300210022CDE92B33CDE948
:102B08001A33CDE91C33139319930A932DAB9846C6
:102B18002A933B78DA46CDE91412002B00F0A48101
:102B28003C4604E014F8013F002B00F0FD80252B03
:102B3800F8D1E51B40F0FB802378002B00F094814E
:102B480000230B938DF88B3007934FF0FF33667893
:102B580004F1010B20212B2409930BF1010BA6F1A1
:102B680020035A2B00F2FF80DFE813F0BC02FD00BF
:102B7800FD00B502FD00FD00FD009102FD00FD0015
:102B88006A00E702FD003402CD02FD00C6025B00C8
:102B98005B005B005B005B005B005B005B005B0055
:102BA800FD00FD00FD00FD00FD00FD00FD009001A1
:102BB800FD00F7017C00900190019001FD00FD00EF
:102BC800FD00FD008A02FD00FD00A900FD00FD00DA
:102BD800FD000B02FD003B02FD00FD008107FD002A
:102BE800FD00FD00FD00FD00FD00FD00FD00900161
:102BF800FD00F701800090019001900180028000A3
:102C08007500FD007602FD005E02AD004C02750005
:102C1800FD000B0272005B07FD00FD005F07FD0071
:102C280072000022A6F130031BF8016B02EB82024E
:102C380003EB4202A6F13003092BF5D90B928EE77C
:102C48000E9B53F8042B002A0B920E93C0F2BF81FF
:102C58009BF8006081E7079B9BF8006043F0200326
:102C680007937AE7079B43F010030793079B9C069B
:102C780040F162810E9B073323F007031946F1E800
:102C8800022314461D460E91002A73F10003C0F278
:102C9800AB85099B0133079B00F0148423F0800364
:102CA80054EA0502089340F00E84099A002A40F07D
:102CB8000F840793002356AF09930C936BE2079B8D
:102CC80043F010030793079B9A0640F126810E9B59
:102CD800073323F00703F3E802450E93079B23F419
:102CE80080630893002300228DF88B20099A1146EF
:102CF800013100F03182089921F08001079154EAEE
:102D0800050140F02782002A40F07D83002BD1D1B5
:102D1800089B13F001030C9300F0908530230DF20B
:102D280057178DF8573136E2E51B00F09D80DDE935
:102D38002B3201332A44072BC8E90075CDE92B3221
:102D480006DC08F108080A9A23782A440A92F4E66D
:102D5800514648462AAA03F0E5FC002841F0CE83F4
:102D68000DF1B408EFE7002E7ED0002301211A46AA
:102D780008918DF8F4608DF88B300D9309931293B8
:102D8800169310930C913DAF079B13F0020302D0EA
:102D9800089902310891079911F084010F9105D122
:102DA8000B9908980D1A002D00F34B832C9C72B1D7
:102DB80001202B9A044402440DF18B01072ACDE926
:102DC8002B24C8E9001000F3CD8308F108086BB183
:102DD80002212B9B0C44013323AA072BCDE92B346A
:102DE800C8E9002100F3CC8308F108080F9B802B69
:102DF80000F03482099B0C9A9D1A002D00F36E8214
:102E0800079BD90500F1D5812B9B0C9A01331444FB
:102E1800072BC8E900722C942B9300F3978308F1D1
:102E28000808079B590705D50B9B089A9D1A002D82
:102E380000F3B283DDE90A3208998A42ACBF9B18D5
:102E48005B180A93002C40F07D8200232B930D9B86
:102E58001BB148460D9902F067FC5F460DF1B408B6
:102E68003B78002B7FF45CAE2C9BD346002B41F0C3
:102E78004B82BBF80C3013F0400F0A9B18BF4FF081
:102E8800FF330A930A9857B0BDE8F08F0E9B0733BB
:102E980023F007031946F1E80223CDE91423DDE9FD
:102EA800143424F000441D4618460E914FF0FF32AA
:102EB8002146A44BFDF7D0FE002840F0D9842846CF
:102EC80021464FF0FF329F4BFDF7A8FE002840F047
:102ED800CF84DDE9140100220023FDF795FE0028C8
:102EE80041F00E809DF88B2003200021964F974BD0
:102EF80008900D91472EC8BF1F46079C0C9024F0E0
:102F0800800407940991129116911091002A3FF4B8
:102F18003BAF089B0133089336E7079BDB0600F1BC
:102F28009C84079B5F0640F1B2870E9B002553F8EF
:102F3800044B0E93A4B2D1E6079BD80600F168852E
:102F4800079B590640F1BE870E9B53F8044B24B2E9
:102F5800E5170E9322462B4696E6002101240E9B88
:102F68000A4653F8040B0894CDE90D138DF88B101D
:102F78008DF8F40009911291169110910C943DAFBF
:102F880002E700250E9C8DF88B5054F8047B002F27
:102F980000F09F85099A1346013300F0708729468F
:102FA800384602F079FF0D90002801F0B9802B46D1
:102FB8000D9A0995D21B0C9222EAE27208920E949D
:102FC8009DF88B200D931293169310939EE70B9BFD
:102FD8005B420B93079B9BF8006043F00403079345
:102FE800BBE5079B43F010030893089B9D0640F13F
:102FF800EA830E9B073323F00703F3E802450E9399
:10300800012370E647F630020E9B079953F8044BEC
:1030180041F002010E934E4B0025199378260223A6
:103028000891ADF88C205EE6079B9D0600F10884A8
:10303800079BDC0600F1E186079B580600F195879F
:10304800079B990540F1D9860E9B0A9953F8042BE2
:103058005F4611700E9303E79BF80060079B6C2E88
:1030680000F0088543F01003079376E59BF80060AD
:10307800079B682E00F0078543F0400307936CE533
:10308800079B9BF8006043F00803079365E54846F3
:1030980002F050FC436818461C93FFF797FC034660
:1030A80048461D461D9302F045FC826820211A926D
:1030B800002D3FF4CDAD1A9B002B3FF4C9AD1A9BF0
:1030C8001B78002B3FF4C4AD079B9BF8006043F4CA
:1030D8008063079341E5079B9BF8006043F0010379
:1030E80007933AE59DF88B30002B7FF4B1AD9BF840
:1030F80000608DF88B1030E5079B9BF8006043F06B
:103108008003079329E55A4612F8016B2A2E01F02D
:103118005182A6F13003092B934698BF002201F291
:10312800EF801BF8016B02EB820203EB4202A6F16F
:103138003003092BF5D9099211E59BF800608DF849
:103148008B400AE5FFFFEF7FA8880008AC880008DD
:10315800B8880008079A0892012B00F0B481022B66
:1031680000F0598156AFE20842EA4572E90804F0D6
:1031780007030D461446303354EA05013A4607F86A
:10318800013DF0D108990846C00700F1B88256AB56
:10319800DB1B07910C93002309990D931293169347
:1031A80010930C9B9DF88B208B42B8BF0B4608935D
:1031B800ACE6652E40F3D880DDE914010022002337
:1031C800FDF718FD002800F01E8201212B9BC54A3F
:1031D8000B440C44072BCDE92B34C8E9002100F33C
:1031E800BB8508F10808249B139A934280F2218337
:1031F8002B9B179A013318991444072BC8E900121E
:103208002C942B9300F3488408F10808139B5D1E47
:10321800002D7FF706AE102D40F3C785B24F10265C
:103228002B9B0F9705E008F10808103D102D40F37F
:10323800BF8501331034072BCDE92B34C8E900765C
:10324800F1DD514648462AAA03F06CFA002840F0FE
:103258008180DDE92B340DF1B408E6E70B9B089A71
:103268009D1A002D7FF7C6AD102D41F369809E4849
:103278002146102304462B9A0F9004E0103D102D90
:1032880008F1080817DD01321031072ACDE92B2192
:10329800C8E90043F2DD514648462AAA03F042FA3B
:1032A800002857D1DDE92B21103D102D4FF01003D8
:1032B8000DF1B408E7DC0C4601320F9B2C44072AB9
:1032C800CDE92B24C8E9003500F38A85099B0C9ABF
:1032D80008F108089D1A002D7FF792AD102D40F3D4
:1032E8000A8681482146102304462B9A0F9004E051
:1032F800103D102D08F1080816DD01321031072A9B
:10330800CDE92B21C8E90043F2DD514648462AAAF7
:1033180003F008FAF0B9DDE92B21103D102D4FF02C
:1033280010030DF1B408E8DC0C4601320F9B2C4465
:10333800072ACDE92B24C8E9003500F3378208F1C4
:1033480008085DE5514648462AAA03F0EBF900282B
:103358003FF47BADD3460D9B002B3FF48AAD484626
:103368000D9902F0E1F984E5139B012B40F3D58117
:1033780001232B9D1C441D44072D2C94C8F8007074
:103388002B95C8F8043000F33A8208F10808179B17
:103398000135189A1C44072DCDE92B54C8E90023A0
:1033A80000F33A8208F108080023DDE9140100223D
:1033B800FDF720FC139B002840F0CD81013B01352F
:1033C80001371C44072DCDE92B54C8F80070C8F804
:1033D800043000F3DC8408F108081B9A0135144412
:1033E80026AB072DCDE92B54C8E900327FF717AD7E
:1033F800514648462AAA03F095F90028AAD12C9CE0
:103408000DF1B4080DE5012B00F0CA87022B079BCC
:1034180008937FF4A7AE199856AF230943EA0573BA
:10342800290904F00F020D461C46835C07F8013D8C
:1034380054EA0503F1D1089B079356ABDB1B0C93A9
:10344800A9E6102D40F36886DDE92B211E930B4673
:103458003946102437465646CA46894604E0103D88
:10346800102D08F1080817DD013220491033072A0A
:10347800CDE92B23C8E90014F1DD314650462AAACC
:1034880003F050F9002840F05884DDE92B23103D63
:10349800102D0DF1B408E7DC4846D146B2463E4649
:1034A800074619461E9B4C1901321049072ACDE9D7
:1034B8002B24C8E9001500F31F849DF88B2008F120
:1034C800080874E40893002D08BF0A2C80F0D08304
:1034D800089B3034079301238DF857410C930DF264
:1034E800571758E6E8880008FC880008EC880008A8
:1034F800514648462AAA03F015F900287FF42AAF56
:10350800249A2C9C0DF1B408002A40F07F84079B74
:10351800139A03F0010313433FF483AC2B9B179AD0
:10352800013318991444072BC8E900122C942B93E3
:1035380000F3248508F10808139A01331444072B73
:10354800CDE92B34C8E900727FF769AC514648468B
:103558002AAA03F0E7F800287FF4FCAE2C9C0DF1B2
:10356800B4085EE4514648462AAA1E9303F0DAF8E6
:1035780000287FF4EFAE2C9C1E9B0DF1B40826E4C6
:10358800514648462AAA03F0CDF800287FF4E2AE57
:103598002C9C0DF1B40829E4102D40F3BE861026AA
:1035A8002B9B04E0103D102D08F1080817DD0133AE
:1035B800AD4A1034072BCDE92B34C8E90026F1DDDC
:1035C800514648462AAA03F0ADF800287FF4C2AE57
:1035D800DDE92B34103D102D0DF1B408E7DC013383
:1035E800A14A2C44072BCDE92B34C8E900257FF7E5
:1035F80021AC514648462AAA03F094F800287FF4E3
:10360800A9AE2C9C16E4249A002A40F38683109BCA
:10361800139A9342A8BF1346002B1D460BDD2B9B24
:103628002C440133072BC8E900752C942B9300F325
:103638001E8508F10808109B002DA8BF5B1B002BF6
:103648001D4600F35682109B3B441E46079B5B05B4
:1036580000F17782249B139A934203DB079AD507DC
:1036680040F17A842B9A1799013218980C44072A4A
:10367800C8E900012C942B9200F3068508F108088C
:10368800139ABD18AD1BD31A9D42A8BF1D46002D25
:103698000BDD2B9A2C440132072AC8E900652C94CB
:1036A8002B9200F35F8508F10808002DB4BF1D4672
:1036B8005D1B002D7FF7B5AB102D40F376836B4F64
:1036C80010262B9B0F9705E008F10808103D102DD8
:1036D80040F36E8301331034072BCDE92B34C8E94E
:1036E8000076F1DD514648462AAA03F01BF8002867
:1036F8007FF430AEDDE92B340DF1B408E6E7302B6A
:103708003FF499AE3023023A07F8013C089956ABCA
:103718009B1A174607910C933DE5079BD8073FF581
:1037280027AE01232B9D1C441D44072D2C94C8F85B
:1037380000702B95C8F804307FF74DAE51464846C7
:103748002AAA02F0EFFF00287FF404AEDDE92B542B
:103758000DF1B40841E65E1E002E7FF73EAE102E36
:1037680040F31E87414BCDF824B01027D3460F9362
:10377800CA46994605E008F10808103E102E40F3A5
:10378800F88201351034072DCDE92B54C8E900978C
:10379800F1DD594650462AAA02F0C4FF002840F03D
:1037A800CC85DDE92B540DF1B408E6E751464846CF
:1037B8002AAA02F0B7FF00287FF4CCAD2C9C0DF1AB
:1037C800B408FFF71DBB089BDC0600F11981089BB4
:1037D800580640F168830E9A012352F8044B0025DD
:1037E8000E92A4B2FFF77FBA2D23079A64428DF890
:1037F8008B3065EB450501230892FFF777BA5146F0
:1038080048462AAA02F08EFF00287FF4A3ADDDE91E
:103818002B540DF1B408BAE5514648462AAA02F0DD
:1038280081FF00287FF496ADDDE92B540DF1B40833
:10383800BAE5079BDA077FF5F4AAD9E456AFAAE4FC
:103848000E9B5F4653F8041B0E930A9BDD171A461E
:103858002B46C1E90023FFF703BB0E9B002553F855
:10386800044B0E93FFF73ABAEC880008FC8800086E
:10387800DDE914010B460246FDF7EEF90146002882
:1038880040F04386612E00F08685412E00F07A8450
:10389800099B26F020055A1C089500F07D83472DCA
:1038A80000F09E85DDE91401079B43F480731293B1
:1038B8000B46002BC0F2BA8500220F931E920D9280
:1038C8000C90462D0C9A00F00784452D4FF002000D
:1038D8000F9B40F0E783099900904C1C28A925A864
:1038E800049124A9CDE902100194484600F068FF2C
:1038F80007460444129B079D0793002200230C9857
:103908000F99FDF777F9002800F098832346DB1B11
:103918001393089B472B00F05E83089B462B00F00F
:103928000B84249B1093109B089A013B412A2493F3
:1039380000F0AD850021F2B2002B8DF89820B6BFBB
:103948002D222B22109B8DF89920B8BFC3F10103BB
:10395800092B40F3A2850DF1A70E72469C46BF4C79
:103968006046114684FB0C234FEAEC72C2EBA302BB
:1039780002EB8203ACEB430330336328944601F82F
:10398800013C01F1FF32EBDC63463033D8B28B1EC9
:103998009E4502F8010C40F22C860DF19A0301E0D5
:1039A80012F8010B964503F8010BF9D10DF1A903A3
:1039B8000DF19A025B1A134426AA9B1A1B93139BB8
:1039C8001B9A012B1A440C9240F3CC850C9B179A36
:1039D80013440C9300231293169310930C9B25F415
:1039E800806545F4807223EAE373079208931E9B6F
:1039F800002B40F017839DF88B200993FFF786BAB8
:103A08000E9A012352F8044B00250E92FFF76BB96A
:103A18000E9B53F8044BE5170E9322462B46FFF7EF
:103A280033B9079B0893FFF7E0BA8D4B1993079BAF
:103A3800990640F1FE800E9B073323F00703F3E855
:103A480002450E93079AD7070AD554EA050307D00B
:103A5800302342F002028DF88D6007928DF88C3089
:103A6800079A022322F480620892FFF73CB97D4B43
:103A78001993DCE743F020039BF8016007930BF1EF
:103A8800010BFFF76AB843F400739BF801600793D2
:103A98000BF1010BFFF761B8514648462AAA02F01C
:103AA80041FE00287FF456AC2C9C0DF1B408FFF7BA
:103AB800ADBB4021484601F041FFCBF80000CBF8F0
:103AC8001000002800F08D854023CBF81430FFF754
:103AD80011B8099B3A46062B28BF06230997129767
:103AE800169710970D9708935F4F0E940C93FFF756
:103AF8000DBA102B40F3588551465C4ACA460997BF
:103B08001026174689462B9B0F9205E008F10808F6
:103B1800103D102D40F3FA8101331034072BCDE905
:103B28002B34C8E90076F1DD494650462AAA02F04E
:103B3800F9FD002840F0FD83DDE92B340DF1B408D0
:103B4800E6E7139B4246DDF85880FB180993CDF849
:103B580030B00F972046DDF874B01A9F129BB8F169
:103B6800000F2DD07BBB013F08F1FF382B9B1C9920
:103B780001335844072BC2E9001B2C902B9362DCBD
:103B8800083209993B788D1B9D42A8BF1D46002D20
:103B98000BDD2B9B28440133072BC2E900652C90D1
:103BA8002B9300F311813B780832002DB4BF1D46DA
:103BB8005D1B002D0BDC1E44129BB8F1000FD1D108
:103BC800002B00F0F981129B013B1293CEE7102DD8
:103BD80040F3C5842B9910240B4604E0103D102DAA
:103BE80002F1080216DD013320491030072BCDE918
:103BF8002B30C2E90014F1DD514648462AAA02F0EA
:103C080091FD00287FF4A6ABDDE92B30103D102D87
:103C18002DAAE8DC19464B1C14492844072BCDE98A
:103C28002B30C2E9001500F315823B7808321E4498
:103C3800C2E7079BDA0640F184800E9B002553F803
:103C4800044B0E93FEE6514648462AAA02F06AFD46
:103C580000287FF47FAB2C982DAA92E767666666EA
:103C6800B8880008CC880008E0880008FC880008AC
:103C78000022089BCDF81CB003F480630C96CDF8A5
:103C880034A09346CA461E46C14656AFDDF8688042
:103C98000BE00A22002320462946FDF71BF8002DD9
:103CA80008BF0A2C1BD304460D460A2200232046CF
:103CB8002946FDF70FF8303207F8012C0BF1010BFC
:103CC800013F002EE5D098F800309B45E1D1BBF1CB
:103CD800FF0FDED0002D08BF0A2C80F02881CDF818
:103CE8006880CDF84CB0C8460C9ED146DDF81CB0B3
:103CF800DDF834A0FFF79FBB514648462AAA1E9319
:103D080002F010FD00287FF425AB9DF88B202C9C39
:103D18001E9B0DF1B408FFF74AB801202B9BC5493B
:103D280003440444072BCDE92B34C8E900103FF7BE
:103D3800DFAB08F10808FFF7E7BBD146B346FFF74A
:103D48000ABB079B5B0640F1CB800E9B002553F80E
:103D5800044B0E93A4B275E6514648462AAA02F0CF
:103D6800E1FC00287FF4F6AA2C9C0DF1B408FFF7BB
:103D78003ABAD146DA46DDF824B001350F9B34440F
:103D8800072DCDE92B54C8E900367FF724AB5146FF
:103D980048462AAA02F0C6FC00287FF4DBAADDE91F
:103DA8002B540DF1B408FFF718BBA34A2B9B0F92B5
:103DB80001330F9A2C44072BCDE92B34C8E9002591
:103DC8007FF72DA8FFF7C2BB514648462AAA02F042
:103DD800A9FC00287FF4BEAA3B782C982DAAE4E61B
:103DE800514648462AAA02F09DFC00287FF4B2AA50
:103DF8002C9C0DF1B408FEF7FDBF0E9B0A9953F8F1
:103E0800042B5F4611600E93FFF72AB82B9B179976
:103E1800013318980C44072BC8E900012C942B9304
:103E280000F3AC8008F10808002ABFF685AB5542BC
:103E3800103280F2D38351467F4ACA46099710262A
:103E4800174689460F9205E008F10808103D102D25
:103E580040F3AA8201331034072BCDE92B34C8E98B
:103E68000076F1DD494650462AAA02F05BFC00289C
:103E780040F05F82DDE92B340DF1B408E6E73846FF
:103E8800FEF7A4FD2B4602460995FFF794B8079B59
:103E9800002513F4007F0E9B53F8044B0E9318BFB4
:103EA800E4B2FEF71BBF0E9A089B52F8044B13F4BA
:103EB800007F4FF000054FF001030E9218BFE4B2E7
:103EC800FEF711BF079B13F4007F0E9B53F8044BBA
:103ED80018BF64B2E5170E9322462B46FEF7D4BEF0
:103EE800079B002513F4007F0E9B53F8044B0E9399
:103EF80018BFE4B2A6E5504B2B9A0F93FFF715BAFB
:103F08002D231A468DF88B30FEF7EEBF4A46D14670
:103F18009246099F01330F9A2C44072BCDE92B3485
:103F2800C8E900253BDC08F10808FFF78CBB1D9B9E
:103F38001C99FF1A1A46384602F0C0FB98F801305F
:103F48000BB108F101080A22002320462946FCF794
:103F5800C1FE4FF0000BA6E6139ABD18AD1BD31A8D
:103F68009D42A8BF1D46FFF7A0BB0E9B0A9953F8B8
:103F7800042B5F4611800E93FEF772BF51464846E8
:103F88002AAA02F0CFFB00287FF4E4A9DDE92B344C
:103F9800249A0DF1B40847E70623099382E45146B1
:103FA80048462AAA02F0BEFB00287FF4D3A92C9C1D
:103FB8000DF1B408FFF747BB139B1A970F9F904664
:103FC800FB189E42324628BF1A4604461646DDF8BC
:103FD80030B0FFF73FBB249BD81C109302DB099A33
:103FE800934204DD023E26F0200308939BE4109BD5
:103FF80013998B42C0F27A81EA0740F18382179ABB
:1040080013440C936E0540F17782109B002B00F34C
:10401800108267260C9B23EAE3730893002312930C
:104028001693E4E42D2200238DF88B200993FEF7E4
:1040380070BF00BFE8880008FC880008289BA342DE
:10404800BFF465AC30215A1C28921970289B9C42F9
:10405800F9D85CE4514648462AAA02F063FB0028D6
:104068007FF478A93B782C982DAA1E44A4E55146E4
:1040780048462AAA02F056FB00287FF46BA92C9C1C
:104088000DF1B408FFF7D7BA514648462AAA02F0FC
:1040980049FB00287FF45EA9249B2C9C0DF1B408F1
:1040A800FFF7EEBA099C28A9CDE90004049125A8D8
:1040B80024A9CDE90210484600F082FB472D0746A7
:1040C80019D1079D2B46DB0700F12A81129A289BFC
:1040D8000792472208921AE40320099C28A9CDE9EF
:1040E8000004049125A824A9CDE902100F9B484695
:1040F80000F066FB0746099B462D07EB03047FF497
:10410800F9AB3B78302B00F01C82249B129A079D58
:104118001C440792FFF7F1BBDDE92B21FFF7C3B978
:10412800099B9DF88B2008930C9309900E9412908C
:1041380016901090FEF7EABE249A002A109240F3D7
:104148001B82099905F001030B4340F09A8166260A
:10415800109B0C936A0500F16D810C9B23EAE373B5
:1041680008935BE7514648462AAA02F0DBFA002882
:104178007FF4F0A8249B139A2C9C0DF1B408D31A51
:10418800FFF793BA30238DF88C3058238DF88D3093
:10419800079B43F00204099B632B00F3F280002382
:1041A8003DAF0D93079BDDE9141243F4817312931D
:1041B8001346002B26F020050794C0F28D800F933C
:1041C800002308950C911E93612E00F07D81412EED
:1041D8007FF477AB24AA0C980F9902F025FA0022F5
:1041E8004FF07F53FCF79EFA04460D460022002349
:1041F800CDE91045FCF7FEFC08B101232493AE4B32
:104208000C93099BCDF83CB0013B1396CDF87C90FC
:10421800CDF880A02197BA46DDE910679946DDF808
:1042280030B0CDF8588006E000220023FCF7E2FC0D
:1042380009F1FF39E8B90022A04B30463946FCF7AE
:1042480071FA0D460446FCF71DFD8046FCF73AF965
:104258000B46024629462046FBF7E6FF1BF80830C6
:10426800B9F1FF3F554606460F464C460AF8013B52
:10427800DAD1304639460022914BDDF83CB0139E26
:10428800CDF83CA0CDF84C80CDE91001DDE91F9AAE
:10429800DDF85880219FFCF7D5FC002855D1DDE9D1
:1042A80010010022864BFCF7A5FC10B1139BDB071D
:1042B8004BD4002C08DB30220F99631C0B4401F807
:1042C800012B8B42FBD10F910F9B079DDB1B139397
:1042D800129B0793FFF71DBB08952D23DDE91412E8
:1042E8001E9302F100430C910F936DE7139B179AED
:1042F8009A18109B0C92002B40F31A81672629E725
:1043080000230993FEF72BBC484651462AAA02F01F
:1043180009FABAF80C30FEF7AEBD2B9BFFF75FB970
:10432800099B079DFC18129B079347230893FFF7E7
:10433800E4BACB46D146FFF70EB8D146FFF70BB823
:10434800604B2B9A0F93FEF7B7BF0F9B0C992895DC
:1043580013F8012CC97B8A4240F02A81302003F8E7
:10436800010C289B5A1E289213F8012C9142F6D072
:10437800392A0BBF0C9A0132927AD2B203F8012C77
:10438800A2E74846591C01F0D9FA0746002800F070
:104398001D810D9006E730238DF88C307823F5E6E3
:1043A800079B0893FFF794B84A46D1469246099F5F
:1043B80001330F9A2C44072BCDE92B34C8E900258B
:1043C8007FF7B8A8514648462AAA02F0ABF9002858
:1043D8007EF4C0AFDDE92B340DF1B408FFF7ACB8BB
:1043E800002B08BF01230993079B43F480731293A2
:1043F800159B002B0C93C0F2BD800224099D28A8B0
:1044080025AA24ABCDE90320CDE90045DDE9144513
:10441800029322462B4648461E9100F0D1F90C9B88
:1044280007460F931E9B0C940D934AE600230D93A9
:1044380053E767261A990B78FF2B00F0DE800024DB
:10444800109A204603E001300131FF2B08D0934237
:1044580006DAD21A4B78002BF5D10B780134F4E741
:104468001A91109216901294129A169B0C99134452
:104478001D9A02FB03130C9323EAE3730893FFF7D7
:10448800B6BA179B6626D31819440C9162E606F152
:104498000F020121D2B2FFF74FBA002967D13022AB
:1044A8008DF89A200DF19B02303302F8013B26ABC0
:1044B800D31A1B93FFF783BACC880008000030405A
:1044C8000000E03FFC88000824AA0C980F9902F02D
:1044D800ABF800224FF07F53FCF724F904460D4651
:1044E80000220023CDE91045FCF784FB08B1012325
:1044F8002493444B0C9384E667262EE6BAF80C30D6
:10450800FEF7B9BC109B0C937CE5159B0320002B90
:10451800B8BF2D234FF00001BABF1A468DF88B3073
:104528009DF88B20384F394B08900D91FEF7E2BC6F
:10453800C3F101031A4422EAE27367260C92089336
:104548006CE5002200230C980F99FCF753FB002818
:104558007FF4DBAD099BC3F101032493D6E52B99C6
:10456800FFF759BBE9077FF535AAFFF72FBA0DF119
:104578009A0299E70D90B0E6099A05F001051346ED
:104588002B4304D10123662608930C9346E5179B19
:10459800662601331A4422EAE2730C9208933DE539
:1045A8001B4B0F93FFF7E9BB194A2B9B0F92B1E402
:1045B8000F9BDDE60E9B9BF8016053F8040B9346B6
:1045C80040EAE07009900E93FEF7C7BABAF80C30CB
:1045D80043F04003AAF80C30FEF74DBC0C4A0F928A
:1045E800E6E60C234FF0FF32C9F800300A92FEF7D6
:1045F80049BC02231B93FFF7E2B9002312931693D9
:1046080032E700BFB8880008B0880008B4880008FE
:10461800FC8800082DE9F047DFF880A00646DAF8A4
:10462800000098460F469146FEF748FA1A4B1B6859
:10463800D3F8484124B365681F2D26DC5EB96B1C8E
:104648000235DAF80000636044F82570FEF738FA9E
:104658000020BDE8F087012304EB8501C1F88890AC
:10466800D4F88821AB401A43022EC4F88821C1F837
:104678000881E4D1D4F88C211343C4F88C31DEE7E7
:1046880003F5A674C3F84841D5E7DAF80000FEF749
:1046980017FA4FF0FF30DCE7A48800083804002040
:1046A8002DE9F04F03690D6983B0AB42C0F28480F5
:1046B800013D01F1140600F1140956F8253059F8A6
:1046C800252001338E46A90000919A4209EB850105
:1046D8008246B2FBF3F706EB8508019137D3002237
:1046E800B446144648465CF8043B01681FFA83FB4D
:1046F80007FB0B221B0C4FEA124B07FB03BB93B2C1
:10470800E31A8AB21FFA8BF41344C4EB114404EB86
:1047180023449BB243EA0443E04540F8043B4FEA94
:1047280024444FEA1B42DED2009B59F8033073B988
:10473800019B043B994504D307E0994505F1FF35F2
:1047480003D253F80429002AF7D0CAF8105071464A
:10475800504601F041FE00282ADB48460023013775
:1047680056F8041B04688AB29A1A0B0CA1B20A44C0
:10477800C3EB144303EB224392B242EA0342B0452F
:1047880040F8042B4FEA2343EAD259F8252009EBD5
:1047980085036AB9043B994504D307E0994505F1B7
:1047A800FF3503D253F80429002AF7D0CAF810506D
:1047B800384603B0BDE8F08F002003B0BDE8F08FA5
:1047C8002DE9F04F16461F46016C9BB00446CDE913
:1047D8000467279D41B10123426C9340C1E901233D
:1047E80001F0CCFB00232364B7F10009B4BF012317
:1047F80000232B60764BBCBF29F00049CDF81490FC
:1048080033EA090300F0AB80DDE9042310461946BA
:1048180000220023CDE90801FCF7ECF9804670B1CD
:104828000123269A1360289B002B00F0C282694856
:104838001860431E039303981BB0BDE8F08F18AAB5
:1048480019ABCDE90032DDE90823204601F08AFEE4
:104858005FEA1955824640F09880DDE9188545449D
:1048680005F23240202840F39083C0F1400305F25E
:10487800124009FA03F926FA00F049EA0000FBF7AA
:1048880011FE0122013D0F92A1F1F8710022524B55
:10489800FBF7CAFC48A3D3E90023FBF743FF48A36F
:1048A800D3E90023FBF7C2FC064628460F46FBF770
:1048B80009FE45A3D3E90023FBF734FF02460B4664
:1048C80030463946FBF7B2FC06460F46FCF7DAF9E4
:1048D80000228346002330463946FCF795F9002824
:1048E80040F05A82BBF1160F00F24882DDE9080158
:1048F8003A4B03EBCB03D3E90023FCF785F90028F7
:1049080072D00023A8EB05050E936B1E0BF1FF3B3D
:10491800069300F13B8200230B93BBF1000F6BDA87
:104928000B9BCDF81CB0A3EB0B030B93CBF100034F
:104938000D93249B4FF0000B092B66D8052B40F3F1
:1049480022830025043B2493249B023B032B00F283
:104958006E86DFE813F03B0438042F04120442F299
:104968000F73269AC9F31309136059EA06031CD179
:10497800289B002B00F05786194B03930833289A7D
:10498800039813601BB0BDE8F08FDDE90812C2F38D
:104998001303084643F07F51CDF83C80A5F2FF355C
:1049A800DDF8608041F4401170E7289B002B40F04F
:1049B800C8830C4B03933EE761436F63A787D23FDD
:1049C800B3C8608B288AC63FFB799F501344D33FF6
:1049D8000000F07FE98800080000F83F588A0008C6
:1049E800108900080C890008A8EB05056B1E0693C2
:1049F80000F1A9840E900B90069B5B44CDE9063B21
:104A080000230D93249B092B98D900230125249377
:104A180025934FF0FF330C950A9300210A9B61649C
:104A28001293204601F084FA0390002800F00786CC
:104A3800039B23640A9B0E2B00F2E980002D00F0F3
:104A4800E6800799002940F35284B54B01F00F0224
:104A580003EBC203C8054FEA2115D3E9006740F10B
:104A6800EE83DDE90801AF4B4FF00309D3E90823D2
:104A7800FBF782FFCDE9100105F00F058DB1DFF8D6
:104A8800A482E90709D5D8E9002330463946FBF75F
:104A980049FE06460F4609F101096D1008F108089C
:104AA800EFD1DDE9100132463B46FBF765FF0646CC
:104AB8000F460E9B43B10022304639469A4BFCF70D
:104AC800A3F8002840F03B854846FBF7FBFC32463C
:104AD8003B46FBF727FE954B0022FBF7A7FB0A9BFB
:104AE8008046A1F15079002B00F0CE83079B1393E9
:104AF8000A9B10930C9B002B00F0B784109A884BEC
:104B0800002003EBC20353E902238949FBF734FF72
:104B180042464B46FBF788FB02460B463046394671
:104B2800CDE91423FCF7AEF88046FBF7CBFC024630
:104B38000B4630463946FBF777FB039D08F13003F7
:104B480006460F46024605F8013B0B46DDE914010F
:104B5800FCF778F8002840F03B85CDE916ABDDE995
:104B680014ABDDF840804FF0000910942AE009F1F9
:104B78000109C14548DA5046594600226D4BFBF7FA
:104B8800D1FD00226B4B82468B4630463946FBF7F7
:104B9800C9FD0F460646FCF775F80446FBF792FC7C
:104BA80002460B4630463946FBF73EFB3034524648
:104BB8005B4605F8014B06460F46FCF725F800282A
:104BC80040F0038532463B4600205749FBF72CFB53
:104BD80052465B46FCF718F80028C8D0139BDDF84E
:104BE80058A0109C039A079302E0954200F0D284E3
:104BF800A94615F8013D392BF7D00133DBB22B70EC
:104C0800079B01330793A0E1109CDDE916AB199BC4
:104C1800002BC0F29380079A0E2A00F38F80404B36
:104C280003EBC203D3E90023CDE90423259B002B22
:104C38001ADA0A9B002B17DC40F03F83DDE90401F8
:104C480000223D4BFBF76EFD02460B46DDE90801ED
:104C5800FBF7E4FFDDF828804546002800F0CD8208
:104C6800259B039FDE43D0E2DDE90467DDE9080107
:104C780032463B46FBF780FEFCF704F88046FBF71C
:104C880021FC32463B46FBF74DFD0B460246DDE96B
:104C98000801FBF7C9FA039D08F1300305F8013B49
:104CA8000A9B012B00F07F83CDF818A04FF0010973
:104CB8009B46AA4608941DE032463B4620462946B4
:104CC800FBF75AFEFBF7DEFF8046FBF7FBFB32469D
:104CD8003B46FBF727FD09F101090B460246294629
:104CE8002046FBF7A1FA08F13003CB450AF8013B4F
:104CF80000F0558300220F4BFBF714FD0022002320
:104D080004460D46FBF776FF0028D5D05546089C8B
:104D1800DDF818A0079BA9460133079315E100BFEA
:104D2800588A0008308A00080000F03F00001C4044
:104D38000000E03F00002440000014400C9A002AC4
:104D48003DD0249A012A40F3BC820A9B5F1E0D9B2A
:104D5800BB42C0F26E82DF1B0A9B002BC0F2548359
:104D6800069A11460B9A194416461A4406910B9254
:104D78000121204601F0AAF9054623E00123A8EB0A
:104D880005050E936B1E06937FF5C5ADC5F10103AE
:104D98000B9300230693C0E55846FBF793FB324676
:104DA8003B46FBF727FF00287FF49CAD0BF1FF3B48
:104DB80098E5C74B039303981BB0BDE8F08F0D9F90
:104DC800DDE90B65002E0CDD069A002A09DDB242EA
:104DD8001346A8BF33460B99F61AC91AD31A0B9172
:104DE80006930D9BD3B10C9B002B00F0A381002FE1
:104DF80010DD29463A46204601F02EFA5246014671
:104E08000546204601F078F90346514620469A4661
:104E180001F0B4F80D9BDA1B40F08D81012120468A
:104E280001F054F9BBF1000F804600F3B380249BD6
:104E3800012B40F38A814FF000090120BBF1000FDC
:104E480040F0B480069A104410F01F0000F09280E1
:104E5800C0F12003042B40F3F9830B9BC0F11C0025
:104E6800034402440B93064406920B9B002B05DD7A
:104E780051461A46204601F03BFA8246069B002B13
:104E880005DD41461A46204601F032FA80460E9B5F
:104E9800002B40F035810A9B002B40F31B810C9BB3
:104EA800002B40F09A80079B013307930126039F4C
:104EB800DDF8289007E0514600230A22204601F039
:104EC80067F88246013641465046FFF7E9FB4E45F2
:104ED80000F1300307F8013BEDDB0A9A0026002AAF
:104EE800CCBF93464FF0010B039A934451460122DD
:104EF8002046049301F0FCF94146824601F06CFA21
:104F0800002840F3A8811BF8013C039A0BF1FF3BF2
:104F180004E05A4500F0E4811BF8013D392B0BF100
:104F28000109F6D001338BF800304146204601F0E4
:104F380025F855B12EB1AE4203D03146204601F0D6
:104F48001DF82946204601F019F85146204601F07F
:104F580015F8002389F80030269B1A46079B136032
:104F6800289B002B3FF467AC0398C3F800901BB054
:104F7800BDE8F08F1C200B9B064403440B93069B53
:104F88000344069371E70125DEE4C0F1200006FA28
:104F980000F074E401465A46204601F05DF9249B6E
:104FA8008046012B40F3D1814FF00009D8F810302A
:104FB80008EB8303186901F039F8C0F1200041E7D4
:104FC800294600230A22204600F0E2FF129B0546EC
:104FD800002B40F3158307970A93002E00F32281D4
:104FE800B9F1000F40F0F9812F460399049B0E4652
:104FF80003F001024B1E24990C920A430B920A9A61
:105008001A440A9241465046FFF74AFB294683460E
:10501800504601F0E1F93A4641468146204601F002
:10502800F9F9C26801460BF13003002A42D1069013
:105038005046089301F0D0F906990490204600F0F4
:105048009DFF049A089B1AB90B99002900F0CB829E
:10505800B9F1000FC0F28581249941EA09090C9938
:1050680051EA090100F07D81002A00F3D1810A9AF2
:1050780006F101099642CB46337000F0E3815146B0
:1050880000230A22204600F083FFBD4282462946BB
:105098004FF000034FF00A02204612D000F078FFCC
:1050A8003946054600230A22204600F071FF4E4685
:1050B8000746A7E72046049300F060FF0122049BFF
:1050C800C6E700F065FF4E46054607469AE700BF6B
:1050D800E8880008249B022B7EDC0C9B002B7FF4C5
:1050E8007CAF41465046FFF7DBFA079ADDF80CB073
:1050F80000F130030132002607920BF8013BF5E678
:105108004146504601F068F90028BFF6C4AE514642
:1051180000230A22204600F03BFF079B82465F1EC1
:105128000C9B002B7FF44CAF129B002B40F3628248
:105138000A93BBE60D9A5146204601F08DF8824647
:105148006CE6BA4B0393033319E4DDE90412002932
:105158007FF471AEC2F31303002B7FF46CAEB44B33
:105168001340002B00F02A820B9B4FF001090133FA
:105178000B93069B013306935FE601230C93259B53
:10518800079A134412930133012B1E46B8BF012618
:105198000A930021172E61647FF743AC0122042390
:1051A8005B0003F11400B042114602F10102F7D985
:1051B800616436E401230C93259B002B46DD1E46D3
:1051C80012930A93E5E700230C93D8E700230C9386
:1051D800F2E7129B07970A930A9B002B7FF440ADD6
:1051E80041460522204600F0D3FE804650464146FF
:1051F80001F0F2F800287FF733AD039F31223B46D8
:10520800079E03F8012B013603934146204600F020
:10521800B5FE731CDDF80C9007930397002D7FF4FF
:1052280090AE92E629463246204601F061F80546DE
:10523800D6E60D9B0D97FB1A9B4400278CE5DDE90C
:1052480008234FF00209CDE9102317E40123259321
:105258000A93FFF7E2BB03D1049BDB073FF553AE8C
:10526800D9461BF8013D302BFAD05EE64846FBF7DD
:1052780029F932463B46FBF755FA00226D4BFAF7FF
:10528800D5FF8046A1F150793046394600226A4B55
:10529800FAF7CAFF42464B4606460F46FBF7D2FCD2
:1052A800002840F0878142463046394609F10043DC
:1052B800FBF7AAFC00283FF4AAAC4FF000084546CB
:1052C800CEE40F9A002A00F0C380069A03F2334313
:1052D8001A4406920B9A0D9F16461A440B9247E5FC
:1052E8003123079A01320792039A13701DE600F0E2
:1052F8004B81DDE90801079B5D42504B05F00F0229
:1053080003EBC203D3E90023FBF70CFA2D11064681
:105318000F4600F07D8100234FF00209DFF820815D
:10532800EA0705D5D8E90023FBF7FCF901239944DE
:105338006D1008F10808F3D1002B3FF4BAAB06460C
:105348000F46FFF7B6BB0E9020E5049B002B7FF4B9
:105358002BAEDDE90412C2F31303002B3FF4FFAEBA
:1053680022E6002A12DD514601222046049300F06D
:10537800BFFF4146824601F02FF80028049B40F306
:105388002C81392B00F00C810BF13103B14609F85F
:10539800013B079B2E4601333D460793C5E555461D
:1053A800089CDDF818A002460B46FAF73FFFDDE936
:1053B800042306460F46FBF745FC60B9DDE90423E4
:1053C80030463946FBF716FC00283FF4A3AC18F02A
:1053D800010F3FF49FAC039A0AE42046696800F085
:1053E800A7FD0646002800F017812B6905F10C017E
:1053F80002339A000C30FBF71FF931460122204690
:1054080000F076FF0746F0E5DDE90A239E1AAFE4CF
:10541800392B00F0C580B146013309F8013B079BE1
:105428002E4601333D4607937FE500BF0C890008EF
:105438000000F07F00001C4000001440588A00085B
:10544800308A0008079A2E4601323D4607924DE5FC
:10545800189B069A0B99C3F136031A4406920A461A
:105468001A440E460D9F0B9282E410987F494246DB
:1054780001EBC0014B4651E90201FBF753F9024623
:105488000B4630463946CDE91423FBF7FBFB804633
:10549800FBF718F80B46024639463046FAF7C4FEC1
:1054A80006461098039D08F1300301280F4605F8B9
:1054B800013B1ED0109B039A1344984600226C4B64
:1054C80030463946FBF72EF90F460646FBF7DAFB5E
:1054D8008146FAF7F7FF02460B4630463946FAF797
:1054E800A3FE09F1300905F8019B454506460F461C
:1054F800E4D1DDE9148900225E4B40464946FAF7BB
:1055080095FE32463B46FBF77FFB002858D14246C2
:105518004B4600205749FAF787FE32463B46FBF7D1
:1055280091FB00283FF473AB15F8013CA946302BDA
:1055380005F1FF35F8D0139B0133079305E50A9B66
:10554800002B3FF493AE129D002D7FF760AB002235
:10555800474B30463946FBF7E5F806460F4609F152
:105568000100FAF7AFFF32463B46FBF7DBF80022B3
:10557800414BFAF75BFE079A8046013A1392A1F174
:1055880050791095FFF7B6BA4FF00209DDE90867C0
:10559800FFF78FBA079B013307933123FFF72FBB20
:1055A800B3463923079A2E4601323D4607920BF837
:1055B800013BAAE44FF0000845461EE699463CE444
:1055C800139B039A0793FFF713BBDDF858A0109CB1
:1055D800139BA94601330793B7E47FF4D7AEDA07E4
:1055E8007FF5D4AECDE6392BDAD0B9F1000F3FF70D
:1055F800CBAECBE6249B022B3FF7EBAD079770E5CC
:10560800249B022B3FF7E5AD129B07970A93E4E42E
:105618004FF00209FFF74DBA024640F2EA21174B54
:10562800174801F0FBF8174B0393FFF704B900255F
:1056380020462946656400F07BFC039058B9002297
:105648004FF4D5710D4B0E4801F0E8F83FF40DAC5E
:10565800C0F13C008FE44FF0FF3312930A9301230B
:10566800039A259522640C93FFF7D1BA588A00084B
:10567800000024400000E03F00001C401C89000896
:105688003089000810890008F8B50C46234F0646F3
:1056980000F042FCBB68C4F57E615D680F3125F0FF
:1056A80003054B1923F47F6323F00F03A3F58054FC
:1056B800B4F5805F07DB0021304600F0EDFFBB68E2
:1056C8002B44984204D0304600F02CFC0020F8BD52
:1056D8003046614200F0E0FF01300DD0104AB96851
:1056E80013682D1B45F0010530461B1B4D601360E8
:1056F80000F018FC0120F8BD0021304600F0CCFF76
:10570800BA68831A0F2BDEDD064943F001030C68E3
:105718000349001B53600860D5E700BF3C04002024
:105728004C0A00204408002000295FD0F8B50C4638
:10573800064600F0F1FB54F8043CDFF8F4C1A4F18C
:10574800080023F001014218DCF8087055689742F8
:1057580025F0030500F08980DF07556034D454F83C
:10576800087C0CF10804C01B83683944A3426AD042
:1057780057197F68D0F80CE0C3F80CE0CEF8083071
:10578800FB0740F1978041F0010343601160B1F5D8
:10579800007F34D20122DCF80440CB0849091344C5
:1057A80002FA01F121430CEBC3025CF83340083ADA
:1057B800C0E90242CCF804104CF83300E0603046EF
:1057C800BDE8F84000F0AEBB53195B68DF070ED4A4
:1057D80029440CF108049368A34273D0D46841F0BB
:1057E8000102DC60A36042604150D0E7704741F09D
:1057F8000103B1F5007F44F8043C1160CAD3B1F548
:10580800206F4FEA51234AD28B0903F13905ED0085
:1058180003F138025CF805300CEB0504083C9C42A7
:1058280059D05A6822F003028A4202D99B689C42E6
:10583800F7D1DC68C0E90234A060D8603046BDE822
:10584800F84000F06FBB53195B68DB0766D4D2E9F8
:105858000223294441F00104D3609A604460415016
:105868003046BDE8F84000F05DBBDB07294407D4AB
:1058780054F8084C001BD0E902232144D3609A60F5
:10588800294B41F001021B6842608B42CCF80800AA
:1058980095D8264B30461968FFF7F6FE8FE7142B8C
:1058A8000AD9542B21D80B0B03F16F05ED0003F136
:1058B8006E02AFE729448EE703F15C05ED0003F1C2
:1058C8005B02A7E741F00103CCE90400C0E9024408
:1058D8004360415073E70125DCF80410921005FA83
:1058E80002F20A43CCF80420A4E7B3F5AA7F06D84D
:1058F800CB0B03F17805ED0003F177028AE740F25C
:105908005452934206D88B0C03F17D05ED0003F148
:105918007C027FE74FF47E757E227BE741F001032E
:10592800436011604BE700BF480800207C0A002054
:105938003C040020004870473C0900202DE9F04F46
:1059480001F10B05162D064683B024D8102900F264
:10595800B68000F0E1FA102502201823DFF8E88469
:1059680043445C68A3F10802944200F0B480636881
:10597800E16823F0030323445A68A56842F0010252
:10598800E96030468D6008345A6000F0CBFA204652
:1059980003B0BDE8F08F35F0070500F19080A9420B
:1059A80000F28D8000F0B8FAB5F5FC7FC0F0858173
:1059B8006B0A00F08B80042B00F25B81AB0903F1CA
:1059C800390003F13807C100DFF87C8441444C6892
:1059D8000839A14206D10CE0002A80F22281E4684D
:1059E800A14206D0636823F003035A1B0F2AF3DD94
:1059F8003846D8F81040DFF854C4644577D0626858
:105A080022F00302531B0F2B00F36581002BC8E91A
:105A180004CC80F25681B2F5007F80F00681012126
:105A2800D30852090B4401FA02F2D8F8041058F8C6
:105A3800337008EBC30E0A43AEF10801C4E90271E2
:105A4800C8F8042048F83340FC60012183109940CD
:105A5800914253D8114206D120F003004900114267
:105A680000F10400FAD008EBC0094C468646E76806
:105A7800BC4207D109E1002B80F21081FF68BC42CB
:105A880000F003817A6822F00302531B0F2BF2DD2A
:105A980045F0010E3046D7E902413D4443F0010686
:105AA800C7F804E0E1608C60C8E90455C5E902CC98
:105AB8006E60BB5000F036FA07F1080402E00C23D0
:105AC80000243360204603B0BDE8F08F4FF4007126
