:020000040800F2
:10000000000001203D1C0008DD030008DF0300089C
:10001000E1030008E3030008E50300080000000016
:10002000000000000000000000000000E7030008DE
:10003000E903000800000000EB030008ED030008DE
:10004000851C0008851C0008851C0008851C00080C
:10005000851C0008851C0008851C0008851C0008FC
:10006000851C0008851C0008851C0008851C0008EC
:10007000851C0008851C0008F5030008050400081D
:10008000851C0008851C0008851C0008851C0008CC
:10009000851C0008851C0008851C0008851C0008BC
:1000A000851C0008851C0008851C0008851C0008AC
:1000B00015040008851C0008851C0008851C000824
:1000C000851C0008851C0008851C0008851C00088C
:1000D000851C000819040008851C0008851C000800
:1000E00029040008851C0008851C0008851C0008E0
:1000F000851C0008851C0008851C0008851C00085C
:10010000851C0008851C0008851C0008851C00084B
:10011000851C0008851C0008851C0008851C00083B
:10012000851C0008851C0008851C0008851C00082B
:1001300000000000000000000000000000000000BF
:1001400000000000000000000000000000000000AF
:10015000000000000000000000000000000000009F
:10016000000000000000000000000000000000008F
:10017000000000000000000000000000000000007F
:10018000000000000000000000000000000000006F
:10019000000000000000000000000000000000005F
:1001A000000000000000000000000000000000004F
:1001B000000000000000000000000000000000003F
:1001C000000000000000000000000000000000002F
:1001D000000000000000000000000000000000001F
:0401E0005FF8E0F1F3
:1001E40010B5054C237833B9044B13B10448AFF36D
:1001F40000800123237010BD3C0400200000000097
:10020400B01D000808B5034B1BB103490348AFF305
:10021400008008BD0000000040040020B01D00085C
:1002240030B597B000240F9411940794089409945E
:100234000A940B94019402940394049405940694F0
:1002440009230C934FF480330D930E9401221092E2
:1002540012920225139514934FF4E01315930CA8EE
:1002640000F01CFD0F230793089509944FF4806355
:100274000A930B94294607A800F04EFF01954FF40A
:100284000043039301A801F023F817B030BD000028
:1002940008B500F0EFF8FFF7C3FF01F00FFC01F021
:1002A40031FC01F077FA06E00121054800F0D7FCA3
:1002B400642000F003F901F0F6FB0028FBD0F3E71B
:1002C400000C014082B00E4B9A6942F001029A611F
:1002D4009A6902F001020092009ADA6942F08052AF
:1002E400DA61DB6903F080530193019B054A53688B
:1002F40023F0E06343F00073536002B0704700BF23
:10030400001002400000014070B586B00023029343
:100314000393049305930268294B9A4201D006B0D3
:1003240070BD044603F558439A6942F480429A61C9
:100334009A6902F480420092009A9A6942F0040297
:100344009A619B6903F004030193019B4FF40073CA
:10035400029302230393032305931A4E02A9304602
:1003640000F054FB4FF48063029300250395049539
:1003740002A9304600F04AFB134B144A1A601022BB
:100384005A609D608022DA601D615D619D61DD615E
:1003940023635C620E4B0F4919605D609D60DA60F7
:1003A4001D615D619D61DD6163635C622A4629466E
:1003B400252000F0A9F8252000F0DAF8AFE700BF07
:1003C4000038014000080140B0050020440002400C
:1003D4006C050020580002407047FEE7FEE7FEE788
:1003E400FEE770477047704708B500F055F808BD40
:1003F40008B5024800F094F908BD00BFB00500201C
:1004040008B5024800F08CF908BD00BF6C05002057
:100414007047000008B5024801F020F908BD00BF8C
:100424005C0400207047704710B504460E4B1878E2
:100434004FF47A73B3FBF0F30C4A1068B0FBF3F09B
:1004440000F0A4F868B90F2C01D901200AE00022B9
:1004540021464FF0FF3000F057F8054B1C60002098
:1004640000E0012010BD00BF0400002000000020B7
:100474000800002008B5074A136843F0100313600E
:10048400032000F02FF80020FFF7CEFFFFF71AFF3C
:10049400002008BD00200240034A1168034B1B786A
:1004A4000B441360704700BF580400200400002070
:1004B400014B1868704700BF5804002038B5044643
:1004C400FFF7F6FF0546B4F1FF3F02D0044B1B785B
:1004D4001C44FFF7EDFF401BA042FAD338BD00BF18
:1004E40004000020074AD36823F4E0631B041B0CB8
:1004F400000200F4E060034343F0BF6343F40033BD
:10050400D360704700ED00E030B4174BDB68C3F3F1
:100514000223C3F10704042C28BF04241D1D062D47
:1005240018D9033B4FF0FF3505FA04F421EA04011E
:10053400994005FA03F322EA0303194300280BDB6D
:100544000901C9B200F1604000F5614080F8001370
:1005540030BC70470023E5E700F00F000901C9B281
:10056400024B1954F4E700BF00ED00E014ED00E085
:10057400002807DB00F01F02400901239340024AD0
:1005840042F82030704700BF00E100E00138B0F1CC
:10059400807F0AD2064B5860064AF02182F8231065
:1005A4000020986007221A6070470120704700BF3E
:1005B40010E000E000ED00E008B590F82130022BD7
:1005C40003D004238363012008BD0268136823F069
:1005D4000E0313600268136823F0010313600368B9
:1005E4004B4A93424ED9783A934224D014329342E0
:1005F40030D0143293422FD0143293422FD014327D
:1006040093422FD0143293422FD0143293422FD0DE
:1006140002F5627293422ED0143293422DD01432DA
:1006240093422CD01432934202D04FF4803203E030
:100634004FF4805200E00122364B5A60012380F8C7
:100644002130002380F82030436B002B5ED0984784
:100654000020B9E71022EFE74FF48072ECE74FF483
:100664008052E9E74FF48032E6E74FF48012E3E783
:100674004FF08072E0E70122DEE71022DCE74FF45E
:100684008072D9E7244A934224D01432934225D06D
:100694001432934224D01432934224D0143293421D
:1006A40024D01432934224D01432934224D002F53D
:1006B4006272934223D01432934222D01432934272
:1006C40021D01432934202D04FF4803203E04FF42D
:1006D400805200E00122114B5A60AFE71022FAE782
:1006E4004FF48072F7E74FF48052F4E74FF480320E
:1006F400F1E74FF48012EEE74FF08072EBE701224E
:10070400E9E71022E7E74FF48072E4E700205BE7B3
:100714008000024000040240080002400000024041
:1007240038B5C36B1A6804682568016C04238B40D0
:10073400134200F09B8015F0040F00F097802368AB
:1007440013F0200F03D1236823F00403236003680C
:10075400AA4A934246D9783A934224D01432934217
:1007640028D01432934227D01432934227D0143223
:10077400934227D01432934227D01432934227D085
:1007840002F56272934226D01432934225D0143279
:10079400934224D01432934202D04FF4802203E0D7
:1007A4004FF4804200E00422954B5A60C36A03B1BF
:1007B400984738BD4022F7E74FF48062F4E74FF4DE
:1007C4008042F1E74FF48022EEE74FF48002EBE73A
:1007D4004FF08062E8E70422E6E74022E4E74FF4C2
:1007E4008062E1E7874A934224D01432934225D0B1
:1007F4001432934224D01432934224D014329342BC
:1008040024D01432934224D01432934224D002F5DB
:100814006272934223D01432934222D01432934210
:1008240021D01432934202D04FF4802203E04FF4DB
:10083400804200E00422744B5A60B7E74022FAE792
:100844004FF48062F7E74FF48042F4E74FF48022DC
:10085400F1E74FF48002EEE74FF08062EBE7042209
:10086400E9E74022E7E74FF48062E4E702238B40A4
:10087400134200F0A38015F0020F00F09F8023685C
:1008840013F0200F06D1236823F00A032360012309
:1008940080F821300368594A93424BD9783A9342FD
:1008A40024D0143293422DD0143293422CD01432DB
:1008B40093422CD0143293422CD0143293422CD035
:1008C400143293422CD002F5627293422BD014322C
:1008D40093422AD01432934229D01432934202D044
:1008E4004FF4003203E04FF4005200E00222444B84
:1008F4005A60002380F82030836A002B3FF459AFFC
:10090400984756E72022F2E74FF40072EFE74FF4DE
:100914000052ECE74FF40032E9E74FF40012E6E747
:100924004FF00072E3E70222E1E72022DFE74FF411
:100934000072DCE7334A934224D01432934225D028
:100944001432934224D01432934224D0143293426A
:1009540024D01432934224D01432934224D002F58A
:100964006272934223D01432934222D014329342BF
:1009740021D01432934202D04FF4003203E04FF4FA
:10098400005200E00222204B5A60B2E72022FAE72C
:100994004FF40072F7E74FF40052F4E74FF40032DB
:1009A400F1E74FF40012EEE74FF00072EBE702229A
:1009B400E9E72022E7E74FF40072E4E7082303FAAB
:1009C40001F111423FF4F5AE15F0080F3FF4F1AE1A
:1009D400236823F00E032360026CC16B012303FA26
:1009E40002F24A60836380F82130002380F82030CB
:1009F400036B002B3FF4DDAE9847DAE6800002403B
:100A0400000402400800024000000240F0B482B03A
:100A140000252C46ABE0854FBB4210D007D9844F4C
:100A2400BB420CD007F58037BB4208D013E0A7F5D2
:100A34008017BB4203D007F57027BB4207D18B68F0
:100A4400002B60D0012B59D04261082503E0A7F5A3
:100A54008017BB42F3D0FF2E57D88446FF2E57D8B9
:100A6400A200DCF800300F27974023EA070305FAB9
:100A740002F21343CCF800304B6813F0805F75D05A
:100A84006C4B9A6942F001029A619B6903F001037D
:100A94000193019BA208971C674B53F827C004F0ED
:100AA40003039F000F23BB402CEA030C634B9842C3
:100AB40034D003F58063984200F0948003F580639A
:100AC400984200F0918003F58063984200F08E8094
:100AD40003F58063984200F08B8003F580639842AD
:100AE4001AD006231BE0CD68B5E7CD680435B2E71C
:100AF400CD680835AFE7CD680C35ACE70261082551
:100B0400A9E70025A7E70425A5E700F1040CA5E75C
:100B1400A4F108029200A4E7052300E00023BB40EF
:100B240043EA0C030232444F47F822304B6813F473
:100B3400803F5FD0424A1368334313604B6813F419
:100B4400003F5DD03E4A5368334353604B6813F40F
:100B5400801F5BD03A4A9368334393604B6813F425
:100B6400001F59D0364AD3681E43D66001340B683F
:100B740033FA04F256D00122A24003EA020632EA12
:100B84000303F3D14B68122B3FF645AF122B3FF60C
:100B940062AF01A757F823F0430A0008EB0A0008E4
:100BA400F50A0008070B00085B0A00085B0A000846
:100BB4005B0A00085B0A00085B0A00085B0A00087D
:100BC4005B0A00085B0A00085B0A00085B0A00086D
:100BD4005B0A00085B0A00085B0A0008EF0A0008C9
:100BE400FB0A000801239AE7022398E7032396E708
:100BF400042394E7124A136823EA060313609DE76B
:100C04000F4A536823EA060353609FE70C4A93682C
:100C140023EA06039360A1E7094AD36823EA060698
:100C2400D660A3E702B0F0BC704700BF00002210FA
:100C34000000311000100240000001400008014093
:100C4400000401408368194201D00120704700204C
:100C540070470AB101617047090401617047C368B4
:100C640001EA030221EA030141EA024101617047FA
:100C740082B0084B1B68084AA2FB03235B0A00FBF3
:100C840003F3019300BF019B5A1E0192002BF9D17B
:100C940002B0704700000020D34D6210002800F01D
:100CA400F18170B582B00446036813F0010F2CD0B3
:100CB400AA4B5B6803F00C03042B1DD0A74B5B68A5
:100CC40003F00C03082B12D06368B3F5803F41D0C6
:100CD400002B55D103F1804303F504331A6822F441
:100CE40080321A601A6822F480221A6037E09B4B23
:100CF4005B6813F4803FE7D0984B1B6813F4003F04
:100D040003D06368002B00F0BF81236813F0020F47
:100D140075D0924B5B6813F00C0F5FD08F4B5B6800
:100D240003F00C03082B54D02369002B00F08980B6
:100D34008B4B01221A60FFF7BBFB0546874B1B68F0
:100D440013F0020F74D1FFF7B3FB401B0228F5D94F
:100D540003209EE1814A136843F48033136063687F
:100D640043B3FFF7A5FB05467C4B1B6813F4003F18
:100D7400CBD1FFF79DFB401B6428F5D9032088E104
:100D8400B3F5A02F09D0754B1A6822F480321A608B
:100D94001A6822F480221A60E1E703F18043A3F584
:100DA4003C331A6842F480221A601A6842F4803292
:100DB4001A60D4E7FFF77CFB0546684B1B6813F405
:100DC400003FA2D0FFF774FB401B6428F5D9032031
:100DD4005FE1624B5B6813F4803FA5D15F4B1B68F6
:100DE40013F0020F03D02369012B40F04F815B4ABB
:100DF400136823F0F803616943EAC10313602368AD
:100E040013F0080F32D0A369002B45D0554B0122B3
:100E14001A60FFF74DFB0546504B5B6A13F0020F57
:100E240021D1FFF745FB401B0228F5D9032030E10F
:100E34004A4A136823F0F803616943EAC103136063
:100E4400DDE7474B00221A60FFF732FB0546434BB0
:100E54001B6813F0020FD2D0FFF72AFB401B0228B5
:100E6400F5D9032015E10120FFF702FF236813F0F1
:100E7400040F00F09780394BDB6913F0805F1DD1BC
:100E8400364BDA6942F08052DA61DB6903F0805351
:100E94000193019B012512E0324B00221A60FFF7F7
:100EA40007FB05462D4B5B6A13F0020FDED0FFF7FC
:100EB400FFFA401B0228F5D90320EAE000252A4B5B
:100EC4001B6813F4807F11D0E368012B22D0002B20
:100ED40038D103F1804303F504331A6A22F0010286
:100EE4001A621A6A22F004021A6218E01E4A13688F
:100EF40043F480731360FFF7DBFA06461A4B1B6852
:100F040013F4807FE0D1FFF7D3FA801B6428F5D96E
:100F14000320BEE0114A136A43F001031362E3683D
:100F240073B3FFF7C5FA06460C4B1B6A13F0020FA6
:100F340037D1FFF7BDFA801B41F288339842F3D9C9
:100F44000320A6E0052B11D0044B1A6A22F00102FB
:100F54001A621A6A22F004021A62E0E700100240E0
:100F64000000424280044242007000404D4B1A6A25
:100F740042F004021A621A6A42F001021A62CEE7CF
:100F8400FFF796FA0646474B1B6A13F0020F08D088
:100F9400FFF78EFA801B41F288339842F3D903207D
:100FA40077E0E5B9E369002B72D03E4A526802F05B
:100FB4000C02082A56D0022B17D03B4B00221A6091
:100FC400FFF776FA0446374B1B6813F0007F47D0CF
:100FD400FFF76EFA001B0228F5D9032059E0314AC5
:100FE400D36923F08053D361DCE72F4B00221A60CE
:100FF400FFF75EFA05462B4B1B6813F0007F06D003
:10100400FFF756FA401B0228F5D9032041E0236A72
:10101400B3F5803F1AD023494B6823F47413226A32
:10102400606A024313434B601F4B01221A60FFF7AF
:101034003FFA04461B4B1B6813F0007F0ED1FFF7E9
:1010440037FA001B0228F5D9032022E0154A536819
:1010540023F40033A1680B435360DCE7002018E05D
:10106400002016E0012B16D00E4B5B6803F4803190
:10107400226A914211D103F47013626A93420ED131
:10108400002006E001207047012002E0012000E07A
:10109400002002B070BD0120FBE70120F9E7012028
:1010A400F7E700BF001002406000424286B0164BD2
:1010B4000FCB0DF1180C0CE90F0040F20123ADF831
:1010C4000430124B5B6803F00C02082A02D010486B
:1010D40006B07047C3F38342624412F8102C13F431
:1010E400803F0CD0094B5B68C3F34043634413F85F
:1010F400143C074800FB02F0B0FBF3F0E8E70548B6
:1011040000FB02F0E4E700BFE01D0008001002400D
:1011140000127A0000093D00002800F0A08070B59C
:101124000D460446524B1B6803F007038B420BD257
:101134004F4A136823F007030B431360136803F04B
:1011440007038B4240F08D80236813F0020F17D001
:1011540013F0040F04D0474A536843F4E063536028
:10116400236813F0080F04D0424A536843F46053D1
:101174005360404A536823F0F003A1680B43536063
:10118400236813F0010F31D06368012B20D0022BA8
:1011940025D0384A126812F0020F64D035494A68E3
:1011A40022F0030213434B60FFF782F90646314BEA
:1011B4005B6803F00C036268B3EB820F16D0FFF791
:1011C40077F9801B41F288339842F0D9032045E037
:1011D400284A126812F4003FE0D101203EE0254A7B
:1011E400126812F0007FD9D1012037E0204B1B6830
:1011F40003F00703AB420AD91D4A136823F007031F
:101204002B431360136803F00703AB422DD123680B
:1012140013F0040F06D0174A536823F4E063E1681F
:101224000B435360236813F0080F07D0114A536827
:1012340023F46053216943EAC1035360FFF736FF87
:101244000C4B5B68C3F303130B4AD35CD8400B4BC2
:1012540018600B4B1868FFF7E7F8002070BD0120F9
:1012640070470120FAE70120F8E70120F6E700BF04
:101274000020024000100240C81D000800000020A9
:1012840008000020014B1868704700BF00000020D0
:1012940008B5FFF7F7FF044B5B68C3F30223034A67
:1012A400D35CD84008BD00BF00100240D81D000820
:1012B40008B5FFF7E7FF044B5B68C3F3C223034A97
:1012C400D35CD84008BD00BF00100240D81D000800
:1012D40070B582B00446036813F0010F34D03E4B5E
:1012E400DB6913F0805F47D13B4BDA6942F08052EF
:1012F400DA61DB6903F080530193019B0125374BCD
:101304001B6813F4807F39D0334B1B6A13F440738A
:1013140011D0626802F440729A420CD02E4A136AC9
:1013240023F440702E4901260E6000260E601062E0
:1013340013F0010F36D1284A136A23F4407361680D
:101344000B431362002D3ED1236813F0020F06D025
:10135400214A536823F44043A1680B435360236834
:1013640013F0100F34D01C4A536823F480036169CE
:101374000B43536000202CE00025C0E7174A136894
:1013840043F480731360FFF793F80646134B1B680E
:1013940013F4807FB8D1FFF78BF8801B6428F5D94C
:1013A400032016E0FFF784F806460B4B1B6A13F084
:1013B400020FC0D1FFF77CF8801B41F288339842BA
:1013C400F3D9032005E0D36923F08053D361BBE74D
:1013D400002002B070BD00BF001002400070004049
:1013E400400442420268D36823F49073D3600268D5
:1013F400536923F001035361202380F83A30704786
:1014040090F83930DBB2212B01D002207047836879
:10141400B3F5805F17D0036A5A1C02621A78036816
:101424005A60C38C9BB2013B9BB2C3844BB9026824
:10143400D36823F08003D3600268D36843F0400389
:10144400D360002070470369002BE4D1036A1B8832
:101454000268C3F308035360036A02330362E0E7DC
:1014640010B504460268136923F44053C1680B4362
:10147400136183680269134342691A430168CB68A4
:1014840023F4B05323F00C031343CB600268536975
:1014940023F4407381690B4353610268124B9A42EF
:1014A4001FD0FFF7F5FE00EB800303EB83036268B4
:1014B4009200B3FBF2F20D48A0FB02314909642308
:1014C40003FB11231B013233A0FB03235B0903F04D
:1014D400F00202EB011203F00F03216813448B6046
:1014E40010BDFFF7E5FEDEE7003801401F85EB5134
:1014F40058B310B5044690F839300BB3242384F85C
:1015040039302268D36823F40053D3602046FFF7B0
:10151400A7FF2268136923F4904313612268536977
:1015240023F02A0353612268D36843F40053D36041
:101534000020E063202384F8393084F83A3010BD69
:1015440080F83830FEF7E0FED8E70120704790F8C5
:101554003A30DBB2202B20D109B312B390F83830E3
:10156400012B20D081628285C2850023C36322229D
:1015740080F83A2080F838300168CA6842F48072F2
:10158400CA6001684A6942F001024A610168CA6896
:1015940042F02002CA6018467047022070470120BA
:1015A40070470120704702207047704708B50168F2
:1015B400CA6822F04002CA60202280F83920FFF76E
:1015C400F4FF002008BD08B590F83A30DBB2222BB6
:1015D40041D18368B3F5805F14D0826AB3F5805F2C
:1015E40002D0E3B90369D3B903685B681370836AF3
:1015F40001338362C38D9BB2013B9BB2C385A3B10C
:10160400002008BD0269002AE7D1826A03685B688A
:10161400C3F308031380836A02338362EAE703682F
:101624005B6803F07F031370E1E70268D36823F07B
:101634002003D3600268D36823F48073D360026804
:10164400536923F001035361202380F83A3000F0FA
:10165400B7FA0020D5E70220D3E7704710B5044657
:1016640002681368D168526913F00F0005D113F0B2
:10167400200F02D011F0200F13D128B112F0010273
:1016840013D111F4907F10D113F0800F02D011F018
:10169400800F6CD113F0400F02D011F0400F6AD1CB
:1016A40010BD2046FFF78FFFFAE713F0010F06D0B5
:1016B40011F4807F03D0E06B40F00100E06313F08D
:1016C400040F04D01AB1E06B40F00200E06313F0A1
:1016D400020F04D01AB1E06B40F00400E06313F091
:1016E400080F07D011F0200F00D11AB1E26B42F0BD
:1016F4000802E263E26B002AD2D013F0200F02D07A
:1017040011F0200F21D123685B6903F04003E26BE1
:1017140012F0080F00D123B32046FFF763FE2368BD
:101724005A6912F0400F18D05A6922F040025A61E7
:10173400636B73B1124A5A63606BFEF73DFF002876
:10174400AED0606B436B9847AAE72046FFF73BFF98
:10175400D9E72046FFF781FFA2E72046FFF77DFF88
:101764009EE72046FFF779FF0023E36398E72046CE
:10177400FFF746FE94E72046FFF718FF90E700BF07
:101784008917000808B5406A0023C385C384FFF79E
:1017940064FF08BD10B586B00023049303F18043B1
:1017A40003F504339A6942F008029A619B6903F0D5
:1017B40008030193019BC023029311230393032382
:1017C4000593084C02A92046FFF720F90122402185
:1017D4002046FFF73EFA012280212046FFF739FA1E
:1017E40006B010BD000C014082B000EBC0000190B7
:1017F40000BF019B5A1E0192002BF9D102B0704721
:1018040000B585B08023009368B1112301930323AD
:10181400039369460548FFF7F9F80A20FFF7E4FF48
:1018240005B05DF804FB00230193F0E7000C0140D0
:1018340010B50120FFF7E4FF0F4C01228021204660
:10184400FFF707FA0220FFF7CFFF012240212046CD
:10185400FFF7FFF90220FFF7C7FF0022802120468F
:10186400FFF7F7F90420FFF7BFFF002240212046CD
:10187400FFF7EFF910BD00BF000C014010B50F4C8D
:10188400002240212046FFF7E4F90022802120466F
:10189400FFF7DFF90220FFF7A7FF012240212046CE
:1018A400FFF7D7F90220FFF79FFF0122802120468E
:1018B400FFF7CFF90420FFF797FF10BD000C01409C
:1018C40010B5144C002240212046FFF7C2F9012034
:1018D400FFF78AFF012240212046FFF7BAF90020D2
:1018E400FFF78EFF002480210A48FFF7ABF938B1D7
:1018F4000134E4B2C82CF6D9FFF7C0FF002008E099
:101904000120FFF77DFF002240210248FFF7A1F9E3
:10191400012010BD000C014010B50F4C00224021E5
:101924002046FFF796F90120FFF76AFF0022802185
:101934002046FFF78EF90220FFF756FF01224021CF
:101944002046FFF786F90220FFF74EFF00224021D0
:101954002046FFF77EF910BD000C014010B50F4C76
:10196400002240212046FFF774F90120FFF748FFC9
:10197400012280212046FFF76CF90220FFF734FF93
:10198400012240212046FFF764F90220FFF72CFFD3
:10199400002240212046FFF75CF910BD000C0140F5
:1019A40038B504460120FFF72BFF002513E0012280
:1019B40080211348FFF74DF96400E4B20220FFF7D9
:1019C40013FF012240210E48FFF743F90220FFF7DD
:1019D4000BFF0135EDB2072D10D800224021084835
:1019E400FFF737F90220FFF7FFFE14F0800FDED176
:1019F400002280210248FFF72CF9DDE738BD00BF43
:101A0400000C0140F8B507460020FFF7F9FE00245A
:101A1400254604E00220FFF7E7FE0135EDB2072D6D
:101A240018D8104E002240213046FFF712F9022048
:101A3400FFF7DAFE012240213046FFF70AF964007D
:101A4400E4B280213046FFF7FDF80028E2D044F0EC
:101A54000104DFE71FB9FFF75FFF2046F8BDFFF77A
:101A64007DFFFAE7000C014038B504460D46FFF748
:101A7400DFFE2046FFF794FFFFF722FF2846FFF71B
:101A84008FFFFFF71DFFFFF7D3FE44F00100FFF7C0
:101A940087FFFFF715FF0120FFF7B4FF0446FFF7A8
:101AA400EDFE204638BD08B50021D020FFF7DCFF4D
:101AB400EA2801D0002008BD0120FCE730B587B03A
:101AC4000E4B9A6942F008029A619B6903F008037D
:101AD4000193019B012402940023039302230493A2
:101AE4000594074D02A92846FEF790FF2246214699
:101AF4002846FFF7AEF807B030BD00BF0010024023
:101B0400000C0140F0B589B0284B9A6942F00402F8
:101B14009A619A6902F004020192019A9A6942F464
:101B240080429A619A6902F480420292029A9A6906
:101B340042F001029A619B6903F001030393039B42
:101B44004FF400730493022305930126069603249D
:101B54000794174F04A93846FEF758FF4FF48063E3
:101B640004930025059504A93846FEF74FFF252068
:101B7400FEF7FEFC224621462520FEF7C5FC0D4C4F
:101B84000D4B23604FF4E1336360A5600C23636164
:101B9400A5612561E560E5612046FFF7A9FC3246B1
:101BA40006492046FFF7D3FC09B0F0BD00100240FF
:101BB400000801405C040020003801406805002052
:101BC4000268194B9A4200D07047184A1388B2F938
:101BD4000020002AF8DB13F4804F0ED0144A127848
:101BE4000A2A03D0114B00221A8070476FEA43433C
:101BF4006FEA53430D4A138070470D4A12780D2A39
:101C04000DD0C3F30D010B48425401339BB2074A74
:101C14001380C72BD8D9134600221A80D4E743F483
:101C24008043024A13807047003801409C0400201E
:101C340068050020A0040020002103E00B4B5B5842
:101C4400435004310A480B4B42189A42F6D30A4ACD
:101C540002E0002342F8043B084B9A42F9D3FEF712
:101C6400E2FB00F00FF8FEF713FB7047041E0008B8
:101C7400000000203C0400203C0400201806002042
:101C8400FEE7000070B50D4E0D4D761BB61006D064
:101C9400002455F8043B01349847A642F9D1094E73
:101CA400094D00F083F8761BB61006D0002455F8D1
:101CB400043B01349847A642F9D170BDF81D0008D1
:101CC400F81D0008001E0008F81D0008024B13B19F
:101CD400024800F005B8704700000000F11C00083D
:101CE400002301461A46184600F01AB838B5084BC6
:101CF400084D5B1B9C1007D0043B1D44013C55F868
:101D040004399847002CF9D1BDE8384000F054B8A4
:101D1400041E0008001E0008704700BF704700BF83
:101D24002DE9F047DFF880A00646DAF8000098466F
:101D34000F469146FFF7F0FF1A4B1B68D3F8484152
:101D440024B365681F2D26DC5EB96B1C0235DAF8F6
:101D54000000636044F82570FFF7E0FF0020BDE851
:101D6400F087012304EB8501C1F88890D4F8882119
:101D7400AB401A43022EC4F88821C1F80881E4D18B
:101D8400D4F88C211343C4F88C31DEE703F5A67430
:101D9400C3F84841D5E7DAF80000FFF7BFFF4FF07A
:101DA400FF30DCE7F41D000838040020F8B500BF5C
:101DB400F8BC08BC9E467047F8B500BFF8BC08BC28
:041DC4009E46704780
:101DC80000000000000000000102030406070809E3
:101DD80000000000010203040203040506070809C5
:101DE8000A0B0C0D0E0F1010000000001000002050
:081DF800D11C000809020008DB
:041E0000E5010008F0
:101E04000024F400010000001000000000000000A5
:101E140000000000FC02002064030020CC0300202A
:101E240000000000000000000000000000000000AE
:101E3400000000000000000000000000000000009E
:101E4400000000000000000000000000000000008E
:101E5400000000000000000000000000000000007E
:101E6400000000000000000000000000000000006E
:101E7400000000000000000000000000000000005E
:101E8400000000000000000000000000000000004E
:101E9400000000000000000000000000000000003E
:101EA400000000000000000000000000000000002E
:101EB400000000000000000001000000000000001D
:101EC4000E33CDAB34126DE6ECDE05000B000000E2
:101ED40000000000000000000000000000000000FE
:101EE40000000000000000000000000000000000EE
:101EF40000000000000000000000000000000000DE
:101F040000000000000000000000000000000000CD
:0C2234000000000000000000F405002085
:0400000508001C3D96
:00000001FF
