:020000040800F2
:1000000000000120492F00080D1100080F11000801
:10001000111100081311000815110008000000005C
:1000200000000000000000000000000017110008A0
:1000300019110008000000001B1100081D11000824
:10004000912F0008912F0008912F0008912F000890
:10005000912F0008912F0008912F0008912F000880
:10006000912F0008912F0008912F0008912F000870
:10007000912F0008912F0008251100083511000864
:10008000912F0008912F0008912F0008912F000850
:10009000912F0008912F0008912F0008912F000840
:1000A000912F0008912F0008912F0008912F000830
:1000B00045110008912F0008912F0008912F00088A
:1000C000912F0008912F0008912F0008912F000810
:1000D000912F000849110008912F0008912F000866
:1000E00059110008912F0008912F0008912F000846
:1000F000912F0008912F0008912F0008912F0008E0
:10010000912F0008912F0008912F0008912F0008CF
:10011000912F0008912F0008912F0008912F0008BF
:10012000912F0008912F0008912F0008912F0008AF
:1001300000000000000000000000000000000000BF
:1001400000000000000000000000000000000000AF
:10015000000000000000000000000000000000009F
:10016000000000000000000000000000000000008F
:10017000000000000000000000000000000000007F
:10018000000000000000000000000000000000006F
:10019000000000000000000000000000000000005F
:1001A000000000000000000000000000000000004F
:1001B000000000000000000000000000000000003F
:1001C000000000000000000000000000000000002F
:1001D000000000000000000000000000000000001F
:0401E0005FF8E0F1F3
:1001E80010B5054C237833B9044B13B10448AFF369
:1001F80000800123237010BD580A00200000000071
:10020800EC95000808B5034B1BB103490348AFF34D
:10021800008008BD000000005C0A0020EC95000882
:1002280081F0004102E000BF83F0004330B54FEA9F
:1002380041044FEA430594EA050F08BF90EA020F0C
:100248001FBF54EA000C55EA020C7FEA645C7FEA9F
:10025800655C00F0E2804FEA5454D4EB5555B8BFC2
:100268006D420CDD2C4480EA020281EA030382EA33
:10027800000083EA010180EA020281EA0303362DC5
:1002880088BF30BD11F0004F4FEA01314FF4801C98
:100298004CEA113102D0404261EB410113F0004FAA
:1002A8004FEA03334CEA133302D0524263EB430361
:1002B80094EA050F00F0A780A4F10104D5F1200EFF
:1002C8000DDB02FA0EFC22FA05F2801841F100015A
:1002D80003FA0EF2801843FA05F359410EE0A5F12E
:1002E80020050EF1200E012A03FA0EFC28BF4CF05F
:1002F800020C43FA05F3C01851EBE37101F0004515
:1003080007D54FF0000EDCF1000C7EEB00006EEB21
:100318000101B1F5801F1BD3B1F5001F0CD34908AB
:100328005FEA30004FEA3C0C04F101044FEA445202
:1003380012F5800F80F09A80BCF1004F08BF5FEA89
:10034800500C50F1000041EB045141EA050130BD69
:100358005FEA4C0C404141EB0101013C28BFB1F57B
:10036800801FE9D291F0000F04BF01460020B1FAC6
:1003780081F308BF2033A3F10B03B3F120020CDA99
:100388000C3208DD02F1140CC2F10C0201FA0CF077
:1003980021FA02F10CE002F11402D8BFC2F1200CDC
:1003A80001FA02F120FA0CFCDCBF41EA0C01904092
:1003B800E41AA2BF01EB0451294330BD6FEA0404DB
:1003C8001F3C1CDA0C340EDC04F11404C4F12002C6
:1003D80020FA04F001FA02F340EA030021FA04F3D8
:1003E80045EA030130BDC4F10C04C4F1200220FA2F
:1003F80002F001FA04F340EA0300294630BD21FA6D
:1004080004F0294630BD94F0000F83F4801306BF32
:1004180081F480110134013D4EE77FEA645C18BF26
:100428007FEA655C29D094EA050F08BF90EA020FBD
:1004380005D054EA000C04BF1946104630BD91EAB5
:10044800030F1EBF0021002030BD5FEA545C05D1B8
:100458004000494128BF41F0004130BD14F58004F7
:100468003CBF01F5801130BD01F0004545F0FE416B
:1004780041F470014FF0000030BD7FEA645C1ABFA0
:10048800194610467FEA655C1CBF0B46024650EAD7
:10049800013406BF52EA033591EA030F41F4002103
:1004A80030BD00BF90F0000F04BF0021704730B589
:1004B8004FF4806404F132044FF000054FF000015E
:1004C80050E700BF90F0000F04BF0021704730B51F
:1004D8004FF4806404F1320410F0004548BF4042F4
:1004E8004FF000013EE700BF42004FEAE2014FEA49
:1004F80031014FEA02701FBF12F07F4393F07F4F24
:1005080081F06051704732F07F4208BF704793F026
:100518007F4F04BF41F40021704730B54FF4607439
:1005280001F0004521F000411CE700BF50EA01023C
:1005380008BF704730B54FF000050AE050EA0102E5
:1005480008BF704730B511F0004502D5404261EB55
:1005580041014FF4806404F132045FEA915C3FF496
:10056800D8AE4FF003025FEADC0C18BF03325FEA33
:10057800DC0C18BF033202EBDC02C2F1200300FAE4
:1005880003FC20FA02F001FA03FE40EA0E0021FA09
:1005980002F11444BDE600BF70B54FF0FF0C4CF4F7
:1005A800E06C1CEA11541DBF1CEA135594EA0C0FA9
:1005B80095EA0C0F00F0DEF82C4481EA030621EAE4
:1005C8004C5123EA4C5350EA013518BF52EA03351F
:1005D80041F4801143F4801338D0A0FB02CE4FF0D1
:1005E8000005E1FB02E506F00042E0FB03E54FF001
:1005F8000006E1FB03569CF0000F18BF4EF0010EF9
:10060800A4F1FF04B6F5007F64F5407404D25FEAF4
:100618004E0E6D4146EB060642EAC62141EA5551A7
:100628004FEAC52040EA5E504FEACE2EB4F1FD0CE9
:1006380088BFBCF5E06F1ED8BEF1004F08BF5FEA67
:10064800500E50F1000041EB045170BD06F0004619
:1006580046EA010140EA020081EA0301B4EB5C04C6
:10066800C2BFD4EB0C0541EA045170BD41F48011BE
:100678004FF0000E013C00F3AB8014F1360FDEBFE3
:10068800002001F0004170BDC4F10004203C35DABF
:100698000C341BDC04F11404C4F1200500FA05F342
:1006A80020FA04F001FA05F240EA020001F00042E3
:1006B80021F0004110EBD37021FA04F642EB060159
:1006C8005EEA430E08BF20EAD37070BDC4F10C0483
:1006D800C4F1200500FA04F320FA05F001FA04F247
:1006E80040EA020001F0004110EBD37041F1000133
:1006F8005EEA430E08BF20EAD37070BDC4F120053E
:1007080000FA05F24EEA020E20FA04F301FA05F2A5
:1007180043EA020321FA04F001F0004121FA04F24D
:1007280020EA020000EBD3705EEA430E08BF20EA1D
:10073800D37070BD94F0000F0FD101F00046400057
:1007480041EB010111F4801F08BF013CF7D041EAD9
:10075800060195F0000F18BF704703F000465200DD
:1007680043EB030313F4801F08BF013DF7D043EAAE
:100778000603704794EA0C0F0CEA135518BF95EA64
:100788000C0F0CD050EA410618BF52EA4306D1D1EB
:1007980081EA030101F000414FF0000070BD50EA0A
:1007A800410606BF1046194652EA430619D094EA94
:1007B8000C0F02D150EA013613D195EA0C0F05D17E
:1007C80052EA03361CBF104619460AD181EA0301D2
:1007D80001F0004141F0FE4141F470014FF000008A
:1007E80070BD41F0FE4141F4780170BD70B54FF025
:1007F800FF0C4CF4E06C1CEA11541DBF1CEA1355A5
:1008080094EA0C0F95EA0C0F00F0A7F8A4EB050486
:1008180081EA030E52EA03354FEA013100F088807D
:100828004FEA03334FF0805545EA131343EA126346
:100838004FEA022245EA111545EA10654FEA0026FB
:100848000EF000419D4208BF964244F1FD0404F5B4
:10085800407402D25B084FEA3202B61A65EB030510
:100868005B084FEA32024FF480104FF4002CB6EBCD
:10087800020E75EB030E22BFB61A754640EA0C004D
:100888005B084FEA3202B6EB020E75EB030E22BF8D
:10089800B61A754640EA5C005B084FEA3202B6EBCE
:1008A800020E75EB030E22BFB61A754640EA9C008D
:1008B8005B084FEA3202B6EB020E75EB030E22BF5D
:1008C800B61A754640EADC0055EA060E18D04FEA1B
:1008D800051545EA16754FEA06164FEAC30343EABB
:1008E80052734FEAC2025FEA1C1CC0D111F4801F88
:1008F8000BD141EA00014FF000004FF0004CB6E781
:1009080011F4801F04BF01430020B4F1FD0C88BF1F
:10091800BCF5E06F3FF6AFAEB5EB030C04BFB6EB2A
:10092800020C5FEA500C50F1000041EB045170BD1D
:100938000EF0004E4EEA113114EB5C04C2BFD4EB4A
:100948000C0541EA045170BD41F480114FF0000ECE
:10095800013C90E645EA060E8DE60CEA135594EA4A
:100968000C0F08BF95EA0C0F3FF43BAF94EA0C0F4D
:100978000AD150EA01347FF434AF95EA0C0F7FF4C2
:1009880025AF104619462CE795EA0C0F06D152EA16
:1009980003353FF4FDAE1046194622E750EA4106FA
:1009A80018BF52EA43067FF4C5AE50EA41047FF40B
:1009B8000DAF52EA43057FF4EBAE12E74FF0FF3C70
:1009C80006E000BF4FF0010C02E000BF4FF0010C41
:1009D8004DF804CD4FEA410C7FEA6C5C4FEA430CBA
:1009E80018BF7FEA6C5C1BD001B050EA410C0CBF09
:1009F80052EA430C91EA030F02BF90EA020F00206B
:100A0800704710F1000F91EA030F58BF994208BFD1
:100A180090422CBFD8176FEAE37040F0010070478E
:100A28004FEA410C7FEA6C5C02D150EA013C07D1E5
:100A38004FEA430C7FEA6C5CD6D152EA033CD3D030
:100A48005DF8040B704700BF8446104662468C462A
:100A58001946634600E000BF01B5FFF7B7FF00285D
:100A680048BF10F1000F01BD4DF808EDFFF7F4FF86
:100A78000CBF012000205DF808FB00BF4DF808ED11
:100A8800FFF7EAFF34BF012000205DF808FB00BF34
:100A98004DF808EDFFF7E0FF94BF012000205DF856
:100AA80008FB00BF4DF808EDFFF7CEFF94BF01200B
:100AB80000205DF808FB00BF4DF808EDFFF7C4FF04
:100AC80034BF012000205DF808FB00BF4FEA410257
:100AD80012F5001215D211D56FF47873B3EB625288
:100AE80012D94FEAC12343F0004343EA505311F0AF
:100AF800004F23FA02F018BF404270474FF0000041
:100B0800704750EA013005D111F0004008BF6FF07E
:100B1800004070474FF00000704700BF844641EA2C
:100B2800000313F0030349D1403A23D30B68036051
:100B38004B6843608B688360CB68C3600B69036153
:100B48004B6943618B698361CB69C3610B6A03623B
:100B58004B6A43628B6A8362CB6AC3620B6B036323
:100B68004B6B43638B6B8363CB6BC3634030403108
:100B7800403ADBD230320BD30B6803604B684360DA
:100B88008B688360CB68C36010301031103AF3D2A1
:100B98000C3205D351F8043B40F8043B043AF9D22F
:100BA800043208D0D2071CBF11F8013B00F8013B02
:100BB80001D30B8803806046704700BF082A13D30F
:100BC8008B07B1D010F00303AED0C3F10403D21ADF
:100BD800DB071CBF11F8013B00F8013BA4D331F837
:100BE800023B20F8023B9FE7043AD9D3013A11F8B7
:100BF800013B00F8013BF9D20B7803704B78437046
:100C08008B788370604670474FEA410C7FEA6C5CD2
:100C180002D150EA013C0AD14FEA430C7FEA6C5CEE
:100C280002D152EA033C02D14FF0000070474FF066
:100C38000100704753B94AB9002908BF00281CBFF2
:100C48004FF0FF314FF0FF3000F06EB9ADF1080CF6
:100C58006DE904CE00F006F8DDF804E0DDE90223D2
:100C680004B070472DE9F047089E0D4604468E46AD
:100C7800002B40F083808A42174647D9B2FA82F3A4
:100C88004BB1C3F1200105FA03FE20FA01F19F40A0
:100C980041EA0E0E9C404FEA1748BEFBF8FC1FFACB
:100CA80087F908FB1CE20CFB09F0210C41EA02421F
:100CB80090420AD9BA180CF1FF3180F0188190429D
:100CC80040F21581ACF1020C3A44121AB2FBF8F06A
:100CD80008FB102200FB09F1A4B244EA0244A14235
:100CE80009D93C1900F1FF3280F00381A14240F29A
:100CF800008102383C44641A002140EA0C401EB1CD
:100D08000022DC40C6E90042BDE8F08702B9FFDEF8
:100D1800B2FA82F3002B4FD18D1A01214FEA124EFD
:100D28001FFA82F8B5FBFEFC0EFB1C5508FB0CF005
:100D3800220C42EA0545A84207D97D190CF1FF3279
:100D480002D2A84200F2E98094462D1AB5FBFEF0C3
:100D58000EFB105508FB00F8A4B244EA0544A04570
:100D680007D93C1900F1FF3202D2A04500F2D98020
:100D78001046A4EB080440EA0C40C0E78B4208D9AF
:100D8800002E00F0B1800021C6E900050846BDE844
:100D9800F087B3FA83F100294BD1AB4202D38242E8
:100DA80000F2B980841A65EB030301209E46002EE9
:100DB800AAD0C6E9004EA7E79F40C3F12002D14060
:100DC8004FEA174EB1FBFEF01FFA87F80EFB101121
:100DD80024FA02F29D4000FB08FC2A43150C45EA60
:100DE8000145AC4504FA03F409D97D1900F1FF3136
:100DF80080F08F80AC4540F28C8002383D44A5EBF2
:100E08000C05B5FBFEF10EFB115C01FB08F995B270
:100E180045EA0C45A94507D97D1901F1FF3274D27D
:100E2800A94572D902393D44A5EB090541EA0041BB
:100E380078E7C1F120078B4022FA07FC4CEA030C43
:100E480025FA07F44FEA1C4EB4FBFEF91FFA8CF89A
:100E58000EFB194420FA07F309FB08FA8D401D43DD
:100E68002B0C43EA0444A24502FA01F200FA01F30A
:100E780009D91CEB040409F1FF3048D2A24546D930
:100E8800A9F102096444A4EB0A04B4FBFEF00EFBCA
:100E9800104400FB08FAADB245EA0444A24508D95B
:100EA8001CEB040400F1FF352DD2A2452BD90238E2
:100EB800644440EA0940A0FB0289A4EB0A044C45BB
:100EC800C6464D4619D316D05EB1B3EB0E0264EB9D
:100ED800050404FA07F722FA01F31F43CC40C6E9D8
:100EE80000740021BDE8F087314630460CE78C4697
:100EF800EBE61046FFE64345E6D2B8EB020E69EB97
:100F08000C050138E0E72846D3E711468CE781460F
:100F1800B9E7084673E7084649E7ACF1020C3D44D7
:100F280013E702383C4424E7704700BF30B597B058
:100F380000240F9411940794089409940A940B942C
:100F480001940294039404940594069409230C9341
:100F58004FF480330D930E940122109212920225C1
:100F6800139514934FF4E01315930CA800F076FD35
:100F78000F230793089509944FF480630A930B9401
:100F8800294607A800F0A8FF01954FF400430393F2
:100F980001A801F07DF817B030BD000080B500F061
:100FA80059F9FFF7C3FF01F049FC01F02FFF01F0E9
:100FB80023FC01F0A8FC0C4C204601F0E5FDD4E927
:100FC8001267D4E91401FFF781FD0446304639461B
:100FD800FFF77CFD01462246044801F0F5FEC820D3
:100FE80000F05CF9E7E700BF780A002008960008DF
:100FF80082B00E4B9A6942F001029A619A6902F036
:1010080001020092009ADA6942F08052DA61DB69E3
:1010180003F080530193019B054A536823F0E06372
:1010280043F00073536002B0704700BF00100240E5
:101038000000014070B586B0002302930393049327
:1010480005930268294B9A4201D006B070BD044648
:1010580003F558439A6942F480429A619A6902F406
:1010680080420092009A9A6942F004029A619B6950
:1010780003F004030193019B4FF4007302930223CE
:101088000393032305931A4E02A9304600F0AEFBE2
:101098004FF48063029300250395049502A9304616
:1010A80000F0A4FB134B144A1A6010225A609D608A
:1010B8008022DA601D615D619D61DD6123635C6290
:1010C8000E4B0F4919605D609D60DA601D615D61BE
:1010D8009D61DD6163635C622A462946252000F034
:1010E80003F9252000F034F9AFE700BF00380140CC
:1010F800000801402C0C002044000240E80B0020AE
:10110800580002407047FEE7FEE7FEE7FEE770473B
:101118007047704708B500F0AFF808BD08B5024839
:1011280000F0EEF908BD00BF2C0C002008B50248FD
:1011380000F0E6F908BD00BFE80B0020704700008A
:1011480008B5024801F00AFA08BD00BFD80A002015
:1011580070470120704708B501F018FF1623036097
:101168004FF0FF3008BD08B54FF0FF31FFF7F3FF30
:10117800FEE770B50C4616460025B54207DAAFF310
:101188000080214601F8010B01350C46F5E7304691
:1011980070BD70B50C4616460025B54205DA14F840
:1011A800010BAFF300800135F7E7304670BD000052
:1011B80008B503460B4A126842B10A4A106803444C
:1011C8006A46934206D8074A136008BD054A06498D
:1011D8001160F2E701F0DAFE0C2303604FF0FF30F4
:1011E800F3E700BFD00A0020D00C00204FF0FF30FA
:1011F80070474FF400534B60002070470120704740
:10120800002070477047000010B504460E4B187850
:101218004FF47A73B3FBF0F30C4A1068B0FBF3F0A9
:1012280000F0A4F868B90F2C01D901200AE00022C7
:1012380021464FF0FF3000F057F8054B1C600020A6
:1012480000E0012010BD00BF0400002000000020C5
:101258000800002008B5074A136843F0100313601C
:10126800032000F02FF80020FFF7CEFFFFF7C0FEA5
:10127800002008BD00200240034A1168034B1B7878
:101288000B441360704700BFD40A002004000020FC
:10129800014B1868704700BFD40A002038B50446CF
:1012A800FFF7F6FF0546B4F1FF3F02D0044B1B7869
:1012B8001C44FFF7EDFF401BA042FAD338BD00BF26
:1012C80004000020074AD36823F4E0631B041B0CC6
:1012D800000200F4E060034343F0BF6343F40033CB
:1012E800D360704700ED00E030B4174BDB68C3F300
:1012F8000223C3F10704042C28BF04241D1D062D56
:1013080018D9033B4FF0FF3505FA04F421EA04012C
:10131800994005FA03F322EA0303194300280BDB7B
:101328000901C9B200F1604000F5614080F800137E
:1013380030BC70470023E5E700F00F000901C9B28F
:10134800024B1954F4E700BF00ED00E014ED00E093
:10135800002807DB00F01F02400901239340024ADE
:1013680042F82030704700BF00E100E00138B0F1DA
:10137800807F0AD2064B5860064AF02182F8231073
:101388000020986007221A6070470120704700BF4C
:1013980010E000E000ED00E008B590F82130022BE5
:1013A80003D004238363012008BD0268136823F077
:1013B8000E0313600268136823F0010313600368C7
:1013C8004B4A93424ED9783A934224D014329342EE
:1013D80030D0143293422FD0143293422FD014328B
:1013E80093422FD0143293422FD0143293422FD0ED
:1013F80002F5627293422ED0143293422DD01432E9
:1014080093422CD01432934202D04FF4803203E03E
:101418004FF4805200E00122364B5A60012380F8D5
:101428002130002380F82030436B002B5ED0984792
:101438000020B9E71022EFE74FF48072ECE74FF491
:101448008052E9E74FF48032E6E74FF48012E3E791
:101458004FF08072E0E70122DEE71022DCE74FF46C
:101468008072D9E7244A934224D01432934225D07B
:101478001432934224D01432934224D0143293422B
:1014880024D01432934224D01432934224D002F54B
:101498006272934223D01432934222D01432934280
:1014A80021D01432934202D04FF4803203E04FF43B
:1014B800805200E00122114B5A60AFE71022FAE790
:1014C8004FF48072F7E74FF48052F4E74FF480321C
:1014D800F1E74FF48012EEE74FF08072EBE701225C
:1014E800E9E71022E7E74FF48072E4E700205BE7C2
:1014F8008000024000040240080002400000024050
:1015080038B5C36B1A6804682568016C04238B40DE
:10151800134200F09B8015F0040F00F097802368B9
:1015280013F0200F03D1236823F00403236003681A
:10153800AA4A934246D9783A934224D01432934225
:1015480028D01432934227D01432934227D0143231
:10155800934227D01432934227D01432934227D093
:1015680002F56272934226D01432934225D0143287
:10157800934224D01432934202D04FF4802203E0E5
:101588004FF4804200E00422954B5A60C36A03B1CD
:10159800984738BD4022F7E74FF48062F4E74FF4EC
:1015A8008042F1E74FF48022EEE74FF48002EBE748
:1015B8004FF08062E8E70422E6E74022E4E74FF4D0
:1015C8008062E1E7874A934224D01432934225D0BF
:1015D8001432934224D01432934224D014329342CA
:1015E80024D01432934224D01432934224D002F5EA
:1015F8006272934223D01432934222D0143293421F
:1016080021D01432934202D04FF4802203E04FF4E9
:10161800804200E00422744B5A60B7E74022FAE7A0
:101628004FF48062F7E74FF48042F4E74FF48022EA
:10163800F1E74FF48002EEE74FF08062EBE7042217
:10164800E9E74022E7E74FF48062E4E702238B40B2
:10165800134200F0A38015F0020F00F09F8023686A
:1016680013F0200F06D1236823F00A032360012317
:1016780080F821300368594A93424BD9783A93420B
:1016880024D0143293422DD0143293422CD01432E9
:1016980093422CD0143293422CD0143293422CD043
:1016A800143293422CD002F5627293422BD014323A
:1016B80093422AD01432934229D01432934202D052
:1016C8004FF4003203E04FF4005200E00222444B92
:1016D8005A60002380F82030836A002B3FF459AF0A
:1016E800984756E72022F2E74FF40072EFE74FF4ED
:1016F8000052ECE74FF40032E9E74FF40012E6E756
:101708004FF00072E3E70222E1E72022DFE74FF41F
:101718000072DCE7334A934224D01432934225D036
:101728001432934224D01432934224D01432934278
:1017380024D01432934224D01432934224D002F598
:101748006272934223D01432934222D014329342CD
:1017580021D01432934202D04FF4003203E04FF408
:10176800005200E00222204B5A60B2E72022FAE73A
:101778004FF40072F7E74FF40052F4E74FF40032E9
:10178800F1E74FF40012EEE74FF00072EBE70222A8
:10179800E9E72022E7E74FF40072E4E7082303FAB9
:1017A80001F111423FF4F5AE15F0080F3FF4F1AE28
:1017B800236823F00E032360026CC16B012303FA34
:1017C80002F24A60836380F82130002380F82030D9
:1017D800036B002B3FF4DDAE9847DAE68000024049
:1017E800000402400800024000000240F0B482B049
:1017F80000252C46ABE0854FBB4210D007D9844F5B
:10180800BB420CD007F58037BB4208D013E0A7F5E0
:101818008017BB4203D007F57027BB4207D18B68FE
:10182800002B60D0012B59D04261082503E0A7F5B1
:101838008017BB42F3D0FF2E57D88446FF2E57D8C7
:10184800A200DCF800300F27974023EA070305FAC7
:1018580002F21343CCF800304B6813F0805F75D068
:101868006C4B9A6942F001029A619B6903F001038B
:101878000193019BA208971C674B53F827C004F0FB
:1018880003039F000F23BB402CEA030C634B9842D1
:1018980034D003F58063984200F0948003F58063A8
:1018A800984200F0918003F58063984200F08E80A2
:1018B80003F58063984200F08B8003F580639842BB
:1018C8001AD006231BE0CD68B5E7CD680435B2E72A
:1018D800CD680835AFE7CD680C35ACE7026108255F
:1018E800A9E70025A7E70425A5E700F1040CA5E76B
:1018F800A4F108029200A4E7052300E00023BB40FE
:1019080043EA0C030232444F47F822304B6813F481
:10191800803F5FD0424A1368334313604B6813F427
:10192800003F5DD03E4A5368334353604B6813F41D
:10193800801F5BD03A4A9368334393604B6813F433
:10194800001F59D0364AD3681E43D66001340B684D
:1019580033FA04F256D00122A24003EA020632EA20
:101968000303F3D14B68122B3FF645AF122B3FF61A
:1019780062AF01A757F823F027180008CF1800080E
:10198800D9180008EB1800083F1800083F1800088D
:101998003F1800083F1800083F1800083F180008C3
:1019A8003F1800083F1800083F1800083F180008B3
:1019B8003F1800083F1800083F180008D31800080F
:1019C800DF18000801239AE7022398E7032396E724
:1019D800042394E7124A136823EA060313609DE779
:1019E8000F4A536823EA060353609FE70C4A93683B
:1019F80023EA06039360A1E7094AD36823EA0606A7
:101A0800D660A3E702B0F0BC704700BF0000221008
:101A180000003110001002400000014000080140A1
:101A2800000401400AB1016170470904016170476F
:101A380082B0084B1B68084AA2FB03235B0A00FB21
:101A480003F3019300BF019B5A1E0192002BF9D1A9
:101A580002B0704700000020D34D6210002800F04B
:101A6800F18170B582B00446036813F0010F2CD0E1
:101A7800AA4B5B6803F00C03042B1DD0A74B5B68D3
:101A880003F00C03082B12D06368B3F5803F41D0F4
:101A9800002B55D103F1804303F504331A6822F46F
:101AA80080321A601A6822F480221A6037E09B4B51
:101AB8005B6813F4803FE7D0984B1B6813F4003F32
:101AC80003D06368002B00F0BF81236813F0020F76
:101AD80075D0924B5B6813F00C0F5FD08F4B5B682F
:101AE80003F00C03082B54D02369002B00F08980E5
:101AF8008B4B01221A60FFF7CBFB0546874B1B680F
:101B080013F0020F74D1FFF7C3FB401B0228F5D96D
:101B180003209EE1814A136843F4803313606368AD
:101B280043B3FFF7B5FB05467C4B1B6813F4003F36
:101B3800CBD1FFF7ADFB401B6428F5D9032088E122
:101B4800B3F5A02F09D0754B1A6822F480321A60B9
:101B58001A6822F480221A60E1E703F18043A3F5B2
:101B68003C331A6842F480221A601A6842F48032C0
:101B78001A60D4E7FFF78CFB0546684B1B6813F423
:101B8800003FA2D0FFF784FB401B6428F5D903204F
:101B98005FE1624B5B6813F4803FA5D15F4B1B6824
:101BA80013F0020F03D02369012B40F04F815B4AE9
:101BB800136823F0F803616943EAC10313602368DB
:101BC80013F0080F32D0A369002B45D0554B0122E2
:101BD8001A60FFF75DFB0546504B5B6A13F0020F76
:101BE80021D1FFF755FB401B0228F5D9032030E12E
:101BF8004A4A136823F0F803616943EAC103136092
:101C0800DDE7474B00221A60FFF742FB0546434BCE
:101C18001B6813F0020FD2D0FFF73AFB401B0228D3
:101C2800F5D9032015E10120FFF702FF236813F01F
:101C3800040F00F09780394BDB6913F0805F1DD1EA
:101C4800364BDA6942F08052DA61DB6903F080537F
:101C58000193019B012512E0324B00221A60FFF725
:101C680017FB05462D4B5B6A13F0020FDED0FFF71A
:101C78000FFB401B0228F5D90320EAE000252A4B78
:101C88001B6813F4807F11D0E368012B22D0002B4E
:101C980038D103F1804303F504331A6A22F00102B4
:101CA8001A621A6A22F004021A6218E01E4A1368BD
:101CB80043F480731360FFF7EBFA06461A4B1B6870
:101CC80013F4807FE0D1FFF7E3FA801B6428F5D98D
:101CD8000320BEE0114A136A43F001031362E3686C
:101CE80073B3FFF7D5FA06460C4B1B6A13F0020FC5
:101CF80037D1FFF7CDFA801B41F288339842F3D9E8
:101D08000320A6E0052B11D0044B1A6A22F0010229
:101D18001A621A6A22F004021A62E0E7001002400E
:101D28000000424280044242007000404D4B1A6A53
:101D380042F004021A621A6A42F001021A62CEE7FD
:101D4800FFF7A6FA0646474B1B6A13F0020F08D0A6
:101D5800FFF79EFA801B41F288339842F3D903209B
:101D680077E0E5B9E369002B72D03E4A526802F089
:101D78000C02082A56D0022B17D03B4B00221A60BF
:101D8800FFF786FA0446374B1B6813F0007F47D0ED
:101D9800FFF77EFA001B0228F5D9032059E0314AE3
:101DA800D36923F08053D361DCE72F4B00221A60FC
:101DB800FFF76EFA05462B4B1B6813F0007F06D021
:101DC800FFF766FA401B0228F5D9032041E0236A91
:101DD800B3F5803F1AD023494B6823F47413226A61
:101DE800606A024313434B601F4B01221A60FFF7DE
:101DF8004FFA04461B4B1B6813F0007F0ED1FFF708
:101E080047FA001B0228F5D9032022E0154A536837
:101E180023F40033A1680B435360DCE7002018E08B
:101E2800002016E0012B16D00E4B5B6803F48031BE
:101E3800226A914211D103F47013626A93420ED15F
:101E4800002006E001207047012002E0012000E0A8
:101E5800002002B070BD0120FBE70120F9E7012056
:101E6800F7E700BF001002406000424286B0164B00
:101E78000FCB0DF1180C0CE90F0040F20123ADF85F
:101E88000430124B5B6803F00C02082A02D0104899
:101E980006B07047C3F38342624412F8102C13F45F
:101EA800803F0CD0094B5B68C3F34043634413F88D
:101EB800143C074800FB02F0B0FBF3F0E8E70548E4
:101EC80000FB02F0E4E700BF34960008001002406F
:101ED80000127A0000093D00002800F0A08070B5CB
:101EE8000D460446524B1B6803F007038B420BD286
:101EF8004F4A136823F007030B431360136803F07A
:101F080007038B4240F08D80236813F0020F17D02F
:101F180013F0040F04D0474A536843F4E063536056
:101F2800236813F0080F04D0424A536843F46053FF
:101F38005360404A536823F0F003A1680B43536091
:101F4800236813F0010F31D06368012B20D0022BD6
:101F580025D0384A126812F0020F64D035494A6811
:101F680022F0030213434B60FFF792F90646314B08
:101F78005B6803F00C036268B3EB820F16D0FFF7BF
:101F880087F9801B41F288339842F0D9032045E055
:101F9800284A126812F4003FE0D101203EE0254AA9
:101FA800126812F0007FD9D1012037E0204B1B685E
:101FB80003F00703AB420AD91D4A136823F007034D
:101FC8002B431360136803F00703AB422DD123683A
:101FD80013F0040F06D0174A536823F4E063E1684E
:101FE8000B435360236813F0080F07D0114A536856
:101FF80023F46053216943EAC1035360FFF736FFB6
:102008000C4B5B68C3F303130B4AD35CD8400B4BF0
:1020180018600B4B1868FFF7F7F8002070BD012017
:1020280070470120FAE70120F8E70120F6E700BF32
:1020380000200240001002401C960008000000200A
:1020480008000020014B1868704700BF00000020FE
:1020580008B5FFF7F7FF044B5B68C3F30223034A95
:10206800D35CD84008BD00BF001002402C96000881
:1020780008B5FFF7E7FF044B5B68C3F3C223034AC5
:10208800D35CD84008BD00BF001002402C96000861
:1020980070B582B00446036813F0010F34D03E4B8C
:1020A800DB6913F0805F47D13B4BDA6942F080521D
:1020B800DA61DB6903F080530193019B0125374BFB
:1020C8001B6813F4807F39D0334B1B6A13F44073B9
:1020D80011D0626802F440729A420CD02E4A136AF8
:1020E80023F440702E4901260E6000260E6010620F
:1020F80013F0010F36D1284A136A23F4407361683C
:102108000B431362002D3ED1236813F0020F06D053
:10211800214A536823F44043A1680B435360236862
:1021280013F0100F34D01C4A536823F480036169FC
:102138000B43536000202CE00025C0E7174A1368C2
:1021480043F480731360FFF7A3F80646134B1B682C
:1021580013F4807FB8D1FFF79BF8801B6428F5D96A
:10216800032016E0FFF794F806460B4B1B6A13F0A2
:10217800020FC0D1FFF78CF8801B41F288339842D8
:10218800F3D9032005E0D36923F08053D361BBE77B
:10219800002002B070BD00BF001002400070004077
:1021A800400442420268D36823F49073D360026803
:1021B800536923F001035361202380F83A307047B4
:1021C80090F83930DBB2212B01D0022070478368A8
:1021D800B3F5805F17D0036A5A1C02621A78036845
:1021E8005A60C38C9BB2013B9BB2C3844BB9026853
:1021F800D36823F08003D3600268D36843F04003B8
:10220800D360002070470369002BE4D1036A1B8860
:102218000268C3F308035360036A02330362E0E70A
:1022280010B504460268136923F44053C1680B4390
:10223800136183680269134342691A430168CB68D2
:1022480023F4B05323F00C031343CB6002685369A3
:1022580023F4407381690B4353610268124B9A421D
:102268001FD0FFF7F5FE00EB800303EB83036268E2
:102278009200B3FBF2F20D48A0FB02314909642336
:1022880003FB11231B013233A0FB03235B0903F07B
:10229800F00202EB011203F00F03216813448B6074
:1022A80010BDFFF7E5FEDEE7003801401F85EB5162
:1022B8002DE9F84305460F4616469946DDF8208075
:1022C8002C68246837EA04030CBF01240024B442B4
:1022D8001FD1B8F1FF3FF3D0B8F1000F05D0FEF7DA
:1022E800D7FFA0EB09004045EAD92A68D36823F450
:1022F800D073D3602A68536923F001035361202304
:1023080085F8393085F83A30002385F838300320CD
:1023180000E00020BDE8F88358B310B5044690F8F3
:1023280039300BB3242384F839302268D36823F476
:102338000053D3602046FFF773FF2268136923F424
:10234800904313612268536923F02A03536122687A
:10235800D36843F40053D3600020E063202384F85B
:10236800393084F83A3010BD80F83830FEF762FE14
:10237800D8E7012070472DE9F04182B01E4690F859
:102388003930DBB2202B54D104460D469046002943
:1023980053D0002A53D090F83830012B51D0012364
:1023A80080F838300023C363212380F83930FEF7E2
:1023B8006FFF0746A4F82480A4F82680A368B3F525
:1023C800805F05D04FF00008002384F8383012E011
:1023D800236913B14FF00008F6E7A8460025F3E794
:1023E80038F8023B2268C3F308035360E28C92B2C8
:1023F800013A92B2E284E38C9BB273B100963B46F9
:10240800002280212046FFF753FFE0B9002DE7D0D6
:1024180015F8012B23685A60E8E700963B4600222E
:1024280040212046FFF744FF78B9202384F839304B
:1024380000E0022002B0BDE8F0810120FAE70120A7
:10244800F8E70220F6E70320F4E70320F2E790F824
:102458003A30DBB2202B20D109B312B390F83830D0
:10246800012B20D081628285C2850023C36322228A
:1024780080F83A2080F838300168CA6842F48072DF
:10248800CA6001684A6942F001024A610168CA6883
:1024980042F02002CA6018467047022070470120A7
:1024A80070470120704702207047704708B50168DF
:1024B800CA6822F04002CA60202280F83920FFF75B
:1024C800F4FF002008BD08B590F83A30DBB2222BA3
:1024D80041D18368B3F5805F14D0826AB3F5805F19
:1024E80002D0E3B90369D3B903685B681370836AE0
:1024F80001338362C38D9BB2013B9BB2C385A3B1F9
:10250800002008BD0269002AE7D1826A03685B6877
:10251800C3F308031380836A02338362EAE703681C
:102528005B6803F07F031370E1E70268D36823F068
:102538002003D3600268D36823F48073D3600268F1
:10254800536923F001035361202380F83A3000F0E7
:10255800BBFC0020D5E70220D3E7704710B504463E
:1025680002681368D168526913F00F0005D113F09F
:10257800200F02D011F0200F13D128B112F0010260
:1025880013D111F4907F10D113F0800F02D011F005
:10259800800F6CD113F0400F02D011F0400F6AD1B8
:1025A80010BD2046FFF78FFFFAE713F0010F06D0A2
:1025B80011F4807F03D0E06B40F00100E06313F07A
:1025C800040F04D01AB1E06B40F00200E06313F08E
:1025D800020F04D01AB1E06B40F00400E06313F07E
:1025E800080F07D011F0200F00D11AB1E26B42F0AA
:1025F8000802E263E26B002AD2D013F0200F02D067
:1026080011F0200F21D123685B6903F04003E26BCE
:1026180012F0080F00D123B32046FFF7C3FD23684B
:102628005A6912F0400F18D05A6922F040025A61D4
:10263800636B73B1124A5A63606BFEF7ADFE0028F4
:10264800AED0606B436B9847AAE72046FFF73BFF85
:10265800D9E72046FFF781FFA2E72046FFF77DFF75
:102668009EE72046FFF779FF0023E36398E72046BB
:10267800FFF7A6FD94E72046FFF718FF90E700BF95
:102688008D26000808B5406A0023C385C384FFF778
:1026980064FF08BD82B01223019300BF019B5A1E3C
:1026A8000192002BF9D102B07047000070B5074CB9
:1026B8008026266140252561FFF7ECFF6661FFF75C
:1026C800E9FF6561FFF7E6FF70BD00BF000C014040
:1026D80038B5044C8025656140232361FFF7DAFF94
:1026E800256138BD000C0140F8B50746002412E00A
:1026F8000F4B80221A61FFF7CDFF0D4D40262E614A
:10270800FFF7C8FF6E61072C0ED07F00FFB2FFF7FE
:10271800C1FF0134E4B2072C09D817F0800FE7D1C4
:10272800034B80225A61E6E780222A61EDE7F8BD73
:10273800000C014010B50B4C80232361FFF7AAFF62
:1027480040232361FFF7A6FFA36813F0800F07D08B
:102758000124044B40225A61FFF79CFF204610BD1C
:102768000024F6E7000C014070B5074C8025656130
:10277800FFF790FF40262661FFF78CFF6661FFF7A1
:1027880089FF256170BD00BF000C014038B5064CBB
:1027980080232361FFF77EFF40252561FFF77AFF3D
:1027A8006561FFF777FF38BD000C0140F8B50746B3
:1027B8000024254606E00F4B40225A61FFF76AFFC6
:1027C8000135EDB2072D0DD86400E4B2094E40235F
:1027D8003361FFF75FFFB36813F0800FEBD001346C
:1027E800E4B2E8E71FB9FFF7D1FF2046F8BDFFF7CD
:1027F800BBFFFAE7000C014000B587B00023049343
:1028080003F1804303F504339A6942F008029A61A0
:102818009B6903F008030193019BC02302931123D2
:1028280003930323059302A90348FEF7DFFFFFF78D
:102838004FFF07B05DF804FB000C014030B587B0CE
:102848000E4B9A6942F008029A619B6903F00803EB
:102858000193019B01240294002303930223049310
:102868000594074D02A92846FEF7C0FF22462146D7
:102878002846FFF7D7F807B030BD00BF0010024068
:10288800000C014038B505460C46FFF70FFFD02075
:10289800FFF72AFFFFF74EFF2846FFF725FFFFF750
:1028A80049FF2046FFF720FFFFF744FFFFF710FF1F
:1028B80038BD70B504460D461646FFF7F7FED02022
:1028C800FFF712FFFFF736FF2046FFF70DFFFFF770
:1028D80031FFFFF7EBFED120FFF706FFFFF72AFFD6
:1028E8000024731E9C4207DA0120FFF75FFF05F8FA
:1028F800010B0134E4B2F4E70020FFF757FF28701A
:10290800FFF7E6FE70BD08B5002200E00132B2F51F
:102918007A7F05DA0023B3F57A7FF7DA0133FAE72D
:1029280000216B20FFF7AEFF07211920FFF7AAFF50
:1029380006211A20FFF7A6FF00211C20FFF7A2FF9F
:1029480018211B20FFF79EFF08BD10B582B0044672
:10295800062269463B20FFF7ACFF9DF800209DF852
:10296800013043EA022323809DF802209DF80330BA
:1029780043EA022363809DF804209DF8053043EA6A
:102988000223A38002B010BD10B582B0044606220F
:1029980069464320FFF78DFF9DF800209DF8013020
:1029A80043EA022323809DF802209DF8033043EA7E
:1029B800022363809DF804209DF8053043EA022332
:1029C800A38002B010BD2DE9F0478CB08246CDE956
:1029D8000823D0E90834CDE906341A462346DDE950
:1029E8001401FDF721FCDDE91623FDF7D5FDDAE931
:1029F8000623FDF71BFCCDE90201DAE91045DDE904
:102A0800162320462946FDF7C7FD02460B46CDE9A9
:102A18000423DAE90C8942464B46FDF705FCDAE95E
:102A28000E6732463B46FDF7FFFBDAE90023FDF768
:102A3800FDFBDDE91623FDF7AFFDDAE90A23FDF713
:102A4800F5FBCDE90001DDE9042340464946FDF7E1
:102A5800EBFB80468946DDE9042330463946FDF71D
:102A6800E3FBCDE90401DDE91623DAE90201FDF70C
:102A780093FD02460B4620462946FDF7D7FBCDE9D4
:102A88000A01DAE90423DDE9004520462946FDF775
:102A9800CDFB06460F4602460B46CDE900452046CB
:102AA8002946FDF7A3FE04460D4632463B46DDE9BE
:102AB8000401FDF79BFE06460F46DDE90223DDE92A
:102AC8000801FDF7B1FB02460B46CDE90823204675
:102AD8002946FDF761FD02460B46DDE90201FDF7D7
:102AE800A5FB0A460146CDE90212CAE90612DDE94C
:102AF800082330463946FDF74FFD02460B46DDE90F
:102B08000601FDF793FBCAE9080122462B46DDE9D9
:102B18000001FDF741FD02460B46DDE90001FDF726
:102B280083FBCAE90A0122462B4640464946FDF77F
:102B380033FD02460B4640464946FDF775FBCAE998
:102B48000C0132463B46DDE90001FDF725FD024652
:102B58000B46DDE90401FDF767FBCAE90E013246C1
:102B68003B4640464946FDF717FD02460B46DDE960
:102B78000A01FDF759FBCAE91001DDE902010CB0B1
:102B8800BDE8F087000000002DE9F0478AB0044650
:102B980007A8FFF7DAFE04A8FFF7F6FEBDF91C3018
:102BA800BDF91E6046EA032636B22680BDF92030FC
:102BB800BDF922A04AEA032A0FFA8AFAA4F802A069
:102BC800BDF92400BDF9265045EA00252DB2A5809F
:102BD800BDF91030BDF9129049EA03290FFA89F9B5
:102BE800A4F82090BDF91430BDF9168048EA0328EE
:102BF8000FFA88F8A4F82280BDF91830BDF91A70C8
:102C080047EA03273FB2A7843046FDF75BFC002262
:102C1800674BFDF7C1FCC4E902015046FDF752FCC1
:102C28000022634BFDF7B8FCC4E904012846FDF710
:102C380049FC59A3D3E90023FDF7D8FDC4E90601EF
:102C48004846FDF73FFC56A3D3E90023FDF7CEFD28
:102C5800C4E90A014046FDF735FC51A3D3E9002336
:102C6800FDF7C4FDC4E90C013846FDF72BFC4CA365
:102C7800D3E90023FDF7BAFDC4E90E0105FB05F50C
:102C880006FB0650FDF71EFC06F0EEFA06460F4658
:102C980000220023FDF7E8FE002868D1B4F90200FD
:102CA800FDF710FC32463B46FDF7A0FD06F02CF977
:102CB8003DA3D3E90023FDF76FFC06460F46B4F9A0
:102CC80000506D42B4F90400FDF7FCFB80468946CC
:102CD8002846FDF7F7FB42464B4606F0C3FA32A3F7
:102CE800D3E90023FDF758FC804689460022314B82
:102CF800FDF7C4FE30B100222F4BD4E91401FDF7D3
:102D0800DBFE70B900222C4B40464946FDF7D4FE45
:102D180000282FD00022274BD4E91401FDF7AEFE7E
:102D280040B3264BC3E90689C4E91489656D0022BE
:102D3800214B206D25F00041FDF7BEFE28B1E16A68
:102D4800A26A01F10043C4E90A2300221C4BCDE921
:102D58000223D4E90C23CDE9002332463B46194827
:102D6800FFF731FEC4E912010AB0BDE8F08700267A
:102D78000027A4E70022124BCDE90223D4E90C2353
:102D8800CDE9002342464B460C48FFF71CFEC4E938
:102D98001401CBE7AFF30080000000000029CC400D
:102DA8000000000000606040F8C1631ADCA54C40D8
:102DB8000000103F008056C0008056405800002098
:102DC80000408F40100000200FB430B5A3B026ACEF
:102DD80054F8045B8022002102A800F001F9019454
:102DE8002246294602A800F08DF902A800F048F909
:102DF8004FF0FF3382B202A90348FFF7BCFA23B0B1
:102E0800BDE8304004B07047D80A0020F0B589B05A
:102E1800284B9A6942F004029A619A6902F0040206
:102E28000192019A9A6942F480429A619A6902F47D
:102E380080420292029A9A6942F001029A619B6961
:102E480003F001030393039B4FF4007304930223DD
:102E580005930126069603240794174F04A93846BC
:102E6800FEF7C4FC4FF4806304930025059504A97C
:102E78003846FEF7BBFC2520FEF76AFA22462146B3
:102E88002520FEF731FA0D4C0D4B23604FF4E1334A
:102E98006360A5600C236361A5612561E560E56158
:102EA8002046FFF739FA324606492046FFF7CFFA9F
:102EB80009B0F0BD0010024000080140D80A002007
:102EC80000380140E40B00200268194B9A4200D0F8
:102ED8007047184A1388B2F90020002AF8DB13F467
:102EE800804F0ED0144A12780A2A03D0114B0022C0
:102EF8001A8070476FEA43436FEA53430D4A1380C1
:102F080070470D4A12780D2A0DD0C3F30D010B48F6
:102F1800425401339BB2074A1380C72BD8D91346B2
:102F280000221A80D4E743F48043024A1380704792
:102F380000380140180B0020E40B00201C0B002077
:102F4800002103E00B4B5B58435004310A480B4BFC
:102F580042189A42F6D30A4A02E0002342F8043B98
:102F6800084B9A42F9D3FEF74DF900F015F8FEF731
:102F780015F87047C49A000800000020540A002081
:102F8800580A0020CC0C0020FEE70000014B18680E
:102F9800704700BFA000002070B50D4E0D4D761B88
:102FA800B61006D0002455F8043B01349847A642D1
:102FB800F9D1094E094D06F015FB761BB61006D05F
:102FC800002455F8043B01349847A642F9D170BD56
:102FD800B89A0008B89A0008C09A0008B89A000879
:102FE800F0B4860746D0541E002A3CD00346CAB225
:102FF80001E0013C37D303F8012B9D07F9D1032CDD
:103008002AD9CDB245EA05250F2C45EA054534D91C
:10301800A4F1100222F00F0C03F1200716096744EF
:1030280003F1100242E9045542E902551032BA424E
:10303800F8D1721C14F00C0F03EB021204F00F0607
:1030480013D0331F23F003030433134442F8045B03
:103058009342FBD106F003042CB1CAB21C4403F816
:10306800012B9C42FBD1F0BC704734461346002C20
:10307800F3D1F8E714460346C1E71A462646E0E7C7
:1030880020F0030110F00300C0F1000051F8043BE8
:1030980000F1040C4FEACC0C6FF000021CBF22FABE
:1030A8000CF213434FF0010C4CEA0C2C4CEA0C4C7C
:1030B800A3EB0C0222EA030212EACC1204BF51F875
:1030C800043B0430F4D0C2F1000102EA0102B2FA72
:1030D80082F2C2F11F0200EBD200704730B56FF0E8
:1030E80000449BB0064D009104916946CDE9024524
:1030F800059400F041F80022009B1A701BB030BD07
:103108000802FFFF30B40D46034C134601462A4619
:10311800206830BCFFF7E2BFA0000020024B13B1CB
:10312800024800F005B8704700000000453100086B
:10313800002301461A46184601F0C6BD38B5084BAB
:10314800084D5B1B9C1007D0043B1D44013C55F8FF
:1031580004399847002CF9D1BDE8384006F048BA40
:10316800C49A0008C09A0008704700BF704700BFA3
:10317800704700BF704700BF2DE9F04FD7B08B46AE
:1031880017460E93814602F031FF036818461893DC
:10319800FFF776FFBBF80C3017901D0604D5DBF857
:1031A8001030002B00F0DF87002300210022CDE93A
:1031B8002B33CDE91A33CDE91C33139319930A93B2
:1031C8002DAB98462A933B78DA46CDE91412002BAA
:1031D80000F0A4813C4604E014F8013F002B00F005
:1031E800FD80252BF8D1E51B40F0FB802378002BD0
:1031F80000F0948100230B938DF88B3007934FF0E8
:10320800FF33667804F1010B20212B2409930BF17D
:10321800010BA6F120035A2B00F2FF80DFE813F020
:10322800BC02FD00FD00B502FD00FD00FD0091029D
:10323800FD00FD006A00E702FD003402CD02FD003A
:10324800C6025B005B005B005B005B005B005B0031
:103258005B005B00FD00FD00FD00FD00FD00FD00C2
:10326800FD009001FD00F7017C00900190019001A4
:10327800FD00FD00FD00FD008A02FD00FD00A90023
:10328800FD00FD00FD000B02FD003B02FD00FD00FE
:103298008107FD00FD00FD00FD00FD00FD00FD00B3
:1032A800FD009001FD00F701800090019001900160
:1032B800800280007500FD007602FD005E02AD0010
:1032C8004C027500FD000B0272005B07FD00FD005B
:1032D8005F07FD0072000022A6F130031BF8016BA6
:1032E80002EB820203EB4202A6F13003092BF5D967
:1032F8000B928EE70E9B53F8042B002A0B920E9329
:10330800C0F2BF819BF8006081E7079B9BF80060D3
:1033180043F0200307937AE7079B43F010030793D2
:10332800079B9C0640F162810E9B073323F007033D
:103338001946F1E8022314461D460E91002A73F13E
:103348000003C0F2AB85099B0133079B00F014848E
:1033580023F0800354EA0502089340F00E84099A8A
:10336800002A40F00F840793002356AF09930C936B
:103378006BE2079B43F010030793079B9A0640F103
:1033880026810E9B073323F00703F3E802450E93CB
:10339800079B23F480630893002300228DF88B2079
:1033A800099A1146013100F03182089921F0800113
:1033B800079154EA050140F02782002A40F07D83F6
:1033C800002BD1D1089B13F001030C9300F09085DA
:1033D80030230DF257178DF8573136E2E51B00F010
:1033E8009D80DDE92B3201332A44072BC8E900759B
:1033F800CDE92B3206DC08F108080A9A23782A441A
:103408000A92F4E6514648462AAA03F0E7FC002847
:1034180041F0CE830DF1B408EFE7002E7ED00023F3
:1034280001211A4608918DF8F4608DF88B300D93C0
:1034380009931293169310930C913DAF079B13F0C9
:10344800020302D0089902310891079911F084010A
:103458000F9105D10B9908980D1A002D00F34B8395
:103468002C9C72B101202B9A044402440DF18B016B
:10347800072ACDE92B24C8E9001000F3CD8308F111
:1034880008086BB102212B9B0C44013323AA072B9C
:10349800CDE92B34C8E9002100F3CC8308F10808F2
:1034A8000F9B802B00F03482099B0C9A9D1A002DEB
:1034B80000F36E82079BD90500F1D5812B9B0C9AEE
:1034C80001331444072BC8E900722C942B9300F3A2
:1034D800978308F10808079B590705D50B9B089A9D
:1034E8009D1A002D00F3B283DDE90A3208998A4259
:1034F800ACBF9B185B180A93002C40F07D82002318
:103508002B930D9B1BB148460D9902F069FC5F4651
:103518000DF1B4083B78002B7FF45CAE2C9BD346AE
:10352800002B41F04B82BBF80C3013F0400F0A9B84
:1035380018BF4FF0FF330A930A9857B0BDE8F08FD1
:103548000E9B073323F007031946F1E80223CDE960
:103558001423DDE9143424F000441D4618460E9166
:103568004FF0FF322146A44BFDF74EFB002840F0F8
:10357800D984284621464FF0FF329F4BFDF788FA41
:10358800002840F0CF84DDE9140100220023FDF774
:1035980075FA002841F00E809DF88B200320002149
:1035A800964F974B08900D91472EC8BF1F46079C12
:1035B8000C9024F0800407940991129116911091AF
:1035C800002A3FF43BAF089B0133089336E7079B7B
:1035D800DB0600F19C84079B5F0640F1B2870E9BD7
:1035E800002553F8044B0E93A4B2D1E6079BD806E6
:1035F80000F16885079B590640F1BE870E9B53F87A
:10360800044B24B2E5170E9322462B4696E600217A
:1036180001240E9B0A4653F8040B0894CDE90D13B8
:103628008DF88B108DF8F400099112911691109174
:103638000C943DAF02E700250E9C8DF88B5054F892
:10364800047B002F00F09F85099A1346013300F090
:1036580070872946384602F07BFF0D90002801F05C
:10366800B9802B460D9A0995D21B0C9222EAE27278
:1036780008920E949DF88B200D9312931693109335
:103688009EE70B9B5B420B93079B9BF8006043F004
:1036980004030793BBE5079B43F010030893089BBB
:1036A8009D0640F1EA830E9B073323F00703F3E8F6
:1036B80002450E93012370E647F630020E9B0799E8
:1036C80053F8044B41F002010E934E4B0025199319
:1036D800782602230891ADF88C205EE6079B9D06AC
:1036E80000F10884079BDC0600F1E186079B580679
:1036F80000F19587079B990540F1D9860E9B0A9999
:1037080053F8042B5F4611700E9303E79BF8006093
:10371800079B6C2E00F0088543F01003079376E5AD
:103728009BF80060079B682E00F0078543F0400374
:1037380007936CE5079B9BF8006043F00803079329
:1037480065E5484602F052FC436818461C93FFF7AB
:1037580097FC034648461D461D9302F047FC8268C5
:1037680020211A92002D3FF4CDAD1A9B002B3FF477
:10377800C9AD1A9B1B78002B3FF4C4AD079B9BF87F
:10378800006043F48063079341E5079B9BF8006062
:1037980043F0010307933AE59DF88B30002B7FF443
:1037A800B1AD9BF800608DF88B1030E5079B9BF856
:1037B800006043F08003079329E55A4612F8016B2D
:1037C8002A2E01F05182A6F13003092B934698BFA7
:1037D800002201F2EF801BF8016B02EB820203EB7F
:1037E8004202A6F13003092BF5D9099211E59BF89D
:1037F80000608DF88B400AE5FFFFEF7F4C960008CC
:10380800509600085C960008079A0892012B00F071
:10381800B481022B00F0598156AFE20842EA4572A2
:10382800E90804F007030D461446303354EA05014D
:103838003A4607F8013DF0D108990846C00700F15B
:10384800B88256ABDB1B07910C93002309990D93A3
:103858001293169310930C9B9DF88B208B42B8BF44
:103868000B460893ACE6652E40F3D880DDE91401D9
:1038780000220023FDF7F8F8002800F01E8201213D
:103888002B9BC54A0B440C44072BCDE92B34C8E9C4
:10389800002100F3BB8508F10808249B139A934282
:1038A80080F221832B9B179A013318991444072B14
:1038B800C8E900122C942B9300F3488408F10808F7
:1038C800139B5D1E002D7FF706AE102D40F3C785B4
:1038D800B24F10262B9B0F9705E008F10808103D02
:1038E800102D40F3BF8501331034072BCDE92B345D
:1038F800C8E90076F1DD514648462AAA03F06EFA77
:10390800002840F08180DDE92B340DF1B408E6E7AA
:103918000B9B089A9D1A002D7FF7C6AD102D41F319
:1039280069809E482146102304462B9A0F9004E094
:10393800103D102D08F1080817DD01321031072A53
:10394800CDE92B21C8E90043F2DD514648462AAAB1
:1039580003F044FA002857D1DDE92B21103D102D42
:103968004FF010030DF1B408E7DC0C4601320F9B51
:103978002C44072ACDE92B24C8E9003500F38A85B1
:10398800099B0C9A08F108089D1A002D7FF792AD43
:10399800102D40F30A8681482146102304462B9AAD
:1039A8000F9004E0103D102D08F1080816DD0132D3
:1039B8001031072ACDE92B21C8E90043F2DD514631
:1039C80048462AAA03F00AFAF0B9DDE92B21103D8E
:1039D800102D4FF010030DF1B408E8DC0C4601324D
:1039E8000F9B2C44072ACDE92B24C8E9003500F3A6
:1039F800378208F108085DE5514648462AAA03F0CF
:103A0800EDF900283FF47BADD3460D9B002B3FF426
:103A18008AAD48460D9902F0E3F984E5139B012B22
:103A280040F3D58101232B9D1C441D44072D2C9464
:103A3800C8F800702B95C8F8043000F33A8208F1F2
:103A48000808179B0135189A1C44072DCDE92B54FB
:103A5800C8E9002300F33A8208F108080023DDE9E9
:103A680014010022FDF700F8139B002840F0CD81D7
:103A7800013B013501371C44072DCDE92B54C8F80B
:103A88000070C8F8043000F3DC8408F108081B9AB9
:103A98000135144426AB072DCDE92B54C8E9003273
:103AA8007FF717AD514648462AAA03F097F9002830
:103AB800AAD12C9C0DF1B4080DE5012B00F0CA87A2
:103AC800022B079B08937FF4A7AE199856AF2309DA
:103AD80043EA0573290904F00F020D461C46835C6E
:103AE80007F8013D54EA0503F1D1089B079356AB4B
:103AF800DB1B0C93A9E6102D40F36886DDE92B212A
:103B08001E930B463946102437465646CA46894600
:103B180004E0103D102D08F1080817DD0132204996
:103B28001033072ACDE92B23C8E90014F1DD31460B
:103B380050462AAA03F052F9002840F05884DDE9DB
:103B48002B23103D102D0DF1B408E7DC4846D14673
:103B5800B2463E46074619461E9B4C19013210498B
:103B6800072ACDE92B24C8E9001500F31F849DF826
:103B78008B2008F1080874E40893002D08BF0A2C6C
:103B880080F0D083089B3034079301238DF8574188
:103B98000C930DF2571758E68C960008A09600086B
:103BA80090960008514648462AAA03F017F90028BB
:103BB8007FF42AAF249A2C9C0DF1B408002A40F017
:103BC8007F84079B139A03F0010313433FF483ACEC
:103BD8002B9B179A013318991444072BC8E9001234
:103BE8002C942B9300F3248508F10808139A0133C9
:103BF8001444072BCDE92B34C8E900727FF769AC70
:103C0800514648462AAA03F0E9F800287FF4FCAE9A
:103C18002C9C0DF1B4085EE4514648462AAA1E932E
:103C280003F0DCF800287FF4EFAE2C9C1E9B0DF10E
:103C3800B40826E4514648462AAA03F0CFF80028DB
:103C48007FF4E2AE2C9C0DF1B40829E4102D40F36A
:103C5800BE8610262B9B04E0103D102D08F10808A5
:103C680017DD0133AD4A1034072BCDE92B34C8E9F1
:103C78000026F1DD514648462AAA03F0AFF800288D
:103C88007FF4C2AEDDE92B34103D102D0DF1B408E0
:103C9800E7DC0133A14A2C44072BCDE92B34C8E9D2
:103CA80000257FF721AC514648462AAA03F096F82A
:103CB80000287FF4A9AE2C9C16E4249A002A40F32D
:103CC8008683109B139A9342A8BF1346002B1D4668
:103CD8000BDD2B9B2C440133072BC8E900752C9472
:103CE8002B9300F31E8508F10808109B002DA8BF30
:103CF8005B1B002B1D4600F35682109B3B441E465F
:103D0800079B5B0500F17782249B139A934203DBA0
:103D1800079AD50740F17A842B9A17990132189897
:103D28000C44072AC8E900012C942B9200F306855D
:103D380008F10808139ABD18AD1BD31A9D42A8BFF5
:103D48001D46002D0BDD2B9A2C440132072AC8E9A9
:103D580000652C942B9200F35F8508F10808002D6C
:103D6800B4BF1D465D1B002D7FF7B5AB102D40F38A
:103D780076836B4F10262B9B0F9705E008F10808F8
:103D8800103D102D40F36E8301331034072BCDE91D
:103D98002B34C8E90076F1DD514648462AAA03F0DB
:103DA8001DF800287FF430AEDDE92B340DF1B4089E
:103DB800E6E7302B3FF499AE3023023A07F8013C8E
:103DC800089956AB9B1A174607910C933DE5079B3C
:103DD800D8073FF527AE01232B9D1C441D44072D12
:103DE8002C94C8F800702B95C8F804307FF74DAEB6
:103DF800514648462AAA02F0F1FF00287FF404AE93
:103E0800DDE92B540DF1B40841E65E1E002E7FF764
:103E18003EAE102E40F31E87414BCDF824B010273C
:103E2800D3460F93CA46994605E008F10808103EA4
:103E3800102E40F3F88201351034072DCDE92B54AC
:103E4800C8E90097F1DD594650462AAA02F0C6FF94
:103E5800002840F0CC85DDE92B540DF1B408E6E7E5
:103E6800514648462AAA02F0B9FF00287FF4CCAD93
:103E78002C9C0DF1B408FFF71DBB089BDC0600F174
:103E88001981089B580640F168830E9A012352F85D
:103E9800044B00250E92A4B2FFF77FBA2D23079A90
:103EA80064428DF88B3065EB450501230892FFF7D6
:103EB80077BA514648462AAA02F090FF00287FF4B4
:103EC800A3ADDDE92B540DF1B408BAE551464846D7
:103ED8002AAA02F083FF00287FF496ADDDE92B546F
:103EE8000DF1B408BAE5079BDA077FF5F4AAD9E41F
:103EF80056AFAAE40E9B5F4653F8041B0E930A9B29
:103F0800DD171A462B46C1E90023FFF703BB0E9BBA
:103F1800002553F8044B0E93FFF73ABA9096000821
:103F2800A0960008DDE914010B460246FCF76CFE7A
:103F38000146002840F04386612E00F08685412E18
:103F480000F07A84099B26F020055A1C089500F099
:103F58007D83472D00F09E85DDE91401079B43F41E
:103F6800807312930B46002BC0F2BA8500220F9380
:103F78001E920D920C90462D0C9A00F00784452D48
:103F88004FF002000F9B40F0E783099900904C1C0A
:103F980028A925A8049124A9CDE90210019448462E
:103FA80000F06AFF07460444129B079D079300220E
:103FB80000230C980F99FCF757FD002800F0988310
:103FC8002346DB1B1393089B472B00F05E83089B5B
:103FD800462B00F00B84249B1093109B089A013BFE
:103FE800412A249300F0AD850021F2B2002B8DF810
:103FF8009820B6BF2D222B22109B8DF89920B8BF90
:10400800C3F10103092B40F3A2850DF1A70E7246F7
:104018009C46BF4C6046114684FB0C234FEAEC7269
:10402800C2EBA30202EB8203ACEB430330336328F9
:10403800944601F8013C01F1FF32EBDC6346303372
:10404800D8B28B1E9E4502F8010C40F22C860DF169
:104058009A0301E012F8010B964503F8010BF9D118
:104068000DF1A9030DF19A025B1A134426AA9B1AB3
:104078001B93139B1B9A012B1A440C9240F3CC857B
:104088000C9B179A13440C930023129316931093C6
:104098000C9B25F4806545F4807223EAE37307924C
:1040A80008931E9B002B40F017839DF88B200993E3
:1040B800FFF786BA0E9A012352F8044B00250E9298
:1040C800FFF76BB90E9B53F8044BE5170E93224686
:1040D8002B46FFF733B9079B0893FFF7E0BA8D4BE0
:1040E8001993079B990640F1FE800E9B073323F036
:1040F8000703F3E802450E93079AD7070AD554EA4F
:10410800050307D0302342F002028DF88D60079234
:104118008DF88C30079A022322F480620892FFF708
:104128003CB97D4B1993DCE743F020039BF8016011
:1041380007930BF1010BFFF76AB843F400739BF880
:10414800016007930BF1010BFFF761B85146484630
:104158002AAA02F043FE00287FF456AC2C9C0DF1ED
:10416800B408FFF7ADBB4021484601F043FFCBF848
:104178000000CBF81000002800F08D854023CBF814
:104188001430FFF711B8099B3A46062B28BF0623BF
:1041980009971297169710970D9708935F4F0E94EB
:1041A8000C93FFF70DBA102B40F3588551465C4A23
:1041B800CA4609971026174689462B9B0F9205E099
:1041C80008F10808103D102D40F3FA81013310342E
:1041D800072BCDE92B34C8E90076F1DD4946504676
:1041E8002AAA02F0FBFD002840F0FD83DDE92B340C
:1041F8000DF1B408E6E7139B4246DDF85880FB183A
:104208000993CDF830B00F972046DDF874B01A9FA7
:10421800129BB8F1000F2DD07BBB013F08F1FF388E
:104228002B9B1C9901335844072BC2E9001B2C9087
:104238002B9362DC083209993B788D1B9D42A8BFFD
:104248001D46002D0BDD2B9B28440133072BC2E9AB
:1042580000652C902B9300F311813B780832002DD8
:10426800B4BF1D465D1B002D0BDC1E44129BB8F12C
:10427800000FD1D1002B00F0F981129B013B129362
:10428800CEE7102D40F3C5842B9910240B4604E08B
:10429800103D102D02F1080216DD013320491030BF
:1042A800072BCDE92B30C2E90014F1DD5146484611
:1042B8002AAA02F093FD00287FF4A6ABDDE92B3093
:1042C800103D102D2DAAE8DC19464B1C1449284432
:1042D800072BCDE92B30C2E9001500F315823B7896
:1042E80008321E44C2E7079BDA0640F184800E9B21
:1042F800002553F8044B0E93FEE6514648462AAA79
:1043080002F06CFD00287FF47FAB2C982DAA92E771
:10431800676666665C9600087096000884960008D2
:10432800A09600080022089BCDF81CB003F4806317
:104338000C96CDF834A09346CA461E46C14656AFE1
:10434800DDF868800BE00A22002320462946FCF7A6
:1043580071FC002D08BF0A2C1BD304460D460A2207
:10436800002320462946FCF765FC303207F8012C6B
:104378000BF1010B013F002EE5D098F800309B456A
:10438800E1D1BBF1FF0FDED0002D08BF0A2C80F071
:104398002881CDF86880CDF84CB0C8460C9ED1462F
:1043A800DDF81CB0DDF834A0FFF79FBB5146484646
:1043B8002AAA1E9302F012FD00287FF425AB9DF86F
:1043C8008B202C9C1E9B0DF1B408FFF74AB80120E6
:1043D8002B9BC54903440444072BCDE92B34C8E97A
:1043E80000103FF7DFAB08F10808FFF7E7BBD1463D
:1043F800B346FFF70ABB079B5B0640F1CB800E9BD9
:10440800002553F8044B0E93A4B275E6514648466E
:104418002AAA02F0E3FC00287FF4F6AA2C9C0DF1EE
:10442800B408FFF73ABAD146DA46DDF824B00135C8
:104438000F9B3444072DCDE92B54C8E900367FF78C
:1044480024AB514648462AAA02F0C8FC00287FF44B
:10445800DBAADDE92B540DF1B408FFF718BBA34A1A
:104468002B9B0F9201330F9A2C44072BCDE92B3449
:10447800C8E900257FF72DA8FFF7C2BB514648467B
:104488002AAA02F0ABFC00287FF4BEAA3B782C983D
:104498002DAAE4E6514648462AAA02F09FFC0028C5
:1044A8007FF4B2AA2C9C0DF1B408FEF7FDBF0E9B59
:1044B8000A9953F8042B5F4611600E93FFF72AB848
:1044C8002B9B1799013318980C44072BC8E9000156
:1044D8002C942B9300F3AC8008F10808002ABFF64F
:1044E80085AB5542103280F2D38351467F4ACA4683
:1044F80009971026174689460F9205E008F1080823
:10450800103D102D40F3AA8201331034072BCDE95A
:104518002B34C8E90076F1DD494650462AAA02F054
:104528005DFC002840F05F82DDE92B340DF1B40812
:10453800E6E73846FEF7A4FD2B4602460995FFF745
:1045480094B8079B002513F4007F0E9B53F8044B87
:104558000E9318BFE4B2FEF71BBF0E9A089B52F8E1
:10456800044B13F4007F4FF000054FF001030E9247
:1045780018BFE4B2FEF711BF079B13F4007F0E9B30
:1045880053F8044B18BF64B2E5170E9322462B4626
:10459800FEF7D4BE079B002513F4007F0E9B53F84B
:1045A800044B0E9318BFE4B2A6E5504B2B9A0F9319
:1045B800FFF715BA2D231A468DF88B30FEF7EEBF9C
:1045C8004A46D1469246099F01330F9A2C44072B3D
:1045D800CDE92B34C8E900253BDC08F10808FFF7D2
:1045E8008CBB1D9B1C99FF1A1A46384602F0C2FB69
:1045F80098F801300BB108F101080A22002320467F
:104608002946FCF717FB4FF0000BA6E6139ABD18D6
:10461800AD1BD31A9D42A8BF1D46FFF7A0BB0E9B3A
:104628000A9953F8042B5F4611800E93FEF772BF68
:10463800514648462AAA02F0D1FB00287FF4E4A993
:10464800DDE92B34249A0DF1B40847E706230993D2
:1046580082E4514648462AAA02F0C0FB00287FF4AB
:10466800D3A92C9C0DF1B408FFF747BB139B1A97ED
:104678000F9F9046FB189E42324628BF1A460446B2
:104688001646DDF830B0FFF73FBB249BD81C1093CB
:1046980002DB099A934204DD023E26F020030893C8
:1046A8009BE4109B13998B42C0F27A81EA0740F190
:1046B8008382179A13440C936E0540F17782109BFE
:1046C800002B00F3108267260C9B23EAE373089300
:1046D800002312931693E4E42D2200238DF88B20F7
:1046E8000993FEF770BF00BF8C960008A0960008DB
:1046F800289BA342BFF465AC30215A1C289219703C
:10470800289B9C42F9D85CE4514648462AAA02F004
:1047180065FB00287FF478A93B782C982DAA1E44C5
:10472800A4E5514648462AAA02F058FB00287FF41F
:104738006BA92C9C0DF1B408FFF7D7BA514648462F
:104748002AAA02F04BFB00287FF45EA9249B2C9C2C
:104758000DF1B408FFF7EEBA099C28A9CDE90004C9
:10476800049125A824A9CDE90210484600F084FB4D
:10477800472D074619D1079D2B46DB0700F12A81F3
:10478800129A289B0792472208921AE40320099C50
:1047980028A9CDE90004049125A824A9CDE902108F
:1047A8000F9B484600F068FB0746099B462D07EB20
:1047B80003047FF4F9AB3B78302B00F01C82249B78
:1047C800129A079D1C440792FFF7F1BBDDE92B21E4
:1047D800FFF7C3B9099B9DF88B2008930C930990A8
:1047E8000E94129016901090FEF7EABE249A002AB2
:1047F800109240F31B82099905F001030B4340F026
:104808009A816626109B0C936A0500F16D810C9BBA
:1048180023EAE37308935BE7514648462AAA02F065
:10482800DDFA00287FF4F0A8249B139A2C9C0DF144
:10483800B408D31AFFF793BA30238DF88C30582375
:104848008DF88D30079B43F00204099B632B00F31E
:10485800F28000233DAF0D93079BDDE9141243F46A
:10486800817312931346002B26F020050794C0F29B
:104878008D800F93002308950C911E93612E00F0F4
:104888007D81412E7FF477AB24AA0C980F9902F012
:1048980027FA00224FF07F53FBF77EFE04460D46B1
:1048A80000220023CDE91045FCF7DEF808B101230A
:1048B8002493AE4B0C93099BCDF83CB0013B139667
:1048C800CDF87C90CDF880A02197BA46DDE9106735
:1048D8009946DDF830B0CDF8588006E00022002374
:1048E800FCF7C2F809F1FF39E8B90022A04B3046BD
:1048F8003946FBF751FE0D460446FCF7E7F88046BB
:10490800FBF7E0FD0B46024629462046FBF78CFCE8
:104918001BF80830B9F1FF3F554606460F464C468E
:104928000AF8013BDAD1304639460022914BDDF8CE
:104938003CB0139ECDF83CA0CDF84C80CDE91001D9
:10494800DDE91F9ADDF85880219FFCF7B5F80028AB
:1049580055D1DDE910010022864BFCF785F810B12E
:10496800139BDB074BD4002C08DB30220F99631C08
:104978000B4401F8012B8B42FBD10F910F9B079D34
:10498800DB1B1393129B0793FFF71DBB08952D2381
:10499800DDE914121E9302F100430C910F936DE7A9
:1049A800139B179A9A18109B0C92002B40F31A81AC
:1049B800672629E700230993FEF72BBC4846514692
:1049C8002AAA02F00BFABAF80C30FEF7AEBD2B9B00
:1049D800FFF75FB9099B079DFC18129B07934723B4
:1049E8000893FFF7E4BACB46D146FFF70EB8D14695
:1049F800FFF70BB8604B2B9A0F93FEF7B7BF0F9BCF
:104A08000C99289513F8012CC97B8A4240F02A8119
:104A1800302003F8010C289B5A1E289213F8012C09
:104A28009142F6D0392A0BBF0C9A0132927AD2B24F
:104A380003F8012CA2E74846591C01F0DBFA0746A7
:104A4800002800F01D810D9006E730238DF88C308A
:104A58007823F5E6079B0893FFF794B84A46D146B2
:104A68009246099F01330F9A2C44072BCDE92B342A
:104A7800C8E900257FF7B8A8514648462AAA02F097
:104A8800ADF900287EF4C0AFDDE92B340DF1B40890
:104A9800FFF7ACB8002B08BF01230993079B43F429
:104AA80080731293159B002B0C93C0F2BD800224D7
:104AB800099D28A825AA24ABCDE90320CDE9004506
:104AC800DDE91445029322462B4648461E9100F024
:104AD800D3F90C9B07460F931E9B0C940D934AE643
:104AE80000230D9353E767261A990B78FF2B00F0E4
:104AF800DE800024109A204603E001300131FF2BAC
:104B080008D0934206DAD21A4B78002BF5D10B78ED
:104B18000134F4E71A91109216901294129A169B87
:104B28000C9913441D9A02FB03130C9323EAE373B5
:104B38000893FFF7B6BA179B6626D31819440C9149
:104B480062E606F10F020121D2B2FFF74FBA00293F
:104B580067D130228DF89A200DF19B02303302F88C
:104B6800013B26ABD31A1B93FFF783BA7096000854
:104B7800000030400000E03FA096000824AA0C98EE
:104B88000F9902F0ADF800224FF07F53FBF704FDB8
:104B980004460D4600220023CDE91045FBF764FFCB
:104BA80008B101232493444B0C9384E667262EE630
:104BB800BAF80C30FEF7B9BC109B0C937CE5159B3A
:104BC8000320002BB8BF2D234FF00001BABF1A46AF
:104BD8008DF88B309DF88B20384F394B08900D910C
:104BE800FEF7E2BCC3F101031A4422EAE273672626
:104BF8000C9208936CE5002200230C980F99FBF7A0
:104C080033FF00287FF4DBAD099BC3F10103249334
:104C1800D6E52B99FFF759BBE9077FF535AAFFF7CA
:104C28002FBA0DF19A0299E70D90B0E6099A05F0AE
:104C3800010513462B4304D10123662608930C93E0
:104C480046E5179B662601331A4422EAE2730C9262
:104C580008933DE51B4B0F93FFF7E9BB194A2B9BC4
:104C68000F92B1E40F9BDDE60E9B9BF8016053F8B1
:104C7800040B934640EAE07009900E93FEF7C7BA1A
:104C8800BAF80C3043F04003AAF80C30FEF74DBCDC
:104C98000C4A0F92E6E60C234FF0FF32C9F80030B9
:104CA8000A92FEF749BC02231B93FFF7E2B90023DF
:104CB8001293169332E700BF5C96000854960008DA
:104CC80058960008A09600082DE9F047DFF880A064
:104CD8000646DAF8000098460F469146FEF748FA6D
:104CE8001A4B1B68D3F8484124B365681F2D26DC8E
:104CF8005EB96B1C0235DAF80000636044F8257071
:104D0800FEF738FA0020BDE8F087012304EB85019F
:104D1800C1F88890D4F88821AB401A43022EC4F811
:104D28008821C1F80881E4D1D4F88C211343C4F850
:104D38008C31DEE703F5A674C3F84841D5E7DAF805
:104D48000000FEF717FA4FF0FF30DCE7489600083E
:104D5800D00400202DE9F04F03690D6983B0AB4200
:104D6800C0F28480013D01F1140600F1140956F8DF
:104D7800253059F8252001338E46A90000919A4222
:104D880009EB85018246B2FBF3F706EB8508019132
:104D980037D30022B446144648465CF8043B016801
:104DA8001FFA83FB07FB0B221B0C4FEA124B07FB76
:104DB80003BB93B2E31A8AB21FFA8BF41344C4EB11
:104DC800114404EB23449BB243EA0443E04540F812
:104DD800043B4FEA24444FEA1B42DED2009B59F8B9
:104DE800033073B9019B043B994504D307E0994507
:104DF80005F1FF3503D253F80429002AF7D0CAF881
:104E080010507146504601F043FE00282ADB484600
:104E18000023013756F8041B04688AB29A1A0B0C4F
:104E2800A1B20A44C3EB144303EB224392B242EA11
:104E38000342B04540F8042B4FEA2343EAD259F81D
:104E4800252009EB85036AB9043B994504D307E09B
:104E5800994505F1FF3503D253F80429002AF7D004
:104E6800CAF81050384603B0BDE8F08F002003B0F0
:104E7800BDE8F08F000000002DE9F04F16461F46F0
:104E8800016C9BB00446CDE90467279D41B101231D
:104E9800426C9340C1E9012301F0CCFB0023236459
:104EA800B7F10009B4BF012300232B60764BBCBFC8
:104EB80029F00049CDF8149033EA090300F0AB80DB
:104EC800DDE904231046194600220023CDE9080134
:104ED800FBF7CAFD804670B10123269A1360289B10
:104EE800002B00F0C28269481860431E03930398A0
:104EF8001BB0BDE8F08F18AA19ABCDE90032DDE987
:104F08000823204601F08AFE5FEA1955824640F0E0
:104F18009880DDE91885454405F23240202840F3A1
:104F28009083C0F1400305F2124009FA03F926FA0A
:104F380000F049EA0000FBF7B5FA0122013D0F92A3
:104F4800A1F1F8710022524BFBF76EF948A3D3E99F
:104F58000023FBF721FB48A3D3E90023FBF766F9FD
:104F6800064628460F46FBF7ADFA45A3D3E90023CA
:104F7800FBF712FB02460B4630463946FBF756F95B
:104F880006460F46FBF7A2FD002283460023304663
:104F98003946FBF773FD002840F05A82BBF1160F23
:104FA80000F24882DDE908013A4B03EBCB03D3E971
:104FB8000023FBF763FD002872D00023A8EB05054A
:104FC8000E936B1E0BF1FF3B069300F13B8200230F
:104FD8000B93BBF1000F6BDA0B9BCDF81CB0A3EB66
:104FE8000B030B93CBF100030D93249B4FF0000BA5
:104FF800092B66D8052B40F322830025043B249314
:10500800249B023B032B00F26E86DFE813F03B047F
:1050180038042F04120442F20F73269AC9F31309B5
:10502800136059EA06031CD1289B002B00F0578611
:10503800194B03930833289A039813601BB0BDE8F3
:10504800F08FDDE90812C2F31303084643F07F51DD
:10505800CDF83C80A5F2FF35DDF8608041F44011C1
:1050680070E7289B002B40F0C8830C4B03933EE766
:1050780061436F63A787D23FB3C8608B288AC63F56
:10508800FB799F501344D33F0000F07F8D960008B2
:105098000000F83FF8970008B4960008B09600089A
:1050A800A8EB05056B1E069300F1A9840E900B90E2
:1050B800069B5B44CDE9063B00230D93249B092BFB
:1050C80098D900230125249325934FF0FF330C959D
:1050D8000A9300210A9B61641293204601F084FA26
:1050E8000390002800F00786039B23640A9B0E2B7D
:1050F80000F2E980002D00F0E6800799002940F3CE
:105108005284B54B01F00F0203EBC203C8054FEA06
:105118002115D3E9006740F1EE83DDE90801AF4BC3
:105128004FF00309D3E90823FBF760FBCDE9100131
:1051380005F00F058DB1DFF8A482E90709D5D8E994
:10514800002330463946FBF727FA06460F4609F191
:1051580001096D1008F10808EFD1DDE910013246A8
:105168003B46FBF743FB06460F460E9B43B1002226
:10517800304639469A4BFBF781FC002840F03B85C6
:105188004846FBF79FF932463B46FBF705FA954B35
:105198000022FBF74BF80A9B8046A1F15079002BBF
:1051A80000F0CE83079B13930A9B10930C9B002B54
:1051B80000F0B784109A884B002003EBC20353E930
:1051C80002238949FBF712FB42464B46FBF72CF8B2
:1051D80002460B4630463946CDE91423FBF776FCE8
:1051E8008046FBF76FF902460B4630463946FBF717
:1051F8001BF8039D08F1300306460F46024605F8E2
:10520800013B0B46DDE91401FBF756FC002840F092
:105218003B85CDE916ABDDE914ABDDF840804FF0F6
:10522800000910942AE009F10109C14548DA5046FD
:10523800594600226D4BFBF7AFF900226B4B8246B3
:105248008B4630463946FBF7A7F90F460646FBF76B
:105258003DFC0446FBF736F902460B463046394614
:10526800FAF7E2FF303452465B4605F8014B064632
:105278000F46FBF703FC002840F0038532463B4607
:1052880000205749FAF7D0FF52465B46FBF7F6FB7A
:105298000028C8D0139BDDF858A0109C039A0793E8
:1052A80002E0954200F0D284A94615F8013D392B59
:1052B800F7D00133DBB22B70079B01330793A0E1D2
:1052C800109CDDE916AB199B002BC0F29380079A5E
:1052D8000E2A00F38F80404B03EBC203D3E900236F
:1052E800CDE90423259B002B1ADA0A9B002B17DC37
:1052F80040F03F83DDE9040100223D4BFBF74CF908
:1053080002460B46DDE90801FBF7C2FBDDF8288001
:105318004546002800F0CD82259B039FDE43D0E25E
:10532800DDE90467DDE9080132463B46FBF75EFA32
:10533800FBF7CCFB8046FBF7C5F832463B46FBF74C
:105348002BF90B460246DDE90801FAF76DFF039DCC
:1053580008F1300305F8013B0A9B012B00F07F831D
:10536800CDF818A04FF001099B46AA4608941DE005
:1053780032463B4620462946FBF738FAFBF7A6FBA0
:105388008046FBF79FF832463B46FBF705F909F1E3
:1053980001090B46024629462046FAF745FF08F15F
:1053A8003003CB450AF8013B00F0558300220F4B30
:1053B800FBF7F2F80022002304460D46FBF754FBE6
:1053C8000028D5D05546089CDDF818A0079BA946AB
:1053D8000133079315E100BFF8970008D09700083C
:1053E8000000F03F00001C400000E03F00002440A7
:1053F800000014400C9A002A3DD0249A012A40F358
:10540800BC820A9B5F1E0D9BBB42C0F26E82DF1BF3
:105418000A9B002BC0F25483069A11460B9A194432
:1054280016461A4406910B920121204601F0AAF96A
:10543800054623E00123A8EB05050E936B1E069392
:105448007FF5C5ADC5F101030B9300230693C0E5B5
:105458005846FBF737F832463B46FBF705FB002872
:105468007FF49CAD0BF1FF3B98E5C74B0393039882
:105478001BB0BDE8F08F0D9FDDE90B65002E0CDD3C
:10548800069A002A09DDB2421346A8BF33460B9993
:10549800F61AC91AD31A0B9106930D9BD3B10C9B1C
:1054A800002B00F0A381002F10DD29463A46204644
:1054B80001F02EFA524601460546204601F078F9D9
:1054C8000346514620469A4601F0B4F80D9BDA1B74
:1054D80040F08D810121204601F054F9BBF1000F05
:1054E800804600F3B380249B012B40F38A814FF060
:1054F80000090120BBF1000F40F0B480069A104467
:1055080010F01F0000F09280C0F12003042B40F33C
:10551800F9830B9BC0F11C00034402440B9306441F
:1055280006920B9B002B05DD51461A46204601F0DA
:105538003BFA8246069B002B05DD41461A4620466B
:1055480001F032FA80460E9B002B40F035810A9B11
:10555800002B40F31B810C9B002B40F09A80079B8B
:10556800013307930126039FDDF8289007E0514691
:1055780000230A22204601F067F882460136414698
:105588005046FFF7E7FB4E4500F1300307F8013BB3
:10559800EDDB0A9A0026002ACCBF93464FF0010B98
:1055A800039A9344514601222046049301F0FCF9E2
:1055B8004146824601F06CFA002840F3A8811BF8A6
:1055C800013C039A0BF1FF3B04E05A4500F0E481EB
:1055D8001BF8013D392B0BF10109F6D001338BF88B
:1055E80000304146204601F025F855B12EB1AE42B3
:1055F80003D03146204601F01DF82946204601F027
:1056080019F85146204601F015F8002389F80030B2
:10561800269B1A46079B1360289B002B3FF467AC18
:105628000398C3F800901BB0BDE8F08F1C200B9BBB
:10563800064403440B93069B0344069371E7012534
:10564800DEE4C0F1200006FA00F074E401465A4690
:10565800204601F05DF9249B8046012B40F3D1815F
:105668004FF00009D8F8103008EB8303186901F0EF
:1056780039F8C0F1200041E7294600230A222046D4
:1056880000F0E2FF129B0546002B40F315830797B5
:105698000A93002E00F32281B9F1000F40F0F9813E
:1056A8002F460399049B0E4603F001024B1E2499D2
:1056B8000C920A430B920A9A1A440A92414650469F
:1056C800FFF748FB29468346504601F0E1F93A4680
:1056D80041468146204601F0F9F9C26801460BF1BE
:1056E8003003002A42D106905046089301F0D0F9C1
:1056F80006990490204600F09DFF049A089B1AB969
:105708000B99002900F0CB82B9F1000FC0F2858116
:10571800249941EA09090C9951EA090100F07D81AF
:10572800002A00F3D1810A9A06F101099642CB4674
:10573800337000F0E381514600230A22204600F02E
:1057480083FFBD42824629464FF000034FF00A020C
:10575800204612D000F078FF3946054600230A2279
:10576800204600F071FF4E460746A7E720460493FF
:1057780000F060FF0122049BC6E700F065FF4E467B
:10578800054607469AE700BF8C960008249B022B23
:105798007EDC0C9B002B7FF47CAF41465046FFF724
:1057A800D9FA079ADDF80CB000F13003013200266F
:1057B80007920BF8013BF5E64146504601F068F9BF
:1057C8000028BFF6C4AE514600230A22204600F046
:1057D8003BFF079B82465F1E0C9B002B7FF44CAF60
:1057E800129B002B40F362820A93BBE60D9A514646
:1057F800204601F08DF882466CE6BA4B03930333DA
:1058080019E4DDE9041200297FF471AEC2F3130331
:10581800002B7FF46CAEB44B1340002B00F02A82AF
:105828000B9B4FF0010901330B93069B0133069341
:105838005FE601230C93259B079A134412930133C7
:10584800012B1E46B8BF01260A930021172E61645A
:105858007FF743AC012204235B0003F11400B0423C
:10586800114602F10102F7D9616436E401230C9371
:10587800259B002B46DD1E4612930A93E5E700237D
:105888000C93D8E700230C93F2E7129B07970A932F
:105898000A9B002B7FF440AD41460522204600F0CC
:1058A800D3FE80465046414601F0F2F800287FF7C3
:1058B80033AD039F31223B46079E03F8012B013687
:1058C80003934146204600F0B5FE731CDDF80C90AA
:1058D80007930397002D7FF490AE92E6294632464F
:1058E800204601F061F80546D6E60D9B0D97FB1A98
:1058F8009B4400278CE5DDE908234FF00209CDE938
:10590800102317E4012325930A93FFF7E2BB03D181
:10591800049BDB073FF553AED9461BF8013D302BFE
:10592800FAD05EE64846FAF7CDFD32463B46FAF72E
:1059380033FE00226D4BFAF779FC8046A1F15079CD
:105948003046394600226A4BFAF76EFC42464B460F
:1059580006460F46FBF7B0F8002840F0878142461C
:105968003046394609F10043FBF788F800283FF430
:10597800AAAC4FF000084546CEE40F9A002A00F082
:10598800C380069A03F233431A4406920B9A0D9F7A
:1059980016461A440B9247E53123079A01320792BB
:1059A800039A13701DE600F04B81DDE90801079B9F
:1059B8005D42504B05F00F0203EBC203D3E900230D
:1059C800FAF7EAFD2D1106460F4600F07D81002307
:1059D8004FF00209DFF82081EA0705D5D8E900234E
:1059E800FAF7DAFD012399446D1008F10808F3D19C
:1059F800002B3FF4BAAB06460F46FFF7B6BB0E9036
:105A080020E5049B002B7FF42BAEDDE90412C2F3E2
:105A18001303002B3FF4FFAE22E6002A12DD5146A5
:105A280001222046049300F0BFFF4146824601F060
:105A38002FF80028049B40F32C81392B00F00C81AF
:105A48000BF13103B14609F8013B079B2E460133A0
:105A58003D460793C5E55546089CDDF818A0024663
:105A68000B46FAF7E3FBDDE9042306460F46FBF78E
:105A780023F860B9DDE9042330463946FAF7F4FF24
:105A880000283FF4A3AC18F0010F3FF49FAC039A31
:105A98000AE42046696800F0A7FD0646002800F0E1
:105AA80017812B6905F10C0102339A000C30FBF7C2
:105AB80035F831460122204600F076FF0746F0E52A
:105AC800DDE90A239E1AAFE4392B00F0C580B14600
