:020000040800F2
:100000000000012035160008F9020008FB02000874
:10001000FD020008FF0200080103000800000000C4
:1000200000000000000000000000000003030008C2
:10003000050300080000000007030008090300088A
:100040007D1600087D1600087D1600087D16000844
:100050007D1600087D1600087D1600087D16000834
:100060007D1600087D1600087D1600087D16000824
:100070007D1600087D160008110300082103000802
:100080007D1600087D1600087D1600087D16000804
:100090007D1600087D1600087D1600087D160008F4
:1000A0007D1600087D1600087D1600087D160008E4
:1000B0007D1600087D1600087D1600087D160008D4
:1000C0007D1600087D1600087D1600087D160008C4
:1000D0007D160008310300087D1600087D16000813
:1000E000410300087D1600087D1600087D160008F3
:1000F0007D1600087D1600087D1600087D16000894
:100100007D1600087D1600087D1600087D16000883
:100110007D1600087D1600087D1600087D16000873
:100120007D1600087D1600087D1600087D16000863
:1001300000000000000000000000000000000000BF
:1001400000000000000000000000000000000000AF
:10015000000000000000000000000000000000009F
:10016000000000000000000000000000000000008F
:10017000000000000000000000000000000000007F
:10018000000000000000000000000000000000006F
:10019000000000000000000000000000000000005F
:1001A000000000000000000000000000000000004F
:1001B000000000000000000000000000000000003F
:1001C000000000000000000000000000000000002F
:1001D000000000000000000000000000000000001F
:0401E0005FF8E0F1F3
:1001E40010B5054C237833B9044B13B10448AFF36D
:1001F40000800123237010BD3C0400200000000097
:10020400A817000808B5034B1BB103490348AFF313
:10021400008008BD0000000040040020A81700086A
:1002240030B591B0002409940B9401940294039482
:1002340004940594092306934FF480330793089498
:1002440001220A920C9202250D950E934FF4E013AD
:100254000F9306A800F0DCFC0F230193029503948E
:100264004FF4806304930594294601A800F00EFF1F
:1002740011B030BD08B500F093F8FFF7D1FF41F29B
:10028400883000F0B1F801F05BF901F013F901F0E6
:100294007BF900220821054800F063FC01E001F02D
:1002A40083F901F027F90128FBD1F8E70014014094
:1002B40082B00E4B9A6942F001029A619A6902F087
:1002C40001020092009ADA6942F08052DA61DB6935
:1002D40003F080530193019B054A536823F0E063C4
:1002E40043F00073536002B0704700BF0010024037
:1002F400000001407047FEE7FEE7FEE7FEE77047B7
:100304007047704708B500F05DF808BD08B50248AD
:1003140000F08EF908BD00BF9C04002008B5024817
:1003240000F086F908BD00BF5804002008B5024853
:1003340000F0FAFF08BD00BFE004002008B54FF448
:10034400804000F015FC4FF4004000F011FC08BDA3
:100354007047000010B504460E4B18784FF47A73BA
:10036400B3FBF0F30C4A1068B0FBF3F000F096F81E
:1003740068B90F2C01D901200AE0002221464FF070
:10038400FF3000F057F8054B1C60002000E001200E
:1003940010BD00BF04000020000000200800002061
:1003A40008B5074A136843F010031360032000F0F4
:1003B4002FF80020FFF7CEFFFFF77AFF002008BDDB
:1003C40000200240034A1168034B1B780B4413605E
:1003D400704700BF2005002004000020014B18686E
:1003E400704700BF2005002038B50446FFF7F6FF2C
:1003F4000546B4F1FF3F02D0044B1B781C44FFF7C1
:10040400EDFF401BA042FAD338BD00BF040000201A
:10041400074AD36823F4E0631B041B0C000200F4B6
:10042400E060034343F0BF6343F40033D360704799
:1004340000ED00E030B4174BDB68C3F30223C3F1D3
:100444000704042C28BF04241D1D062D18D9033BC2
:100454004FF0FF3505FA04F421EA0401994005FA46
:1004640003F322EA0303194300280BDB0901C9B291
:1004740000F1604000F5614080F8001330BC704723
:100484000023E5E700F00F000901C9B2024B19543B
:10049400F4E700BF00ED00E014ED00E00138B0F136
:1004A400807F0AD2064B5860064AF02182F8231056
:1004B4000020986007221A6070470120704700BF2F
:1004C40010E000E000ED00E008B590F82130022BC8
:1004D40003D004238363012008BD0268136823F05A
:1004E4000E0313600268136823F0010313600368AA
:1004F4004B4A93424ED9783A934224D014329342D1
:1005040030D0143293422FD0143293422FD014326D
:1005140093422FD0143293422FD0143293422FD0CF
:1005240002F5627293422ED0143293422DD01432CB
:1005340093422CD01432934202D04FF4803203E021
:100544004FF4805200E00122364B5A60012380F8B8
:100554002130002380F82030436B002B5ED0984775
:100564000020B9E71022EFE74FF48072ECE74FF474
:100574008052E9E74FF48032E6E74FF48012E3E774
:100584004FF08072E0E70122DEE71022DCE74FF44F
:100594008072D9E7244A934224D01432934225D05E
:1005A4001432934224D01432934224D0143293420E
:1005B40024D01432934224D01432934224D002F52E
:1005C4006272934223D01432934222D01432934263
:1005D40021D01432934202D04FF4803203E04FF41E
:1005E400805200E00122114B5A60AFE71022FAE773
:1005F4004FF48072F7E74FF48052F4E74FF48032FF
:10060400F1E74FF48012EEE74FF08072EBE701223E
:10061400E9E71022E7E74FF48072E4E700205BE7A4
:100624008000024000040240080002400000024032
:1006340038B5C36B1A6804682568016C04238B40C1
:10064400134200F09B8015F0040F00F0978023689C
:1006540013F0200F03D1236823F0040323600368FD
:10066400AA4A934246D9783A934224D01432934208
:1006740028D01432934227D01432934227D0143214
:10068400934227D01432934227D01432934227D076
:1006940002F56272934226D01432934225D014326A
:1006A400934224D01432934202D04FF4802203E0C8
:1006B4004FF4804200E00422954B5A60C36A03B1B0
:1006C400984738BD4022F7E74FF48062F4E74FF4CF
:1006D4008042F1E74FF48022EEE74FF48002EBE72B
:1006E4004FF08062E8E70422E6E74022E4E74FF4B3
:1006F4008062E1E7874A934224D01432934225D0A2
:100704001432934224D01432934224D014329342AC
:1007140024D01432934224D01432934224D002F5CC
:100724006272934223D01432934222D01432934201
:1007340021D01432934202D04FF4802203E04FF4CC
:10074400804200E00422744B5A60B7E74022FAE783
:100754004FF48062F7E74FF48042F4E74FF48022CD
:10076400F1E74FF48002EEE74FF08062EBE70422FA
:10077400E9E74022E7E74FF48062E4E702238B4095
:10078400134200F0A38015F0020F00F09F8023684D
:1007940013F0200F06D1236823F00A0323600123FA
:1007A40080F821300368594A93424BD9783A9342EE
:1007B40024D0143293422DD0143293422CD01432CC
:1007C40093422CD0143293422CD0143293422CD026
:1007D400143293422CD002F5627293422BD014321D
:1007E40093422AD01432934229D01432934202D035
:1007F4004FF4003203E04FF4005200E00222444B75
:100804005A60002380F82030836A002B3FF459AFEC
:10081400984756E72022F2E74FF40072EFE74FF4CF
:100824000052ECE74FF40032E9E74FF40012E6E738
:100834004FF00072E3E70222E1E72022DFE74FF402
:100844000072DCE7334A934224D01432934225D019
:100854001432934224D01432934224D0143293425B
:1008640024D01432934224D01432934224D002F57B
:100874006272934223D01432934222D014329342B0
:1008840021D01432934202D04FF4003203E04FF4EB
:10089400005200E00222204B5A60B2E72022FAE71D
:1008A4004FF40072F7E74FF40052F4E74FF40032CC
:1008B400F1E74FF40012EEE74FF00072EBE702228B
:1008C400E9E72022E7E74FF40072E4E7082303FA9C
:1008D40001F111423FF4F5AE15F0080F3FF4F1AE0B
:1008E400236823F00E032360026CC16B012303FA17
:1008F40002F24A60836380F82130002380F82030BC
:10090400036B002B3FF4DDAE9847DAE6800002402B
:10091400000402400800024000000240F0B482B02B
:1009240000252C46ABE0854FBB4210D007D9844F3D
:10093400BB420CD007F58037BB4208D013E0A7F5C3
:100944008017BB4203D007F57027BB4207D18B68E1
:10095400002B60D0012B59D04261082503E0A7F594
:100964008017BB42F3D0FF2E57D88446FF2E57D8AA
:10097400A200DCF800300F27974023EA070305FAAA
:1009840002F21343CCF800304B6813F0805F75D04B
:100994006C4B9A6942F001029A619B6903F001036E
:1009A4000193019BA208971C674B53F827C004F0DE
:1009B40003039F000F23BB402CEA030C634B9842B4
:1009C40034D003F58063984200F0948003F580638B
:1009D400984200F0918003F58063984200F08E8085
:1009E40003F58063984200F08B8003F5806398429E
:1009F4001AD006231BE0CD68B5E7CD680435B2E70D
:100A0400CD680835AFE7CD680C35ACE70261082541
:100A1400A9E70025A7E70425A5E700F1040CA5E74D
:100A2400A4F108029200A4E7052300E00023BB40E0
:100A340043EA0C030232444F47F822304B6813F464
:100A4400803F5FD0424A1368334313604B6813F40A
:100A5400003F5DD03E4A5368334353604B6813F400
:100A6400801F5BD03A4A9368334393604B6813F416
:100A7400001F59D0364AD3681E43D66001340B6830
:100A840033FA04F256D00122A24003EA020632EA03
:100A94000303F3D14B68122B3FF645AF122B3FF6FD
:100AA40062AF01A757F823F053090008FB090008B7
:100AB400050A0008170A00086B0900086B090008FA
:100AC4006B0900086B0900086B0900086B09000832
:100AD4006B0900086B0900086B0900086B09000822
:100AE4006B0900086B0900086B090008FF0900087E
:100AF4000B0A000801239AE7022398E7032396E7E9
:100B0400042394E7124A136823EA060313609DE75B
:100B14000F4A536823EA060353609FE70C4A93681D
:100B240023EA06039360A1E7094AD36823EA060689
:100B3400D660A3E702B0F0BC704700BF00002210EB
:100B44000000311000100240000001400008014084
:100B5400000401408368194201D00120704700203D
:100B640070470AB1016170470904016170470000D0
:100B740008B5054B5B69034200D108BD024B5861BF
:100B840000F06EFCF9E700BF0004014008B338B57B
:100B9400044603684CF6CC421A60036845F2555289
:100BA4001A60036842685A60036882689A60FFF7B3
:100BB40015FC05462368DA6832B1FFF70FFC401BC9
:100BC4002628F7D9032003E04AF6AA221A60002057
:100BD40038BD0120704703684AF6AA221A60002033
:100BE4007047000082B0084B1B68084AA2FB03232D
:100BF4005B0A00FB03F3019300BF019B5A1E0192A1
:100C0400002BF9D102B0704700000020D34D6210D0
:100C1400002800F0F18170B582B00446036813F037
:100C2400010F2CD0AA4B5B6803F00C03042B1DD0DE
:100C3400A74B5B6803F00C03082B12D06368B3F571
:100C4400803F41D0002B55D103F1804303F5043399
:100C54001A6822F480321A601A6822F480221A6018
:100C640037E09B4B5B6813F4803FE7D0984B1B68DD
:100C740013F4003F03D06368002B00F0BF812368A6
:100C840013F0020F75D0924B5B6813F00C0F5FD01A
:100C94008F4B5B6803F00C03082B54D02369002BA3
:100CA40000F089808B4B01221A60FFF797FB054601
:100CB400874B1B6813F0020F74D1FFF78FFB401BA7
:100CC4000228F5D903209EE1814A136843F4803356
:100CD4001360636843B3FFF781FB05467C4B1B68D5
:100CE40013F4003FCBD1FFF779FB401B6428F5D9FF
:100CF400032088E1B3F5A02F09D0754B1A6822F4BC
:100D040080321A601A6822F480221A60E1E703F143
:100D14008043A3F53C331A6842F480221A601A68AF
:100D240042F480321A60D4E7FFF758FB0546684B5B
:100D34001B6813F4003FA2D0FFF750FB401B64284C
:100D4400F5D903205FE1624B5B6813F4803FA5D1C2
:100D54005F4B1B6813F0020F03D02369012B40F093
:100D64004F815B4A136823F0F803616943EAC103C6
:100D74001360236813F0080F32D0A369002B45D009
:100D8400554B01221A60FFF729FB0546504B5B6A5D
:100D940013F0020F21D1FFF721FB401B0228F5D9E4
:100DA400032030E14A4A136823F0F803616943EAF7
:100DB400C1031360DDE7474B00221A60FFF70EFB07
:100DC4000546434B1B6813F0020FD2D0FFF706FB16
:100DD400401B0228F5D9032015E10120FFF702FF8B
:100DE400236813F0040F00F09780394BDB6913F08C
:100DF400805F1DD1364BDA6942F08052DA61DB69DB
:100E040003F080530193019B012512E0324B002231
:100E14001A60FFF7E3FA05462D4B5B6A13F0020FE5
:100E2400DED0FFF7DBFA401B0228F5D90320EAE005
:100E340000252A4B1B6813F4807F11D0E368012B33
:100E440022D0002B38D103F1804303F504331A6A0E
:100E540022F001021A621A6A22F004021A6218E0ED
:100E64001E4A136843F480731360FFF7B7FA06460B
:100E74001A4B1B6813F4807FE0D1FFF7AFFA801B95
:100E84006428F5D90320BEE0114A136A43F0010334
:100E94001362E36873B3FFF7A1FA06460C4B1B6AAF
:100EA40013F0020F37D1FFF799FA801B41F2883310
:100EB4009842F3D90320A6E0052B11D0044B1A6AFB
:100EC40022F001021A621A6A22F004021A62E0E7AE
:100ED4000010024000004242800442420070004080
:100EE4004D4B1A6A42F004021A621A6A42F0010275
:100EF4001A62CEE7FFF772FA0646474B1B6A13F0F5
:100F0400020F08D0FFF76AFA801B41F28833984237
:100F1400F3D9032077E0E5B9E369002B72D03E4AA8
:100F2400526802F00C02082A56D0022B17D03B4B11
:100F340000221A60FFF752FA0446374B1B6813F07D
:100F4400007F47D0FFF74AFA001B0228F5D9032097
:100F540059E0314AD36923F08053D361DCE72F4B46
:100F640000221A60FFF73AFA05462B4B1B6813F070
:100F7400007F06D0FFF732FA401B0228F5D9032080
:100F840041E0236AB3F5803F1AD023494B6823F428
:100F94007413226A606A024313434B601F4B01229D
:100FA4001A60FFF71BFA04461B4B1B6813F0007F03
:100FB4000ED1FFF713FA001B0228F5D9032022E013
:100FC400154A536823F40033A1680B435360DCE7EC
:100FD400002018E0002016E0012B16D00E4B5B68B1
:100FE40003F48031226A914211D103F47013626ACE
:100FF40093420ED1002006E001207047012002E058
:10100400012000E0002002B070BD0120FBE70120B8
:10101400F9E70120F7E700BF0010024060004242F8
:1010240086B0164B0FCB0DF1180C0CE90F0040F2F3
:101034000123ADF80430124B5B6803F00C02082A5C
:1010440002D0104806B07047C3F38342624412F8DA
:10105400102C13F4803F0CD0094B5B68C3F340435E
:10106400634413F8143C074800FB02F0B0FBF3F0B0
:10107400E8E7054800FB02F0E4E700BFD0170008EA
:101084000010024000127A0000093D00002800F020
:10109400A08070B50D460446524B1B6803F007034D
:1010A4008B420BD24F4A136823F007030B431360A0
:1010B400136803F007038B4240F08D80236813F01C
:1010C400020F17D013F0040F04D0474A536843F4B7
:1010D400E0635360236813F0080F04D0424A536856
:1010E40043F460535360404A536823F0F003A1680B
:1010F4000B435360236813F0010F31D06368012B55
:1011040020D0022B25D0384A126812F0020F64D086
:1011140035494A6822F0030213434B60FFF75EF936
:101124000646314B5B6803F00C036268B3EB820F35
:1011340016D0FFF753F9801B41F288339842F0D957
:10114400032045E0284A126812F4003FE0D1012050
:101154003EE0254A126812F0007FD9D1012037E021
:10116400204B1B6803F00703AB420AD91D4A1368DE
:1011740023F007032B431360136803F00703AB4208
:101184002DD1236813F0040F06D0174A536823F4B3
:10119400E063E1680B435360236813F0080F07D042
:1011A400114A536823F46053216943EAC10353602D
:1011B400FFF736FF0C4B5B68C3F303130B4AD35C96
:1011C400D8400B4B18600B4B1868FFF7C3F800208E
:1011D40070BD012070470120FAE70120F8E70120E3
:1011E400F6E700BF0020024000100240C0170008CC
:1011F40000000020080000200268D36823F49073E4
:10120400D3600268536923F001035361202380F8FB
:101214003A30704790F83930DBB2212B01D00220EC
:1012240070478368B3F5805F17D0036A5A1C026263
:101234001A7803685A60C38C9BB2013B9BB2C38487
:101244004BB90268D36823F08003D3600268D36883
:1012540043F04003D360002070470369002BE4D1BE
:10126400036A1B880268C3F308035360036A0233EA
:101274000362E0E7704708B50168CA6822F04002DB
:10128400CA60202280F83920FFF7F4FF002008BD4F
:1012940008B590F83A30DBB2222B41D18368B3F51C
:1012A400805F14D0826AB3F5805F02D0E3B903692A
:1012B400D3B903685B681370836A01338362C38D97
:1012C4009BB2013B9BB2C385A3B1002008BD026958
:1012D400002AE7D1826A03685B68C3F308031380BA
:1012E400836A02338362EAE703685B6803F07F037F
:1012F4001370E1E70268D36823F02003D360026827
:10130400D36823F48073D3600268536923F0010324
:101314005361202380F83A3000F04EF90020D5E7DD
:101324000220D3E77047000010B504460268136832
:10133400D168526913F00F0005D113F0200F02D0C9
:1013440011F0200F13D128B112F0010213D111F4BE
:10135400907F10D113F0800F02D011F0800F6CD168
:1013640013F0400F02D011F0400F6AD110BD204697
:10137400FFF78EFFFAE713F0010F06D011F4807F18
:1013840003D0E06B40F00100E06313F0040F04D0DD
:101394001AB1E06B40F00200E06313F0020F04D0D6
:1013A4001AB1E06B40F00400E06313F0080F07D0BB
:1013B40011F0200F00D11AB1E26B42F00802E2638F
:1013C400E26B002AD2D013F0200F02D011F0200FCC
:1013D40021D123685B6903F04003E26B12F0080F2C
:1013E40000D123B32046FFF707FF23685A6912F0A0
:1013F400400F18D05A6922F040025A61636B73B1EE
:10140400124A5A63606BFFF75FF80028AED0606B36
:10141400436B9847AAE72046FFF73AFFD9E72046EF
:10142400FFF780FFA2E72046FFF77CFF9EE72046F8
:10143400FFF778FF0023E36398E72046FFF7EAFE0F
:1014440094E72046FFF717FF90E700BF5514000804
:1014540008B5406A0023C385C384FFF763FF08BD52
:1014640038B50446B0F5004F03D0B4F5804F0FD023
:1014740038BD0F4D002208212846FFF772FB1420C7
:10148400FEF7B2FF012208212846FFF76AFBECE7CA
:10149400074C002210212046FFF763FB1420FEF7BF
:1014A400A3FF012210212046FFF75BFBE0E700BF0A
:1014B4000014014000B587B00C4B9A6942F0200239
:1014C4009A619B6903F020030193019B4FF440430D
:1014D400029300230393012304930323059302A996
:1014E4000348FFF71BFA07B05DF804FB0010024045
:1014F4000014014008B51420FEF776FF4FF4804134
:101504000E48FFF727FB28B14FF400410B48FFF7C3
:1015140021FB48B91420FEF767FF4FF480410748C8
:10152400FFF718FB08B9012008BD4FF40041034838
:10153400FFF710FB0028F7D10220F5E70014014063
:1015440030B587B00E4B9A6942F020029A619B69CC
:1015540003F020030193019B1825029500230393B4
:101564000223049303230593064C02A92046FFF7A4
:10157400D5F9012229462046FFF7F3FA07B030BD1A
:10158400001002400014014008B50548054B0360F3
:10159400062343604CF250338360FFF7F7FA08BD2B
:1015A400240500200030004008B50248FFF713FB73
:1015B40008BD00BF240500200268194B9A4200D0E0
:1015C4007047184A1388B2F90020002AF8DB13F494
:1015D400804F0ED0144A12780A2A03D0114B0022ED
:1015E4001A8070476FEA43436FEA53430D4A1380EE
:1015F40070470D4A12780D2A0DD0C3F30D010B4824
:10160400425401339BB2074A1380C72BD8D91346DF
:1016140000221A80D4E743F48043024A13807047BF
:101624000038014030050020FC050020340500206E
:10163400002103E00B4B5B58435004310A480B4B29
:1016440042189A42F6D30A4A02E0002342F8043BC5
:10165400084B9A42F9D3FEF77BFE00F00FF8FEF731
:1016640009FE7047F4170008000000203C04002025
:101674003C04002024060020FEE7000070B50D4E57
:101684000D4D761BB61006D0002455F8043B0134EA
:101694009847A642F9D1094E094D00F083F8761B0C
:1016A400B61006D0002455F8043B01349847A642EE
:1016B400F9D170BDE8170008E8170008F017000812
:1016C400E8170008024B13B1024800F005B8704750
:1016D40000000000E9160008002301461A461846D7
:1016E40000F01AB838B5084B084D5B1B9C1007D0A6
:1016F400043B1D44013C55F804399847002CF9D1AA
:10170400BDE8384000F054B8F4170008F01700089A
:10171400704700BF704700BF2DE9F047DFF880A095
:101724000646DAF8000098460F469146FFF7F0FFA8
:101734001A4B1B68D3F8484124B365681F2D26DC77
:101744005EB96B1C0235DAF80000636044F825705A
:10175400FFF7E0FF0020BDE8F087012304EB8501DB
:10176400C1F88890D4F88821AB401A43022EC4F8FB
:101774008821C1F80881E4D1D4F88C211343C4F83A
:101784008C31DEE703F5A674C3F84841D5E7DAF8EF
:101794000000FFF7BFFF4FF0FF30DCE7E41700085D
:1017A40038040020F8B500BFF8BC08BC9E4670475A
:0C17B400F8B500BFF8BC08BC9E467047AA
:1017C00000000000000000000102030406070809F1
:1017D00002030405060708090A0B0C0D0E0F101072
:0817E0000000000010000020D1
:0817E800C916000809020008FF
:0417F000E501000807
:1017F4000024F400010000001000000000000000BC
:1018040000000000FC02002064030020CC03002040
:1018140000000000000000000000000000000000C4
:1018240000000000000000000000000000000000B4
:1018340000000000000000000000000000000000A4
:101844000000000000000000000000000000000094
:101854000000000000000000000000000000000084
:101864000000000000000000000000000000000074
:101874000000000000000000000000000000000064
:101884000000000000000000000000000000000054
:101894000000000000000000000000000000000044
:1018A4000000000000000000010000000000000033
:1018B4000E33CDAB34126DE6ECDE05000B000000F8
:1018C4000000000000000000000000000000000014
:1018D4000000000000000000000000000000000004
:1018E40000000000000000000000000000000000F4
:1018F40000000000000000000000000000000000E4
:0C1C24000000000000000000000600208E
:0400000508001635A4
:00000001FF
